:0400000049EF00F0D4
:100008005882F6CF03F0F7CF04F0F8CF05F0F5CF1C
:1000180006F09EAA2CD0AECF07F0610E0718D8A420
:1000280003D0010E0101486F640E0718D8A403D04D
:10003800010E0101496F6A0E0718D8A403D0010EFA
:1000480001014A6F6B0E0718D8A409D0010E0101EF
:100058004B6F8FC101F090C102F0C2EC29F0ABA246
:1000680002D0AB98AB88ABA402D0AB9EAB8E9DB24E
:100078009EA201D09E9206C0F5FF05C0F8FF04C0FD
:10008800F7FF03C0F6FF5892110051EF25F020EE5C
:1000980004F02550D9262650DA22DF50306E305031
:1000A800D8A413D054A007D025C0D9FF26C0DAFFA2
:1000B800DE06000EDD5A20EE06F02550D926265021
:1000C800DA22470EDE6E000EDD6E3004D8B454A07E
:1000D80058D020EE08F02550D9262650DA22DE0422
:1000E800DE10D8A412D020EE06F02550D9262650CE
:1000F800DA22080EDE6E000EDD6E25C0D9FF26C09E
:10010800DAFFDE2A000EDD2211D025C0D9FF26C075
:10011800DAFFDE06000EDD5A20EE06F02550D9265D
:100128002650DA22480EDE6E000EDD6E20EE0AF052
:100138002550D9262650DA22DE2A000EDD2220EEAE
:100148000AF02550D9262650DA22010EDBBE19D036
:10015800010EDB5004E1110EDE5CD8A012D020EEB7
:1001680008F02550D9262650DA22010EDE1A000E94
:10017800DD1A20EE0AF02550D9262650DA22DE6A4A
:10018800DD6A020E3018D8A487D020EE06F025507C
:10019800D9262650DA220D0EDE6E000EDD6E20EE18
:1001A8000AF02550D9262650DA22DE2A000EDD2252
:1001B80020EE0AF02550D9262650DA22010EDBBEA1
:1001C80007D0010EDB500FE13D0EDE5CD8B00BD03E
:1001D80020EE06F02550D9262650DA220D0EDE6EC6
:1001E800000EDD6E46D0D8905430010B286E296A77
:1001F8000D0E2826000E292220EE06F02550D926BD
:100208002650DA2228C0DEFF29C0DDFF20EE0AF0E2
:100218002550D9262650DA22010EDBBE07D0010E62
:10022800DB500EE1510EDE5CD8B00AD020EE02F0B1
:100238002550D9262650DA22DE06000EDD5A19D0BE
:1002480020EE0AF02550D9262650DA22010EDBBE10
:1002580010D0010EDB5004E1650EDE5CD8A009D099
:1002680020EE02F02550D9262650DA22DE2A000E8A
:10027800DD2220EE0AF02550D9262650DA22780E03
:10028800DE18DE10D8A408D020EE0AF02550D926B2
:100298002650DA22DE6ADD6A030E3018D8A449D067
:1002A80020EE0AF02550D9262650DA22DE2A000E42
:1002B800DD2220EE0AF02550D9262650DA22010E3A
:1002C800DBBE07D0010EDB500EE11F0EDE5CD8B09E
:1002D8000AD020EE02F02550D9262650DA22DE0672
:1002E800000EDD5A09D020EE02F02550D9262650FE
:1002F800DA22DE2A000EDD2220EE06F02550D9266D
:100308002650DA22470EDE6E000EDD6E20EE0AF071
:100318002550D9262650DA223C0EDE18DE10D8A445
:1003280008D020EE0AF02550D9262650DA22DE6AB7
:10033800DD6A040E3018D8A417D05438E8461F0BCD
:10034800D8A408D020EE06F02550D9262650DA2267
:100358000F0E07D020EE06F02550D9262650DA22B7
:100368004F0EDE6E000EDD6E050E3018D8A417D0C5
:100378005438E8461F0BD8A408D020EE06F02550C4
:10038800D9262650DA22100E07D020EE06F0255086
:10039800D9262650DA22500EDE6E000EDD6E060ECD
:1003A8003018D8A48BD020EE0CF02550D926265032
:1003B800DA22DE50DE10D8A422D020EE0AF0255032
:1003C800D9262650DA22010EDBBE07D0010EDB50FB
:1003D80016E1080EDE5CD8B012D020EE02F02550EF
:1003E800D9262650DA22DE2A000EDD2220EE0AF077
:1003F8002550D9262650DA22DE2A000EDD2254386E
:10040800E8461F0B2D6E2D50D8A408D020EE06F01C
:100418002550D9262650DA22130E0AD02D04D8A446
:100428000AD020EE06F02550D9262650DA22140EDE
:10043800DE6E000EDD6E20EE08F02550D92626501F
:10044800DA22DE2A000EDD2220EE08F02550D92619
:100458002650DA22010EDBBE07D0010EDB500CE17C
:10046800150EDE5CD8B008D025C0D9FF26C0DAFF4B
:10047800DE06000EDD5A07D025C0D9FF26C0DAFFF8
:10048800DE2A000EDD2220EE08F02550D92626505F
:10049800DA22280EDE18DE10D8A408D020EE08F0E4
:1004A8002550D9262650DA22DE6ADD6A20EE0CF0C5
:1004B8002550D9262650DA22DE6ADD6A070E301862
:1004C800D8A48FD020EE0CF02550D9262650DA2259
:1004D800DECF28F0DDCF29F0D89028362936D890FD
:1004E80028362936D89028362936D89028362936FD
:1004F800AE0E2824D96E010E2920DA6E010EDE6EAA
:10050800000EDD6E5440E8423F0B2F6E2F50D8A4EA
:1005180008D020EE06F02550D9262650DA22110EF2
:1005280022D02F04D8A408D020EE06F02550D926D2
:100538002650DA22510E17D0020E2F18D8A408D050
:1005480020EE06F02550D9262650DA22520E0BD07E
:10055800030E2F18D8A40AD020EE06F02550D9266D
:100568002650DA22120EDE6E000EDD6E20EE0AF044
:100578002550D9262650DA22DE2A000EDD2220EE6A
:100588000AF02550D9262650DA22010EDBBE07D004
:10059800010EDB500CE1150EDE5CD8B008D025C08A
:1005A800D9FF26C0DAFFDE06000EDD5A07D025C0C7
:1005B800D9FF26C0DAFFDE2A000EDD2220EE0AF07F
:1005C8002550D9262650DA22280EDE18DE10D8A4A7
:1005D80008D020EE0AF02550D9262650DA22DE6A05
:1005E800DD6A080E3018D8A463D020EE06F0255036
:1005F800D9262650DA22470EDE6E000EDD6E20EE7A
:100608000AF02550D9262650DA22DE50DE10D8A46A
:100618002ED020EE02F02550D9262650DA22DE2AE6
:10062800000EDD2220EE02F02550D9262650DA22CF
:10063800C0C016F0C1C017F0000E196E0A0E186E71
:1006480020EC26F0DE50165C1750800A2A6EDE5029
:10065800800A2A58D8B02CD020EE0AF02550D92686
:100668002650DA22010EDE6E000EDD6E21D020EE5D
:100678000AF02550D9262650DA22010EDBBE07D013
:10068800010EDB500EE1140EDE5CD8B00AD020EE6D
:100698000AF02550D9262650DA22DE2A000EDD225D
:1006A80007D025C0D9FF26C0DAFFDE06000EDD5AC6
:1006B800090E3018D8A42DD020EE06F02550D926E2
:1006C8002650DA22110EDE6E000EDD6E20EE08F0E6
:1006D8002550D9262650DA22DE2A000EDD2220EE09
:1006E80008F02550D9262650DA22010EDBBE11D09B
:1006F800010EDB5004E1100EDE5CD8A00AD020EE1B
:1007080002F02550D9262650DA22020EDE26000EE7
:10071800DD220A0E3018D8A411D020EE06F025509C
:10072800D9262650DA22190EDE6E000EDD6E25C09F
:10073800D9FF26C0DAFFDE06000EDD5A0B0E301890
:10074800D8A449D020EE0AF02550D9262650DA221E
:10075800DE2A000EDD2220EE0AF02550D92626508A
:10076800DA22010EDBBE07D0010EDB500EE1100EBF
:10077800DE5CD8B00AD020EE02F02550D9262650EB
:10078800DA22DE06000EDD5A09D020EE02F02550EE
:10079800D9262650DA22DE2A000EDD2220EE06F0C7
:1007A8002550D9262650DA22470EDE6E000EDD6E61
:1007B80020EE0AF02550D9262650DA221E0EDE1821
:1007C800DE10D8A408D020EE0AF02550D9262650ED
:1007D800DA22DE6ADD6A0C0E3018D8A412D020EEB8
:1007E80006F02550D9262650DA221A0EDE6E000EA3
:1007F800DD6E25C0D9FF26C0DAFFFE0EDE26FF0E0D
:10080800DD220D0E3018D8A450D020EE06F0255069
:10081800D9262650DA221B0EDE6E000EDD6E54A09D
:1008280044D020EE08F02550D9262650DA22DE04DE
:10083800DE10D8A408D025C0D9FF26C0DAFFDE2AEA
:10084800000EDD2207D025C0D9FF26C0DAFFDE065C
:10085800000EDD5A20EE0AF02550D9262650DA225D
:10086800DE2A000EDD2220EE0AF02550D926265079
:10087800DA22010EDBBE19D0010EDB5004E1110EA5
:10088800DE5CD8A012D020EE08F02550D9262650DC
:10089800DA22010EDE1A000EDD1A20EE0AF02550CB
:1008A800D9262650DA22DE6ADD6A0E0E3018D8A460
:1008B80054D020EE06F02550D9262650DA221B0EF9
:1008C800DE6E000EDD6E54A048D020EE08F02550F4
:1008D800D9262650DA22DE04DE10D8A40AD020EE6B
:1008E80002F02550D9262650DA22DE2A000EDD2213
:1008F80009D020EE02F02550D9262650DA22DE064D
:10090800000EDD5A20EE0AF02550D9262650DA22AC
:10091800DE2A000EDD2220EE0AF02550D9262650C8
:10092800DA22010EDBBE19D0010EDB5004E1110EF4
:10093800DE5CD8A012D020EE08F02550D92626502B
:10094800DA22010EDE1A000EDD1A20EE0AF025501A
:10095800D9262650DA22DE6ADD6A0F0E3018D8A4AE
:100968003CD020EE06F02550D9262650DA221D0E5E
:10097800DE6E000EDD6E20EE08F02550D9262650DA
:10098800DA22DE2A000EDD2220EE08F02550D926D4
:100998002650DA22010EDBBE20D0010EDB5004E126
:1009A8002D0EDE5CD8A019D020EE02F02550D926F5
:1009B8002650DA22DF501E6E100E1F6E25C0D9FF9A
:1009C80026C0DAFFDF502EEC1FF020EE08F025508D
:1009D800D9262650DA22DE6ADD6A100E3018D8A42D
:1009E80012D020EE06F02550D9262650DA22200E05
:1009F800DE6E000EDD6E25C0D9FF26C0DAFFFE0EC2
:100A0800DE26FF0EDD22110E3018D8A4C6D020EE47
:100A18000AF02550D9262650DA22DECF28F0DDCF7D
:100A280029F0060ED89028362936E82EFBD71F0E57
:100A38002812000E291220EE06F02550D92626503D
:100A4800DA2228C0DEFF29C0DDFF54A0A6D020EEA0
:100A580008F02550D9262650DA22DE2A000EDD229B
:100A680020EE0AF02550D9262650DA22DE50DE1074
:100A7800D8A408D025C0D9FF26C0DAFFDE06000EAC
:100A8800DD5A07D025C0D9FF26C0DAFFDE2A000EBE
:100A9800DD2220EE08F02550D9262650DA22010E54
:100AA800DBBE07D0010EDB500EE1030EDE5CD8B0D2
:100AB8000AD020EE02F02550D9262650DA22DE068A
:100AC800000EDD5A6AD020EE08F02550D9262650AF
:100AD800DA22010EDBBE07D0010EDB500EE1150E47
:100AE800DE5CD8B00AD020EE02F02550D926265078
:100AF800DA22DE2A000EDD2250D020EE08F0255042
:100B0800D9262650DA22010EDBBE47D0010EDB5073
:100B180004E1190EDE5CD8A040D020EE08F0255084
:100B2800D9262650DA22010EDBBEC3D7010EDB50D0
:100B380004E12B0EDE5CD8A0BCD720EE08F02550CF
:100B4800D9262650DA22010EDBBECDD7010EDB50A6
:100B580004E12D0EDE5CD8A0C6D720EE08F02550A3
:100B6800D9262650DA22DE6ADD6A20EE0AF0255000
:100B7800D9262650DA22DECF28F0DDCF29F0010E63
:100B8800281A000E291A20EE0AF02550D9262650D8
:100B9800DA2228C0DEFF29C0DDFF120E3018D8A4E3
:100BA80078D020EE06F02550D9262650DA221F0EDE
:100BB800DE6E000EDD6E54A06CD020EE08F02550DD
:100BC800D9262650DA22DE2A000EDD2225C0D9FFDA
:100BD80026C0DAFFDE06000EDD5A20EE08F02550AA
:100BE800D9262650DA22010EDBBE07D0010EDB50D3
:100BF8000EE10F0EDE5CD8B00AD020EE02F02550D0
:100C0800D9262650DA22DE06000EDD5A42D020EE22
:100C180008F02550D9262650DA22010EDBBE21D055
:100C2800010EDB5004E1140EDE5CD8A01AD020EED1
:100C380008F02550D9262650DA22010EDBBE07D04F
:100C4800010EDB500EE1230EDE5CD8B00AD020EE98
:100C580002F02550D9262650DA22DE2A000EDD229F
:100C680018D020EE08F02550D9262650DA22010E99
:100C7800DBBE0FD0010EDB5004E1280EDE5CD8A0ED
:100C880008D020EE08F02550D9262650DA22DE6A50
:100C9800DD6A130E3018D8A466D020EE06F0255071
:100CA800D9262650DA221C0EDE6E000EDD6E030EEB
:100CB800086E5450EDEC29F00009D8A454D020EE69
:100CC80002F02550D9262650DA22C0C016F0C1C03D
:100CD80017F0000E196E0A0E186E20EC26F0DE5082
:100CE800165C1750800A2A6EDE50800A2A58D8B03F
:100CF8000AD020EE02F02550D9262650DA22DE0648
:100D0800000EDD5A09D020EE02F02550D9262650D3
:100D1800DA22DE2A000EDD2225C0D9FF26C0DAFF3E
:100D280050C016F051C017F0000E196E0A0E186E5A
:100D380020EC26F0DE50165C1750800A2A6EDE5032
:100D4800800A2A58D8B008D025C0D9FF26C0DAFFB3
:100D5800DE06000EDD5A07D025C0D9FF26C0DAFF0F
:100D6800DE2A000EDD22140E3018D8A42BD020EE77
:100D780006F02550D9262650DA22190EDE6E000E0E
:100D8800DD6E54B007D025C0D9FF26C0DAFFDE06D5
:100D9800000EDD5A25C0D9FF26C0DAFF010EDBBEE2
:100DA80007D0010EDB500EE1040EDE5CD8B00AD08D
:100DB80020EE06F02550D9262650DA22800EDE6E67
:100DC800000EDD6E150E3018D8A42BD020EE06F0DC
:100DD8002550D9262650DA22190EDE6E000EDD6E59
:100DE80054B007D025C0D9FF26C0DAFFDE2A000E8E
:100DF800DD2225C0D9FF26C0DAFF010EDBBE11D0E7
:100E0800010EDB5004E13D0EDE5CD8A00AD020EED6
:100E180006F02550D9262650DA22800EDE6E000E06
:100E2800DD6E460E3018D8A43ED020EE06F02550D0
:100E3800D9262650DA22150EDE6E000EDD6E20EE63
:100E480008F02550D9262650DA22DE2A000EDD22A7
:100E580020EE08F02550D9262650DA22010EDBBEF6
:100E680022D0010EDB5004E13D0EDE5CD8A01BD081
:100E7800040E1E6E090E1F6EC2EC28F014C016F088
:100E880015C017F0020E196E490E186E20EC26F0E8
:100E980016502EEC1FF020EE08F02550D9262650CB
:100EA800DA22DE6ADD6A470E3018D8B454B04BD166
:100EB80020EE0CF02550D9262650DA22010EDBBE92
:100EC8006BD0010EDB5004E10A0EDE5CD8A064D0C2
:100ED80020EE0CF02550D9262650DA22DE6ADD6A8B
:100EE80020EE0AF02550D9262650DA22020EDE1806
:100EF800DE10D8A408D020EE02F02550D9262650BE
:100F0800DA22180E07D020EE02F02550D9262650F6
:100F1800DA22080EDE6E000EDD6E20EE08F0255097
:100F2800D9262650DA22DE04DE10D8A41BD025C02C
:100F3800D9FF26C0DAFF020EDE6E000EDD6E20EE4F
:100F480002F02550D9262650DA22DF501E6E150EE3
:100F58001F6E25C0D9FF26C0DAFFDF50080F2EEC20
:100F68001FF01AD025C0D9FF26C0DAFF380EDE6E72
:100F7800000EDD6E20EE02F02550D9262650DA222A
:100F8800DF501E6E140E1F6E25C0D9FF26C0DAFF73
:100F9800DF50F80F2EEC1FF020EE0CF02550D9266C
:100FA8002650DA22DE50DE10D8A46CD0070E546426
:100FB80008D020EE06F02550D9262650DA22160E43
:100FC80007D020EE06F02550D9262650DA22170E33
:100FD800DE6E000EDD6E20EE08F02550D926265074
:100FE800DA22DE50DE10D8A420D025C0D9FF26C0D2
:100FF800DAFFDE06000EDD5A25C0D9FF26C0DAFF6B
:10100800010EDBBE07D0010EDB503CE1020EDE5CB8
:10101800D8B038D020EE0CF02550D9262650DA2248
:10102800010EDE6E000EDD6E2DD025C0D9FF26C064
:10103800DAFFDE2A000EDD2220EE06F02550D92642
:101048002650DA22DECF28F0DDCF29F0400E281214
:10105800000E291220EE06F02550D9262650DA2255
:1010680028C0DEFF29C0DDFF25C0D9FF26C0DAFF72
:10107800010EDBBE07D0010EDB50CCE1390EDE5C81
:10108800D8B0C8D720EE0CF02550D9262650DA2241
:10109800DE50DE10D8B41BD020EE0CF02550D92637
:1010A8002650DA22DE2A000EDD2225C0D9FF26C00E
:1010B800DAFF400EDE6E000EDD6E20EE02F02550E7
:1010C800D9262650DA22380EDE6E000EDD6E20EEAE
:1010D8000CF02550D9262650DA22010EDBBE33D07B
:1010E800010EDB5004E10A0EDE5CD8A02CD0C2EC65
:1010F80028F014C016F015C017F0400E196E000E37
:10110800186E20EC26F020EE08F02550D92626503F
:10111800DA2216C0DEFF17C0DDFFC2EC28F014C0CB
:1011280016F015C017F02A0E196EAB0E186E20ECCB
:1011380026F020EE0AF02550D9262650DA2216C0CD
:10114800DEFF17C0DDFF480E3018D8B454B050D1B8
:1011580020EE0CF02550D9262650DA22DECF28F0D2
:10116800DDCF29F0D89028362936D8902836293668
:10117800D89028362936D89028362936AE0E282415
:10118800D96E010E2920DA6E010EDBBE9ED0010E4B
:10119800DB5004E10A0EDE5CD8A097D020EE0CF0FC
:1011A8002550D9262650DA22DECF28F0DDCF29F0C7
:1011B800D89028362936D89028362936D890283617
:1011C8002936D89028362936AA0E2824D96E010E39
:1011D8002920DA6E10EE08F02550E1262650E2228A
:1011E800DECFE6FFDDCFE5FF20EE0CF02550D92657
:1011F8002650DA22DECF28F0DDCF29F0D890283625
:101208002936D89028362936D89028362936D890C5
:1012180028362936AC0E2824D96E010E2920DA6E1C
:10122800DE50DE10D8A408D020EE02F02550D926D2
:101238002650DA22180E07D020EE02F02550D926C3
:101248002650DA22280EDE6E000EDD6E20EE08F043
:101258002550D9262650DA22DE04DE10D8A41BD069
:1012680025C0D9FF26C0DAFF380EDE6E000EDD6E0F
:1012780020EE02F02550D9262650DA22DF501E6EC5
:10128800140E1F6E25C0D9FF26C0DAFFDF50F80FF5
:101298002EEC1FF01AD025C0D9FF26C0DAFF020EA7
:1012A800DE6E000EDD6E20EE02F02550D9262650A7
:1012B800DA22DF501E6E150E1F6E25C0D9FF26C01C
:1012C800DAFFDF50080F2EEC1FF0070E546408D029
:1012D80020EE06F02550D9262650DA22160E07D021
:1012E80020EE06F02550D9262650DA22170EDE6E9B
:1012F800000EDD6E20EE08F02550D9262650DA22A1
:10130800DE50DE10D8A410D025C0D9FF26C0DAFFE1
:10131800DE2A000EDD2220EE06F02550D9262650C2
:10132800DA22000EDB8C07D025C0D9FF26C0DAFFF1
:10133800DE06000EDD5A20EE0CF02550D926265088
:10134800DA22DECF28F0DDCF29F0D89028362936EA
:10135800D89028362936D89028362936D890283675
:101368002936AE0E2824D96E010E2920DA6E010E18
:10137800DBBE3ED0010EDB5003E1DE04D8A038D03E
:1013880020EE0CF02550D9262650DA22DECF28F0A0
:10139800DDCF29F0D89028362936D8902836293636
:1013A800D89028362936D89028362936AE0E2824E3
:1013B800D96E010E2920DA6E010EDBBE07D0010EB0
:1013C800DB5016E10A0EDE5CD8B012D025C0D9FF7A
:1013D80026C0DAFF400EDE6E000EDD6E20EE02F053
:1013E8002550D9262650DA22380EDE6E000EDD6E24
:1013F800500E3018D8A4D6D020EE0AF02550D926A1
:101408002650DA22DE50DE10D8A410D020EE02F0EA
:101418002550D9262650DA2210EE0AF02550E1266A
:101428002650E222DECFE6FFDDCFE5FF20EE08F012
:101438002550D9262650DA22010EDBBE07D0010E30
:10144800DB501EE11E0EDE5CD8B01AD025C0D9FFD5
:1014580026C0DAFFDE06000EDD5A070E546408D0F7
:1014680020EE06F02550D9262650DA22160E1FD077
:1014780020EE06F02550D9262650DA22170E17D06E
:1014880020EE08F02550D9262650DA22010EDBBEC0
:1014980007D0010EDB500FE12D0EDE5CD8B00BD06B
:1014A80020EE06F02550D9262650DA22180EDE6ED8
:1014B800000EDD6E6ED020EE08F02550D92626509D
:1014C800DA22010EDBBE07D0010EDB5021E14A0E05
:1014D800DE5CD8B01DD0070E546408D020EE06F0AC
:1014E8002550D9262650DA22560E07D020EE06F0CF
:1014F8002550D9262650DA22570EDE6E000EDD6EF4
:1015080025C0D9FF26C0DAFFDE2A000EDD2241D031
:10151800C2EC28F014C016F015C017F02A0E196E88
:10152800AB0E186E20EC26F01638F00B2C6E20EE61
:101538000AF02550D9262650DA22DECF28F0DDCF52
:1015480029F02C50285E000E295A20EE02F0255072
:10155800D9262650DA2228C0DEFF29C0DDFF20EE7A
:1015680008F02550D9262650DA22DE6ADD6A20EEF8
:1015780002F02550D9262650DA22DF501E6E0A0EB8
:101588001F6E25C0D9FF26C0DAFFDF50F80F2EECFA
:101598001FF020EE08F02550D9262650DA22DE2A40
:1015A800000EDD22510E3018D8A43DD020EE06F0F2
:1015B8002550D9262650DA22130EDE6E000EDD6E77
:1015C80020EE0AF02550D9262650DA22DE2A000E0F
:1015D800DD2220EE0AF02550D9262650DA22010E07
:1015E800DBBE21D0010EDB5004E13D0EDE5CD8A04D
:1015F8001AD020EE02F02550D9262650DA22DF50E4
:101608001E6E0C0E1F6E25C0D9FF26C0DAFFDF50F4
:10161800F80F2EEC1FF020EE0AF02550D9262650A0
:10162800DA22DE6ADD6A25C0D9FF26C0DAFFDF507C
:10163800286E5650285C2E6E2E50800A900FD8A027
:1016480024D02E50800A370FD8B01FD020EE02F0D9
:101658002550D9262650DA22010EDBBE16D0010EFF
:10166800DB5003E1DE04D8A010D020EE02F02550B4
:10167800D9262650DA22010EDBBE1200010EDB50FD
:1016880004E1390EDE5CD8A0120020EE06F02550E9
:10169800D9262650DA22800EDE6E000EDD6E20EE90
:1016A8000EF02550D9262650DA22FF0EDE6EFF0EE8
:1016B800DD6E1200000E0F01386F000E396F000E3C
:1016C8003A6F000E3B6F9268000E956E000E936E97
:1016D800000E806E000E836E000E816E000E846E0A
:1016E800000E966E020E3C6F020E966E190EC26EBA
:1016F800000EC16EAF0EC06E0C0E5D6F000E496F0E
:10170800000E5E6FF90EBB6EBA84BA90BA829E92D2
:101718009D82948C948EAB9CAC8AAC98AC9CAC8427
:10172800B886100EAF6EAB8EAC98AB88A50E086E5F
:101738007F0E096E96EC29F0B40E086E7F0E096EC6
:1017480096EC29F0C20E086E7F0E096E96EC29F011
:10175800F28EF28C9D8A62EC2AF0070E136E000E50
:10176800146E7F0E156E000EDCEC27F0000E7FEC79
:101778002AF0000E03010B6F000E0A6F000E256F92
:10178800000E246F25BF06D025513DE1080E245DCB
:10179800D8B039D0000E426F000E416F42BF06D05C
:1017A80042512AE1800E415DD8B026D041C30DF0E8
:1017B800D70E0001AB6F6F0EAC6F030141510001F2
:1017C800AB27030142510001AC2303010A51000178
:1017D800AB2703010B510001AC23ABC0F6FFACC033
:1017E800F7FF0800F5CF0EF00301245169EC28F04B
:1017F8000301414B422BD2D7800E0A27000E0B2340
:10180800244B252BBFD70B0E0001AC6F260EAB6FF8
:101818005D0EE82EFED7AB2FFCD7AC2FFAD700D041
:10182800070E136E000E146E7F0E156E000EDCECA4
:1018380027F04D0E086E030E096E660E0A6E7E0EB8
:101848000B6E760E0C6E7D0E0D6E800E0E6E020EF9
:101858000F6E6E0E106E7A0E116E660E126E790E87
:10186800136E65EC29F0000E0E6E020E0D6E66EC1E
:1018780023F074C139F075C13AF0000E3C6E000EC9
:101888003B6E000E3E6E000E3D6E000E406E000E6A
:101898003F6E56EC18F023EE18F0050EDE6AE806E7
:1018A800FDE223EE1EF0050EDE6AE806FDE221EEFB
:1018B80085F013EE38F0050EDBCFE3FFE806FCE217
:1018C8000F0E2D6EF00E2E6E7F0E2F6E020E46EC52
:1018D80027F0100E2D6EF80E2E6E7F0E2F6E050E51
:1018E80046EC27F0150E2D6ED3C02EF02F6A020E8F
:1018F80031EC21F0150E2D6ED2C02EF02F6A050E98
:1019080031EC21F0C282C2B2FED7C3CF10F0C4CFEF
:1019180011F050EC2AF010C003F311C004F312C008
:1019280005F303C310F004C311F005C312F09A0EB7
:10193800136E4C0E146E430E156E8EEC22F010C012
:1019480000F311C001F312C002F3000E01015F6F32
:10195800010E5E6F5EC11EF05FC11FF0000E216EAA
:10196800140E206E3DEC2AF01EC05CF11FC05DF124
:10197800000E0F015E6F5D51FC0B5D6F000E0301E1
:10198800486F000E476F48BF06D048514EE1060E1B
:10199800475DD8B04AD01E0E4725D96E030E4821A0
:1019A800DA6E500E086E1E0E4725E16E030E4821B2
:1019B800E26EE750EDEC29F0DF6E1E0E03014725BD
:1019C800D96E030E4821DA6EDF500001AB6FD89054
:1019D800AB33D890AB33D890AB310301086F180EF6
:1019E8004725D96E030E4821DA6EDF50166E176A46
:1019F80016BE1706000E196E080E186E20EC26F09B
:101A080016500301096F180E4725D96E030E482199
:101A1800DA6E000EDBBE05D009C318F0085112ECCF
:101A280027F00301474B482BAED756C016F057C0D6
:101A380017F0000E196E100E186E20EC26F016C066
:101A48000EF317C00FF30001CE51D8A4E4EF11F044
:101A5800542A0F0E546402D0000E546EBA51BB11B2
:101A6800D8A404D05438E8461F0B16D0BA05BB11C9
:101A7800D8A402D0020E10D0020EBA19BB11D8A4F5
:101A880002D0030E09D0030EBA19BB11D8A406D090
:101A98005438E8461F0B040F0301386F0001BC518E
:101AA800BD11D8B403D00301388D02D00301389D8D
:101AB800010160516111D8A454A003D0800E030124
:101AC800386F5FEC14F00001CB51D8B4C1D0CB51C2
:101AD800B827000ECBBFFF0EB923060E0301396FDE
:101AE800040E0001B825086E000EB921096E040E17
:101AF800CC250A6E0B6A000E0B221BEC22F0AB6F92
:101B0800AB510301106F116B10291111D8B409D012
:101B18001051A2EC1EF0000E0001CB6F800E0301E5
:101B2800396F040E0001B825246E000EB921256E08
:101B3800040ECC25266E276A000E272208EC25F015
:101B48000001AB6FAB510301066F076B0C0E061952
:101B58000711D8A457D0040E0001B825166E000E40
:101B6800B921176E000E196E080E186E20EC26F0BB
:101B780016C01EF017C01FF0040E0001CC25166E0B
:101B8800176A000E1722000E196E080E186E20EC48
:101B980026F016C020F017C021F062EC26F0000EE7
:101BA800196E080E186E040EB825166E000EB921AF
:101BB800176E20EC26F016C01EF017C01FF0000E9E
:101BC800216E500E206EDAEC26F01EC024F01FC0E5
:101BD80025F0040E0001CC25166E176A000E172298
:101BE800000E196E080E186E20EC26F016C026F0AE
:101BF80017C027F0BDEC24F0000E0001CB6F800E5B
:101C08000301396F400E56240001AB6F000E5720B8
:101C1800AC6FB851AB5DAC51800AAD6FB951800A59
:101C2800AD59D8A010D0F80E5624AB6FFF0E572030
:101C3800AC6FAB51B85DB951800AAD6FAC51800A39
:101C4800AD59D8B005D0000ECB6F800E0301396FA7
:101C58000001CD51D8B448D0BC51BD11D8A404D08E
:101C680003014369446905D0000E0301446F010E66
:101C7800436F43054411D8A411D00001B9BF05D062
:101C8800B9510CE1B805D8B009D00301435100019E
:101C9800B827030144510001B92309D0030143299E
:101CA80006E14429D8A403D00001B9AFEED7030157
:101CB8001E510001B8251E6E000EB9211F6E000EC0
:101CC800216E500E206EDAEC26F01E5003011F6FB5
:101CD80018C319F3060E396F0001CD05D8A413D027
:101CE800800E0301396F0FD0B8C01EF0B9C01FF0C5
:101CF800000E216E500E206EDAEC26F01E50030105
:101D08001F6FCCC019F3A20E0301166F010E176FD7
:101D1800000E276F000E266F27BF06D027511FE140
:101D2800040E265DD8B01BD020EE06F01651D92639
:101D38001751DA22800EDE18DE10D8B408D016C388
:101D480025F017C326F026C327F04BEC00F0100E41
:101D580003011627000E1723264B272BDDD750C06B
:101D680016F051C017F0000E196E0A0E186E20EC0E
:101D780026F05650165C03013F6F57501758406FB6
:101D88005504D8B41AD00001CA51D8A416D00301FA
:101D980040BF08D0405104E1150E3F5DD8A002D0E5
:101DA800564A572A40BF06D0405107E10A0E3F5D08
:101DB800D8B003D05606D8A0570657AE04D0000EA8
:101DC800576E000E566E030140BF16D0405104E115
:101DD800380E3F5DD8A010D056C01EF057C01FF077
:101DE800000E216E0A0E206E3DEC2AF0260E1E24EF
:101DF800506E020E1F20516E030140BF05D04051A6
:101E080013E13F05D8B010D056C01EF057C01FF0E0
:101E1800000E216E0A0E206E3DEC2AF0140E1E24D0
:101E2800506E000E1F20516E51BE06D0515008E171
:101E38000A0E505CD8B004D0000E516E0A0E506ED7
:101E4800040E5518D8A44FD06CC11EF06DC11FF0F8
:101E5800C2C020F0C3C021F03DEC2AF01E50565CF1
:101E68000301126F1F505758136FC00E0001C2258F
:101E7800AB6FFF0EC321AC6F030112510001AB5DC4
:101E8800AC51800AAD6F03011351800A0001AD59AE
:101E9800D8B013D0010E01016C251E6E000E6D2105
:101EA8001F6EC2C020F0C3C021F03DEC2AF0C00E66
:101EB8001E24566EFF0E1F20576E030113BF05D058
:101EC800135111E11205D8B00ED06CC11EF06DC1CE
:101ED8001FF0C2C020F0C3C021F03DEC2AF01EC0A4
:101EE80056F01FC057F056500001C65DC751800A12
:101EF800AB6F5750800AAB59D8B004D0C6C056F063
:101F0800C7C057F0C6C01EF0C7C01FF0000E216E34
:101F18000A0E206E3DEC2AF0300E1E240001AB6F35
:101F2800020E1F20AC6F5050AB5DAC51800AAD6FF4
:101F38005150800AAD59D8B010D0C6C01EF0C7C0E5
:101F48001FF0000E216E0A0E206E3DEC2AF0300EB6
:101F58001E24506E020E1F20516E0001C1AFEFD03B
:101F68005504D8B404D0040E5518D8A403D0CA0513
:101F7800D8A405D0000EC16F000EC06FE0D0550484
:101F8800D8A466D0C651565C5750800AAB6FC7516B
:101F9800800AAB59D8B0EED7200E5026030E512236
:101FA800010EC16FF40EC06F500E5626000E572258
:101FB800000E0301296F030E286F29BF06D029518F
:101FC80014E1200E285DD8B010D0D8902835D96EED
:101FD8002935DA6EA20ED926010EDA22800EDE6EBF
:101FE800000EDD6E284B292BE8D756C016F057C0D7
:101FF80017F0000E196E100E186E20EC26F016C0A1
:102008002AF317C02BF309D02AC32FF003012A5152
:1020180096EC25F003012A4B2B2B56C016F057C01F
:1020280017F0000E196E100E186E20EC26F0050E33
:102038001626000E1722165003012A5D2B51800A1E
:102048000001AB6F1750800AAB59D8B078D0DCD7F5
:10205800040E5518D8A473D0C651565C5750800A40
:10206800AB6FC751800AAB59D8B084D701016C4B0C
:102078006D2BC2C01EF0C3C01FF0000E216E0A0EE9
:10208800206E3DEC2AF01E5050261F505122010EA2
:102098000001C16FF40EC06FC2515626C3515722BA
:1020A800000E03012D6F030E2C6F2DBF06D02D518E
:1020B80014E1200E2C5DD8B010D0D8902C35D96EF4
:1020C8002D35DA6EA20ED926010EDA22800EDE6ECA
:1020D800000EDD6E2C4B2D2BE8D756C016F057C0DE
:1020E80017F0000E196E100E186E20EC26F016C0B0
:1020F8002EF317C02FF309D02EC32FF003012E5152
:1021080096EC25F003012E4B2F2B56C016F057C026
:1021180017F0000E196E100E186E20EC26F0050E42
:102128001626000E1722165003012E5D2F51800A25
:102138000001AB6F1750800AAB59D8A0DDD7C1BFDB
:10214800A6D0310EC05D020EC159D8A0A0D055044A
:10215800D8B404D0040E5518D8A403D0CA05D8A4FE
:1021680003D016EC2AF093D05504D8A43FD0E00E43
:102178005026FC0E5122000EC16F3C0EC06FB00EEF
:102188005626FF0E572256C016F057C017F0000EFD
:10219800196E100E186E20EC26F016C030F317C01A
:1021A80031F309D030C32FF00301305196EC25F0FC
:1021B8000301304B312B56C016F057C017F0000EF4
:1021C800196E100E186E20EC26F0050E1626000E5D
:1021D800172216500301305D3151800A0001AB6FA0
:1021E8001750800AAB59D8B052D0DCD7040E551816
:1021F800D8A44DD001016C07D8A06D07C2C01EF04D
:10220800C3C01FF0000E216E0A0E206E3DEC2AF0AE
:102218001E50505E1F50515A000E0001C16F3C0EF7
:10222800C06FC251565EC351575A56C016F057C0B8
:1022380017F0000E196E100E186E20EC26F016C05E
:1022480032F317C033F309D032C32FF003013251F0
:1022580096EC25F00301324B332B56C016F057C0CD
:1022680017F0000E196E100E186E20EC26F0050EF1
:102278001626000E172216500301325D3351800ACC
:102288000001AB6F1750800AAB59D8A0DDD7C0C08A
:1022980016F0C1C017F0000E196E0A0E186E20EC69
:1022A80026F016503F0B0301186F000E196E0A0E28
:1022B800186E50C016F051C017F020EC26F016C06A
:1022C8001EF017C01FF0000E216E500E206EDAECC3
:1022D80026F01E5003011E6F000E3E6F000E4A6F5F
:1022E800020E496F4ABF08D04A5105E1060E495D02
:1022F800D8B0CDD001D0CBD01E0E4925D96E030E53
:102308004A21DA6E3E51020DA20EF324E16E010E4F
:10231800F420E26EE6CF1EF0E5CF1FF0000E216E2E
:10232800500E206EDAEC26F01E50DF6E1E0E0301F2
:102338004925D96E030E4A21DA6E800EDF640FD06C
:102348001E0E4925D96E030E4A21DA6E1E0E492546
:10235800E16E030E4A21E26EE750500FDF6E3E51E8
:102368000001AB6FAC6BD890AB37AC37A40EAB2584
:10237800D96E010EAC21DA6E180E03014925E16E03
:10238800030E4A21E26EDFCFE7FF3E510001AB6F3B
:10239800AC6BD890AB37AC37A80EAB25D96E010E15
:1023A800AC21DA6E380E03014925E16E030E4A218D
:1023B800E26EDFCFE7FF080E3E27494B4A2B92D744
:1023C800CE05D8A447D01E0E086E030E096E180E4F
:1023D8000A6E030E0B6E380E0C6E030E0D6E560E43
:1023E8000E6EE9EC1DF0E806D8A451D0B9EC1FF048
:1023F8005550D8A403D0000E0001CE6F800E030103
:10240800386F800E396F020E5518D8A440D050C0CE
:1024180016F051C017F0000E196E0A0E186E20EC57
:1024280026F0165003011E6FC0C016F0C1C017F089
:10243800000E196E0A0E186E20EC26F016500301D5
:10244800186F1EC31FF31851F80F196F0BEC28F003
:10245800020E1BD0020ECE19D8A419D01E0E086E7B
:10246800030E096E180E0A6E030E0B6E380E0C6EF4
:10247800030E0D6E560E0E6EE9EC1DF0E806D8A49C
:1024880006D0030E556003D0000E0001CE6F56C073
:102498001EF057C01FF0000E216E500E206EDAECB1
:1024A80026F01EC0C8F01FC0C9F056C016F057C0AD
:1024B80017F0000E196E100E186E20EC26F016504C
:1024C80003010E5D0F51800A0001AB6F1750800A9F
:1024D800AB59D8B0B0D056C016F057C017F0000EA0
:1024E800196E100E186E20EC26F01650040F2F6E81
:1024F800C8C016F0C9C017F0000E196E100E186E7D
:1025080020EC26F01650040F96EC25F00301146910
:1025180062D0000E03010C6F000E356F070E346F8A
:1025280035BF06D035511BE11F0E345DD8B017D02A
:10253800D8903435D96E3535DA6EA20ED926010E0B
:10254800DA225250DE1806E15350DE18D8A402D021
:10255800010E0C6F080E3427000E3523E1D70C51FD
:10256800D8A437D052C0ABF053C0ACF00001D8901B
:10257800AB37AC37D890AB37AC37AB51C425AD6F60
:10258800AC51C521AE6FADC0F6FFAEC0F7FF080075
:10259800F550100D5650F3181CE15750F418D8A4F4
:1025A80018D052C0ABF053C0ACF0D890AB37AC37B2
:1025B800D890AB37AC37AB51C425086EAC51C521A8
:1025C800096E52C00AF0140E0B6E030E0C6EE2EC8C
:1025D8001CF0524A532A52C0ABF053C0ACF0000171
:1025E800D890AB37AC37D890AB37AC37AB51C425A4
:1025F800AD6FAC51C521AE6FADC0F6FFAEC0F7FFF1
:102608000800F550100DF350565C5750800AAF6F14
:10261800F450800AAF59D8A00ED001018051525C05
:102628005350800A0001AB6F01018151800A0001FB
:10263800AB59D8A06ED756C016F057C017F0000E89
:10264800196E100E186E20EC26F003010E51165C60
:102658001750800A0001AB6F03010F51800A000177
:10266800AB59D8B0CBD00301156956C016F057C086
:1026780017F0000E196E100E186E20EC26F016508A
:102688002F6EC8C016F0C9C017F0000E196E100ED4
:10269800186E20EC26F0165096EC25F003D0520662
:1026A800D8A05306010E56240001AB6F000E572028
:1026B800AC6F52C0ADF053C0AEF0D890AD37AE3766
:1026C800D890AD37AE37AD51C425AF6FAE51C521E7
:1026D800B06FFC0EAF25B16FFF0EB021B26FB1C065
:1026E800F6FFB2C0F7FF0800F550100DAB51F35CD0
:1026F800F450800AB36FAC51800AB359D8B053BEB6
:1027080005D05350CCE15204D8B0C9D75504D8A449
:102718006FD0FF0E52240301456FFF0E5320466F02
:1027280045D0000E0D6F000E376F070E366F37BF9E
:1027380006D037511BE11F0E365DD8B017D0D890A0
:102748003635D96E3735DA6EA20ED926010EDA2261
:102758004551DE1806E14651DE18D8A402D0010E14
:102768000D6F080E3627000E3723E1D70D51D8A478
:1027780019D045C3ABF046C3ACF00001D890AB37D5
:10278800AC37D890AB37AC37AB51C425086EAC51D9
:10279800C521096E45C30AF0150E0B6E030E0C6EAB
:1027A800E2EC1CF003014507D8A0460745C3ABF08F
:1027B80046C3ACF00001D890AB37AC37D890AB37F4
:1027C800AC37AB51C425AD6FAC51C521AE6FADC0B0
:1027D800F6FFAEC0F7FF0800F550100D5650F3187D
:1027E80007E15750F418D8A403D0030146AF99D78E
:1027F80053AE04D0000E536E000E526E000E03014D
:102808004C6F000E4B6F4CBF06D04C513CE1060E8E
:102818004B5DD8B038D0380E4B25D96E030E4C21FD
:10282800DA6EDFBE2CD0180E4B25D96E030E4C2164
:10283800DA6E000EDBBE23D0180E4B25D96E030EC0
:102848004C21DA6EDF50086E380E4B25D96E030E18
:102858004C21DA6EDF503F0B096E380E4B25D96ECE
:10286800030E4C21DA6EDF50400B0A6E1E0E4B250C
:10287800D96E030E4C21DA6EDF502BEC1AF00301EF
:102888004B4B4C2BC0D70001C9BF0AD0C95104E13A
:10289800500EC85DD8A004D0000EC96F000EC86FD6
:1028A800C9AF04D0000EC96F4F0EC86FC8513AECBB
:1028B80020F086EF0CF0000E196E0A0E186E50C04C
:1028C80016F051C017F020EC26F016C01EF017C005
:1028D8001FF0000E216E500E206EDAEC26F01EC09E
:1028E800A7F01FC0A8F0C0C016F0C1C017F0000EB6
:1028F800196E0A0E186E20EC26F03F0E1614000111
:10290800A96FAA6B50C016F051C017F0000E196ECF
:102918000A0E186E20EC26F016C0A5F017C0A6F017
:10292800040E0001A525086E000EA621096E040EEE
:10293800A9250A6E000EAA210B6E1BEC22F0A06FCF
:10294800A029D8B40ED0A0518B6F8C6BD8908B3740
:102958008C37A60E8B25D96E010E8C21DA6EDF50CE
:10296800A06FA029D8B41BD0010160516111D8A46F
:1029780016D0000E616F1E0E606FFF0E0001BF6F54
:10298800EC0EBE6FD307150E2D6ED3C02EF02F6A36
:10299800020E31EC21F0D351D8B416EC2AF0010123
:1029A80060516111D8B403D06007D8A06107000E48
:1029B800696F000E686F000E0001986F0A0E976F1E
:1029C800BA51BB11D8B404D0000E986F050E976F9A
:1029D800020EBE27000EBF23BEC016F0BFC017F000
:1029E800000E196E0A0E186E20EC26F00001A9518F
:1029F8001626AA511722080E1624A16F000E1720BA
:102A0800A26FA7C02CF0A8C02DF0A1C02EF0A2C0C4
:102A18002FF0ACEC29F0E806D8B462D0BEC016F0AE
:102A2800BFC017F0000E196E0A0E186E20EC26F0C3
:102A38000001A9511626AA511722080E1624A16FC3
:102A4800000E1720A26F070EA7252C6E000EA821D6
:102A58002D6EA1C02EF0A2C02FF0ACEC29F0E80634
:102A6800D8B43ED0BEC016F0BFC017F0000E196E25
:102A78000A0E186E20EC26F00001A9511624A16F49
:102A8800AA511720A26FA7C02CF0A8C02DF0A1C092
:102A98002EF0A2C02FF0ACEC29F0E806D8B420D074
:102AA800BEC016F0BFC017F0000E196E0A0E186EE1
:102AB80020EC26F00001A9511624A16FAA51172075
:102AC800A26F070EA7252C6E000EA8212D6EA1C09F
:102AD8002EF0A2C02FF0ACEC29F0E806D8A425D03F
:102AE800000E196E500E186E460E0001C025166EA7
:102AF800000EC121176E20EC26F016C01EF017C07C
:102B08001FF0000E216E500E206E3DEC2AF01EC004
:102B1800C0F01FC0C1F0000E0001BF6F000EBE6FF5
:102B2800000E0101696F010E686F0001BFBF0AD076
:102B3800BF5104E1280EBE5DD8A004D0000EBF6FBF
:102B4800280EBE6FBE51C027BF51C123C0C016F0AA
:102B5800C1C017F0000E196E0A0E186E20EC26F090
:102B68003F0E16140001A96FAA6B000E9D6F000E90
:102B78009A6F000E996F000E9C6F000E9B6F040EEB
:102B8800A725246E000EA821256E040EA925266E01
:102B9800000EAA21276E08EC25F0080AD8A42DD02B
:102BA800020E00019D6F50C016F051C017F0000EC4
:102BB800196E0A0E186E20EC26F0040E1626000E6A
:102BC8001722F80E16140001996FFF0E17149A6F4A
:102BD800C0C016F0C1C017F0000E196E0A0E186EAC
:102BE80020EC26F0040E1626000E1722F80E1614F6
:102BF80000019B6FFF0E17149C6F80BA04D001016F
:102C08004B51D8B43CD0010164516511D8A432D0DD
:102C180068516911D8B409D00001BA05BB11D8B4FC
:102C280004D0FF0EBF6FE20E10D00001BBBF06D06C
:102C3800BB510CE1020EBA5DD8B008D0000EBB6FD4
:102C4800010EBA6FFF0EBF6FEC0EBE6F040EA72504
:102C5800246E000EA821256E040EA925266E000EEE
:102C6800AA21276E08EC25F0060AD8A403D0010E85
:102C780000019D6F000E0101656F010E03D0000E6B
:102C8800656F000E646F80B003D04951D8B431D05D
:102C9800020E0001BA19BB11D8B42BD0080EA72513
:102CA8002C6E000EA8212D6E070EA9252E6E000E83
:102CB800AA212F6EACEC29F0E806D8B415D0080E7E
:102CC8000001A7252C6E000EA8212D6EA9C02EF09C
:102CD800AAC02FF0ACEC29F0E806D8B405D0000162
:102CE8009751502698515122000E0001BD6F000ED9
:102CF800BC6F80B404D001014851D8B431D0020E61
:102D08000001BA19BB11D8B42BD0FF0EA7252C6E21
:102D1800FF0EA8212D6E070EA9252E6E000EAA21E2
:102D28002F6EACEC29F0E806D8B415D0FF0E0001E0
:102D3800A7252C6EFF0EA8212D6EA9C02EF0AAC0C3
:102D48002FF0ACEC29F0E806D8B405D00001975173
:102D5800505E9851515A000E0001BD6F010EBC6FB4
:102D6800020E0001BA19BB11D8A49FD0CD51D8A426
:102D78009CD0BC51BD11D8A404D0000EA46F070E7E
:102D880003D0FF0EA46FF90EA36FA351A5258B6F77
:102D9800A451A6218C6F070E8B25086E000E8C217E
:102DA800096E040EA9250A6E000EAA210B6E1BECF3
:102DB80022F08D6F8D51936F946BA351A525086EEA
:102DC800A451A621096E040EA9250A6E000EAA2197
:102DD8000B6E1BEC22F08B6F8B51956F966BA3518A
:102DE800A7258B6FA451A8218C6F040E8B25246E08
:102DF800000E8C21256E040EA925266E000EAA2130
:102E0800276E08EC25F000018D6F8D519E6F9F6B2A
:102E180093299411D8B408D0A5C087F0A6C088F02B
:102E2800935101EC23F041D095299611D8B408D0DC
:102E3800A5C087F0A6C088F0955101EC23F035D0E5
:102E48009FBF33D09F5104E10C0E9E5DD8A02DD0BA
:102E58009FBF06D09F5129E1150E9E5DD8B025D0A1
:102E6800A5C030F0A6C031F0A351A7258B6FA4519F
:102E7800A8218C6F040E8B25326E000E8C21336EC8
:102E8800040EA925346E000EAA21356EA351A5257E
:102E98008D6FA451A6218E6F040E8D25366E000EFF
:102EA8008E21376E9E51A8EC21F080B60CD001011E
:102EB8005FBF06D05F5107E11C0E5E5DD8B003D03E
:102EC8004A51D8B44DD0010162516311D8A443D0FE
:102ED8000001BA05BB11D8A404D0000EBB6F000EC8
:102EE80007D0BA51BB11D8A404D0000EBB6F020E94
:102EF800BA6F030EBA19BB11D8A42DD0000EBB6F40
:102F0800000EBA6F50C016F051C017F0000E196EBF
:102F18000A0E186E20EC26F016C0B8F017C0B9F0EB
:102F2800C0C016F0C1C017F0000E196E0A0E186E58
:102F380020EC26F016500001CC6FBC51BD11D8A46E
:102F480004D0000E926F030E03D0FF0E926FFD0E99
:102F5800916F91C0CBF0000E0101636F010E11D08B
:102F6800020E0001BA19BB11D8A407D0CD51D8A4BC
:102F780004D0000EBB6F000EBA6F000E0101636F24
:102F8800000E626F0001CD51D8B40CD0CD07CD51E1
:102F9800D8A408D0000EBB6F030EBA6F010184518C
:102FA80079EC27F000019D05D8A403D0B9EC1FF0F7
:102FB8006FD0020E9D19D8A46BD0280E5024166E1F
:102FC800000E5120176E010E196E400E186E20EC7F
:102FD80026F016C08FF017C090F099C0B8F09AC0CC
:102FE800B9F000019B51F80FCC6F99C01EF09AC040
:102FF8001FF0000E216E0A0E206E3DEC2AF01EC056
:1030080050F01FC051F09BC01EF09CC01FF0000E76
:10301800216E0A0E206E3DEC2AF01EC0C0F01FC0C3
:10302800C1F0010E0001CE6F040EACEC27F0040EC7
:103038000001A725166E000EA821176E000E196E46
:10304800080E186E20EC26F0D89016361736D89051
:1030580016361736D89016361736800E1624000105
:103068008B6F020E17208C6F040EA925166E000EAA
:10307800AA21176E000E196E080E186E20EC26F0A5
:10308800165000018B25D96E17508C21DA6EDF6A35
:10309800000E0101486F000E496F000E4A6F000EC6
:1030A8004B6F120039C0CFF0ECEC28F0000EBF6F68
:1030B800000EBE6F000E536E000E526E000EBB6FF8
:1030C800000EBA6F39C01EF03AC01FF0000E216E14
:1030D800060E206E3DEC2AF01EC039F01FC03AF0F3
:1030E800000E576E000E566ED8903934F66E3A348C
:1030F800F76ECB0EF626750EF7220900F5CF41F0D4
:103108000900F5CF42F0130E4124436E780E422099
:10311800446E010172514324826F73514420836FBE
:1031280039C041F03AC042F0D89041364236020EDA
:103138004126000E4222CB0E4124F66E750E422027
:10314800F76E0900F5CFC6F00A00F5CFC7F039C011
:1031580041F03AC042F0D89041364236040E41263A
:10316800000E4222CB0E4124F66E750E4220F76EF9
:103178000900F5CF43F00900F5CF44F0705143261C
:1031880071514422D89043364436D8904336443659
:10319800760E43240001C46F7C0E4420C56F39C0ED
:1031A80041F03AC042F0D89041364236060E4126E8
:1031B800000E4222CB0E4124F66E750E4220F76EA9
:1031C8000900F5CF80F10A00F5CF81F139C041F04F
:1031D8003AC042F0D89041364236080E4126000ED9
:1031E8004222CB0E4124F66E750E4220F76E010185
:1031F8006E510900F5244B6E6F510900F5204C6E95
:10320800820E4B247E6F7F0E4C207F6F5F0E4B2407
:103218007C6F7F0E4C207D6F190E4B247A6F7F0ECA
:103228004C207B6FF60E4B24786F7E0E4C20796F06
:103238003C0E4B24766F7F0E4C20776F39C041F0DF
:103248003AC042F0D890413642360A0E4126000E66
:103258004222CB0E4124F66E750E4220F76E08000E
:10326800F5CF55F0030E556420D05550416E426A93
:10327800060ED89041364236E82EFBD7800E412400
:103288000001C26FFF0E4220C36F040E556E3BC093
:1032980016F03CC017F0C2C018F0C3C019F020ECFB
:1032A80026F016C06CF117C06DF13BC01EF03CC093
:1032B8001FF0000E216E0A0E206E3DEC2AF01EC093
:1032C80050F01FC051F03DC01EF03EC01FF0000E70
:1032D800216E0A0E206E3DEC2AF01EC0C0F01FC001
:1032E800C1F03FC056F040C057F0000E486E030EC4
:1032F800476ED8904734D96E4834DA6EA20ED92674
:10330800010EDA22800EDE6E000EDD6E080E4726F4
:10331800000E482248BEEDD7485004E1200E475C15
:10332800D8A0E7D756C016F057C017F0000E196E90
:10333800100E186E20EC26F016C049F017C04AF09F
:1033480007D049C02FF0495096EC25F0494A4A2A3F
:1033580056C016F057C017F0000E196E100E186EF2
:1033680020EC26F0050E1626000E17221650495C92
:103378004A50800A416E1750800A4158D8A0E1D7B8
:10338800466837D052C041F053C042F0D890413619
:103398004236D890413642364150C425436E425099
:1033A800C521446E43C0F6FF44C0F7FF0800F5503E
:1033B800100D5650F3181BE15750F418D8A417D025
:1033C80052C041F053C042F0D89041364236D890AE
:1033D800413642364150C425086E4250C521096E17
:1033E80052C00AF0460E0B6E0C6AE2EC1CF0524A10
:1033F800532A01018051525C5350800A416E815119
:10340800800A4158D8B0120052C041F053C042F06F
:10341800D89041364236D890413642364150000164
:10342800C425436E4250C521446E43C0F6FF44C0D4
:10343800F7FF0800F550100DF350565C5750800AFE
:10344800456EF450800A4558D8A012009BD7106EDC
:103458000850070B1A6E08C00BF0D8900B32D890A2
:103468000B32D8900B321050080DF3CF0CF0F4CF7C
:103478000DF00C500001B6250E6E0D50B7210F6EE1
:103488000B500E24156E000E0F20166E0950080DF5
:10349800F3CF18F0F4CF19F0000E1C6E000E1B6E5F
:1034A8000A50D8A471D01AC00BF018500101542545
:1034B8000C6E195055210D6E1B500C261C500D22F8
:1034C8000CC0F6FF0DC0F7FF0800F5CF0EF00B2A71
:1034D80002D0D8900E360B2EFCD70E50136E1A5011
:1034E80008080B6E1850010154250C6E195055210F
:1034F8000D6E1B500C261C500D220CC0F6FF0DC083
:10350800F7FF0800F5CF0EF00B2A02D0D8900E3244
:103518000B2EFCD70E50146E1AC00BF01850000179
:10352800B4250C6E1950B5210D6E1B500C261C507D
:103538000D220CC0F6FF0DC0F7FF0800F5CF0EF006
:103548000B2A02D0D8900E360B2EFCD70E50116ED7
:103558001A5008080B6E18500001B4250C6E19504B
:10356800B5210D6E1B500C261C500D220CC0F6FF09
:103578000DC0F7FF0800F5CF0EF00B2A02D0D89047
:103588000E320B2EFCD780D01AC00BF01B50010155
:10359800545D0C6E1C5055590D6E18500C26195060
:1035A8000D22070E0C26000E0D220CC0F6FF0DC0D2
:1035B800F7FF0800F5CF0EF00B2A02D0D8900E3690
:1035C8000B2EFCD70E50136E1A5008080B6E1B50AA
:1035D8000101545D0C6E1C5055590D6E18500C2687
:1035E80019500D22070E0C26000E0D220CC0F6FFF6
:1035F8000DC0F7FF0800F5CF0EF00B2A02D0D890C7
:103608000E320B2EFCD70E50146E1AC00BF01B5046
:103618000001B45D0C6E1C50B5590D6E18500C2687
:1036280019500D22070E0C26000E0D220CC0F6FFB5
:103638000DC0F7FF0800F5CF0EF00B2A02D0D89086
:103648000E360B2EFCD70E50116E1A5008080B6E52
:103658001B500001B45D0C6E1C50B5590D6E18500E
:103668000C2619500D22070E0C26000E0D220CC038
:10367800F6FF0DC0F7FF0800F5CF0EF00B2A02D0B9
:10368800D8900E320B2EFCD70E50126E15C0D9FFF3
:1036980016C0DAFFDF50176E1350FF0A1714176EA3
:1036A80017501110176E15C0D9FF16C0DAFF17C0D2
:1036B800DFFF154A162A15C0D9FF16C0DAFFDF50FA
:1036C800176E1450FF0A1714176E17501210176E42
:1036D80015C0D9FF16C0DAFF17C0DFFF780E00014A
:1036E800B6250B6E020EB7210C6E0B50155C0C50F4
:1036F8001658D8A004D0800E155E020E165A070E72
:103708001526000E16221B4A1C2A1CBEC9D61C50A0
:1037180005E1080E1B5CD8B01200C2D61200D89082
:103728001C361D36D8901C361D361AC020F01BC01A
:1037380021F0D8902036213618C022F019C023F085
:10374800223A233AF00E231622500F0B2312F00EC2
:103758002216800E2224246E020E2320256E20506D
:103768002424286E21502520296E000E2E6E000E6E
:103778002D6E2E342E30216E2D30206E20502A6E64
:103788002D50010B2B6E660E206E7E0E216E1C5086
:1037980020261D5021222D5020262E50212220C0C7
:1037A800F6FF21C0F7FF0800F5CF2CF028C0D9FF9D
:1037B80029C0DAFF2CC0DFFF2C9E0C0E2C18D8A4D1
:1037C80046D01EC020F01FC021F0D89020362136E8
:1037D8002A502024086E000E2120096E1AC022F0FB
:1037E8001BC023F0D890223623362B5022240A6E91
:1037F800000E23200B6EDBEC25F0266E2604D8A4E1
:1038080006D028C0D9FF29C0DAFFDF6A20D0020E0F
:103818002618D8A41CD01EC020F01FC021F0D890B4
:10382800203621362A502024086E000E2120096EE9
:103838001AC022F01BC023F0D890223623362B5012
:1038480022240A6E000E23200B6E2AEC2AF00C0E9E
:103858002C644FD0150E2C604CD01EC020F01FC019
:1038680021F0D890203621362A502024086E000EE8
:103878002120096E1AC022F01BC023F0D8902236EE
:1038880023362B5022240A6E000E23200B6ECFC045
:103898000CF00D6A1AEC24F0276E2704D8A406D081
:1038A80028C0D9FF29C0DAFFDF6A23D0020E271803
:1038B800D8A41FD01EC020F01FC021F0D8902036F9
:1038C80021362A502024086E000E2120096E1AC0C5
:1038D80022F01BC023F0D890223623362B50222406
:1038E8000A6E000E23200B6ECFC00CF00D6A2FEC71
:1038F80029F0284A292A2D042E10D8A404D0060E0F
:103908002826000E29222D4A2E2A2EBE32D72E50C6
:1039180004E1040E2D5CD8A02CD7D8901834086E7A
:103928001934096ED8901A340A6E1B340B6EBAEC2F
:1039380020F018C020F019C021F0D8902036213688
:10394800010E2024086E000E2120096ED8901A342A
:103958000A6E1B340B6EBAEC20F0D8901834086E3F
:103968001934096E1AC020F01BC021F0D8902036F7
:103978002136010E20240A6E000E21200B6EBAECAF
:1039880020F018C020F019C021F0D8902036213638
:10399800010E2024086E000E2120096E1AC022F0A4
:1039A8001BC023F0D89022362336010E22240A6E3B
:1039B800000E23200B6EBAEC20F01200000E126EDF
:1039C800000E116ED8901134D96E1234DA6EA80E2A
:1039D800D926010EDA22800EDE18DE10D8A4E7D030
:1039E800010E08240D6E000E09200E6E0DC0F6FFA4
:1039F8000EC0F7FF0800F55056240F6E000E572032
:103A0800106ED8901134D96E1234DA6EA20ED926FF
:103A1800010EDA220FC0DEFF10C0DDFF020E0824FF
:103A28000D6E000E09200E6E0DC0F6FF0EC0F7FFDA
:103A38000800F5500F6E106AD8901134D96E123400
:103A4800DA6EA40ED926010EDA220FC0DEFF10C0EE
:103A5800DDFF030E08240D6E000E09200E6E0DC04A
:103A6800F6FF0EC0F7FF0800F5500F6E106AD890E9
:103A78001134D96E1234DA6EA60ED926010EDA2266
:103A88000FC0DEFF10C0DDFFD8901134D96E12349C
:103A9800DA6EA80ED926010EDA22DE6ADD6AD8901F
:103AA8001134D96E1234DA6EAA0ED926010EDA2232
:103AB800DE6ADD6AD8901134D96E1234DA6EAC0E33
:103AC800D926010EDA22DE6ADD6AD8901134D96E61
:103AD8001234DA6EAE0ED926010EDA22DE6ADD6AFB
:103AE8000A500D6E0E6AD8901134D96E1234DA6EFF
:103AF800B00ED926010EDA220DC0DEFF0EC0DDFFA2
:103B0800030E08240D6E000E09200E6E0DC0F6FF80
:103B18000EC0F7FF0800F550070AD8B40FD0030EFF
:103B280008240D6E000E09200E6E0DC0F6FF0EC0A3
:103B3800F7FF0800F550160AD8A414D00BC0D9FF17
:103B48000CC0DAFFDF500D6E0E6AD8901134D96EB2
:103B58001234DA6EAE0ED926010EDA220DC0DEFF5F
:103B68000EC0DDFF030E08240D6E000E09200E6E38
:103B78000DC0F6FF0EC0F7FF450E0800F56410D023
:103B8800030E08240D6E000E09200E6E0DC0F6FF00
:103B98000EC0F7FF500E0800F56002D0010ECA6F84
:103BA8000BC0D9FF0CC0DAFF11C0DFFF1200080EEE
:103BB8001126000E122212BE05D7125005E1200E62
:103BC800115CD8B01200FED61200000E156E000E61
:103BD800146E670E0F6E770E106E01014C510F2692
:103BE8004D51102214500F26155010220FC0F6FF09
:103BF80010C0F7FF0800F5CF11F014500824D96E53
:103C080015500920DA6E1150DF26230E0F6E770E3D
:103C1800106E4C510F264D51102214500F2615507E
:103C280010220FC0F6FF10C0F7FF0800F5CF11F003
:103C380014500A24D96E15500B20DA6E1150DF2665
:103C4800DF0E0F6E760E106E4C510F264D5110225E
:103C580014500F26155010220FC0F6FF10C0F7FFA2
:103C680014500C24D96E15500D20DA6E0800F5CFCB
:103C7800DFFF144A152A15BEACD7155004E1040E0F
:103C8800145CD8A0A6D70E50D96EDA6AF50E4E2568
:103C9800F66E770E4F21F76E0800F550DE26000EFF
:103CA800DD225007D8A0510750515111D8A444D053
:103CB8004E4B4F2B040E4C27000E4D23000E136E57
:103CC800000E126EDF0E0F6E760E106E4C510F2620
:103CD8004D51102212500F26135010220FC0F6FF1C
:103CE80010C0F7FF12500C24D96E13500D20DA6E55
:103CF8000800F5CFDFFF124A132A13BEE3D713508B
:103D080004E1040E125CD8A0DDD7E30E4E25F66E52
:103D1800770E4F21F76E0800F550FF0AD8A402D09D
:103D2800010E1200E30E4E25F66E770E4F21F76E48
:103D38000800F550506F516B000E12004D6E4D503B
:103D48000001836F846BD89083378437A60E832550
:103D5800D96E010E8421DA6E010EDBBE07D0010E8A
:103D6800DB5025E1460EDE5CD8B021D04D50836F84
:103D7800846BD89083378437A80E8325D96E010EBB
:103D88008421DA6E800EDE6E000EDD6E4D50836F7C
:103D9800846BD89083378437B00E8325D96E010E93
:103DA8008421DA6EFF0EDE6EFF0EDD6E1200D20782
:103DB800150E2D6ED2C02EF02F6A050E31EC21F0B3
:103DC800D251D8A412004D50836F846BD89083379A
:103DD8008437A60E8325D96E010E8421DA6E010E72
:103DE800DBBE07D0010EDB5007E1500EDE5CD8B019
:103DF80003D002EC2AF012004D50836F846BD890E8
:103E080083378437A80E8325D96E010E8421DA6E94
:103E1800800EDE6E000EDD6E4D50836F846BD89081
:103E280083378437B00E8325D96E010E8421DA6E6C
:103E3800FF0EDE6EFF0EDD6EB9EC1FF0060E000100
:103E4800D26F150E2D6ED2C02EF02F6A050E31ECF2
:103E580021F01200226E000E246E000E236ED89000
:103E68002334D96E2434DA6EA80ED926010EDA224C
:103E7800800EDE18DE10D8A46AD02250206E216A87
:103E8800D8902334D96E2434DA6EA20ED926010EC6
:103E9800DA2220C0DEFF21C0DDFF1E50206E216A1D
:103EA800D8902334D96E2434DA6EA40ED926010EA4
:103EB800DA2220C0DEFF21C0DDFF1F50206E216AFC
:103EC800D8902334D96E2434DA6EA60ED926010E82
:103ED800DA2220C0DEFF21C0DDFFD8902334D96E5E
:103EE8002434DA6EA80ED926010EDA22DE6ADD6ADB
:103EF800D8902334D96E2434DA6EAA0ED926010E4E
:103F0800DA22DE6ADD6AD8902334D96E2434DA6E78
:103F1800AC0ED926010EDA22DE6ADD6AD890233487
:103F2800D96E2434DA6EAE0ED926010EDA22DE6A94
:103F3800DD6AD8902334D96E2434DA6EB00ED926CF
:103F4800010EDA22FF0EDE6E000EDD6E1200080E84
:103F58002326000E242224BE82D7245005E1200EF9
:103F6800235CD8B012007BD7120050C016F051C0A5
:103F780017F0000E196E0A0E186E20EC26F016C007
:103F880068F017C069F0000E00016B6F000E6A6FD1
:103F980002D06A4B6B2B6A5101017C250001606FCE
:103FA8006B5101017D210001616F60C0F6FF61C0A6
:103FB800F7FF0800F550100D6851F35CF450800AC3
:103FC800626F6951800A6259D8A0E3D76A5101012A
:103FD8007E250001606F6B5101017F210001616F37
:103FE80060C0F6FF61C0F7FF0800F55001017425B5
:103FF800396E000E75213A6E00016A5101017A2569
:104008000001626F6B5101017B210001636F62C087
:10401800F6FF63C0F7FF0800F5503B6E3C6A6A5133
:10402800010178250001646F6B51010179210001BC
:10403800656F64C0F6FF65C0F7FF0800F5503D6E78
:104048003E6A6A51010176250001666F6B510101D4
:1040580077210001676F66C0F6FF67C0F7FF0800A9
:10406800F5503F6E406A56EC18F01200176E175064
:10407800080DF3CF13F0F4CF14F013500001B62558
:10408800186E1450B721196E17505008156E000E8F
:10409800D8A0E82A0008166E000E1D6E000E1C6ED1
:1040A8005BD0000E0D6E18C0D9FF19C0DAFFDF50C3
:1040B8000E6E1C5069EC28F0080E18241A6E000EBB
:1040C80019201B6E000E1F6E010E1E6E0DD01AC039
:1040D800D9FF1BC0DAFFDF50D8EC29F0080E1A26EA
:1040E800000E1B221E4A1F2A1FBE06D01F500EE1BB
:1040F800400E1E5CD8B00AD015501E5C1F50800AB6
:10410800136E1650800A1358D8A0E1D7400E1E1817
:104118001F10D8B415D01C500001B6251A6E1D50BA
:10412800B7211B6E0DD01AC0D9FF1BC0DAFFDF50B4
:10413800D8EC29F0080E1A26000E1B221E4A1F2A48
:104148001FBEF1D71F5004E1400E1E5CD8A0EBD76C
:10415800184A192A1C4A1D2A1DBEA3D71D5005E15D
:10416800080E1C5CD8B012009CD7120008C00CF0D6
:1041780009C00DF0060ED8900C360D36E82EFBD788
:104188000C500001B6250E6E0D50B7210F6E0A5067
:104198000E24136E0B500F20146E08C00CF009C0CB
:1041A8000DF0D8900C360D36D8900C360D36D890C8
:1041B8000C360D360C50010156250E6E0D50572148
:1041C8000F6E0A500E24D96E0B500F20DA6EDF5096
:1041D800156E1550800B106E159E1550080DF3CFF7
:1041E80011F0F4CF12F0000E176E000E166E10507C
:1041F800D8A40AD0115058250C6E125059210D6EB2
:1042080016500C2617500DD01650585D0C6E1750CE
:1042180059590D6E11500C2612500D22070E0C26FE
:10422800000E0D220CC0F6FF0DC0F7FF13C0D9FF1A
:1042380014C0DAFF0800F5CFDFFF080E1326000EC2
:104248001422164A172A17BED2D7175005E1080EAE
:10425800165CD8B01200CBD712000001806F2FAEC9
:1042680016D02DC024F02D0E256E00018051A1EC32
:1042780026F02D2A2EC01EF02FC01FF0FF0E216E33
:1042880020683DEC2AF01EC02EF01FC02FF0000E53
:104298000001826F000E816F2E502F10D8A428D0F5
:1042A800300E606F814B822B23D000018151600F4B
:1042B800D96EDA6A2EC01EF02FC01FF0000E216ED4
:1042C8000A0E206EDAEC26F01E50300FDF6E000169
:1042D800814B822B2EC016F02FC017F0000E196EDE
:1042E8000A0E186E20EC26F016C02EF017C02FF01C
:1042F8002FBE21D02F50D9E12E04D8A01CD0D5D75D
:104308008107D8A082078151600FD96EDA6ADF5021
:10431800306E30502E6E2F6A2DC024F02EC025F03E
:104328008051A1EC26F02D2A7F0E2D6404D00001C7
:10433800802B000E2D6E000182BF12008251E0E139
:104348008105D8A01200DCD7386E3050365C0001E9
:10435800B86F31503758B96F36C016F037C017F0FC
:10436800000E196E080E186E20EC26F016C036F0F6
:1043780017C037F032C016F033C017F0000E196EB0
:10438800080E186E20EC26F016C032F017C033F075
:1043980032C01EF033C01FF0000E216E0A0E206ED0
:1043A800DAEC26F01EC032F01FC033F034C016F02D
:1043B80035C017F0000E196E080E186E20EC26F0A6
:1043C80016C034F017C035F0070E3416000E351637
:1043D8000F0E0001CD6F0C0E3818D8A40BD036C0C4
:1043E8001EF037C01FF034C020F035C021F062EC59
:1043F80026F012D00C0E38640FD038C084F136C0C5
:1044080008F037C009F034C00AF035C00BF0CFC04F
:104418000CF00D6A6FEC24F032C024F033C025F0A4
:1044280034C026F035C027F0BDEC24F01200A20EEF
:10443800116E010E126E000E106E000E0F6E20EE41
:1044480006F01150D9261250DA22800EDE18DE103E
:10445800D8B450D011C0D9FF12C0DAFF0850DE5CC2
:10446800DE50800A0E6E0950800A0E58D8B042D02D
:1044780011C0D9FF12C0DAFFDECF0CF0DDCF0DF08E
:10448800080E0C26000E0D220C50085C0950800AFC
:104498000E6E0D50800A0E58D8B02CD020EE02F0C7
:1044A8001150D9261250DA220A50DE5CDE50800AFA
:1044B8000E6E0B50800A0E58D8B01CD020EE02F0B9
:1044C8001150D9261250DA22DECF0CF0DDCF0DF0D4
:1044D800080E0C26000E0D220C500A5C0B50800AA8
:1044E8000E6E0D50800A0E58D8B004D00F38E8422E
:1044F800F80B1200100E1126000E12220F4A102A75
:1045080010BE9DD7105004E1040E0F5CD8A097D7B9
:10451800FF0E120012C016F0176A186A1134163608
:1045280001E3178016501D6E1D50D8A407D0000E49
:10453800106E000E116E000E126E120015C016F0ED
:10454800176A186A1434163601E3178016501E6E5F
:104558001E50D8A407D0000E106E000E116E000E6B
:10456800126E1200000E1A6E000E1B6E000E1C6EEC
:104578001E50890F1D5E12C01EF015501E1A800EA7
:104588001E16118EFF0E1016FF0E1116000E1216B3
:10459800148EFF0E1316FF0E1416000E1516180EA5
:1045A800196ED8901A361B361C361350105C1450EE
:1045B800115815501258D8A007D01350105E145037
:1045C800115A1550125A1A80D890103611361236D0
:1045D800192EE7D71AC008F01BC009F01CC00AF052
:1045E8001DC00BF01EC00CF0C3EC23F008C010F087
:1045F80009C011F00AC012F01200896F0001895138
:104608004E6E4F6AD8904E364F36A60E4E24D96E4F
:10461800010E4F20DA6EDF508A6F050E8A6119D0BD
:104628000F0ECD6F8951A2EC1EF000018951020DC9
:10463800A20EF324D96E010EF420DA6EDECF4EF00E
:10464800DDCF4FF087514E5CB86F88514F58B96F26
:104658001200050E8A19D8A413D00F0ECD6F8951F8
:104668004E6E4F6AD8904E364F36A60E4E24D96EEF
:10467800010E4F20DA6E040EDE6E000EDD6ED5D709
:10468800060E8A19D8A406D00F0ECD6F8951A2EC58
:104698001EF0CBD7060E8A6503D00C0E8A650CD0A7
:1046A800100E8A6503D0120E8A6506D0130E8A652D
:1046B8001200460E8A6112000F0ECD6F8951A2ECCE
:1046C8001EF0B3D7D8900D360E36D8900D360E366C
:1046D800D8900D34F66E0E34F76EAB0EF626770EC4
:1046E800F7220900F5CF74F10A00F5CF75F10DC076
:1046F8000FF00EC010F0D8900F361036020E0F26AD
:10470800000E1022AB0E0F24F66E770E1020F76EF7
:104718000900F5CF72F10A00F5CF73F10DC00FF063
:104728000EC010F0D8900F361036040E0F26000E6B
:104738001022AB0E0F24F66E770E1020F76E0900CC
:10474800F5CF70F10A00F5CF71F10DC00FF00EC072
:1047580010F0D8900F361036060E0F26000E1022D5
:10476800AB0E0F24F66E770E1020F76E0900F5CF0A
:104778006EF10A00F5CF6FF1ECEC28F012000B5047
:10478800D8B405D0085009100A10D8A40CD0000ECF
:10479800086E000E096E000E0A6E12000B2AD890E1
:1047A8000A3209320832000E08140D6E000E091480
:1047B8000E6EFE0E0A140F6E0D500E100F10D8B4A8
:1047C8000CD0ECD70B2A010E0826000E0922000E89
:1047D8000A22D8900A3209320832000E08140D6EE7
:1047E800000E09140E6EFF0E0A140F6E0D500E10F7
:1047F8000F10D8B406D0E6D70B06D890083609367D
:104808000A3609BE03D0020E0B60F6D70BA0099E2C
:10481800D8900B320B500A120C50D8A40A8E08C03C
:1048280008F009C009F00AC00AF01200000E126E62
:10483800000E116E40D0280E1124D96E010E1220E0
:10484800DA6EDF500E6E0F6A08500E1832E109500A
:104858000F18D8A42ED0140E1124D96E010E1220D0
:10486800DA6EDF507F0B0E6E0F6A0A500E1821E1C8
:104878000B500F18D8A41DD0000E1124D96E010EAC
:104888001220DA6EDF500E6E0F6A0C500E1811E10E
:104898000D500F18D8A40DD0140E1124D96E010E86
:1048A8001220DA6E0101DFAE02D0010E1200000EF6
:1048B8001200114A122A0001D0510E6E0F6A0E50D2
:1048C800115C1250800A106E0F50800A1058D8A040
:1048D800B2D7020E1200000E126E000E116E3BD0FF
:1048E800280E1124D96E010E1220DA6EDF500E6EDA
:1048F8000F6A08500E182DE109500F18D8A429D0B6
:10490800140E1124D96E010E1220DA6EDF507F0BBF
:104918000E6E0F6A0A500E181CE10B500F18D8A41F
:1049280018D0000E1124D96E010E1220DA6EDF5055
:104938000E6E0F6A0C500E180CE10D500F18D8A40B
:1049480008D0140E1124D96E010E1220DA6E000E52
:10495800DB8E114A122AD0510E6E0F6A0E50115C6E
:104968001250800A106E0F50800A1058D8B01200EA
:10497800B7D724C028F025C029F0060ED8902836CD
:104988002936E82EFBD728500001B6252A6E295073
:10499800B7212B6E26502A242C6E27502B202D6EE3
:1049A80024C028F025C029F0D89028362936D89078
:1049B80028362936D8902836293628500101562518
:1049C8002A6E295057212B6E26502A24D96E27503B
:1049D8002B20DA6EDF6A000E2F6E000E2E6E2CC0B2
:1049E800D9FF2DC0DAFFDF6A080E2C26000E2D2213
:1049F8002E4A2F2A2FBEF3D72F5005E1080E2E5C22
:104A0800D8B01200ECD7120024C016F025C017F059
:104A1800000E196E080E186E20EC26F016C024F051
:104A280017C025F024C01EF025C01FF0000E216E0F
:104A38000A0E206EDAEC26F01EC024F01FC025F006
:104A480026C016F027C017F0000E196E080E186E53
:104A580020EC26F016C026F017C027F0070E261601
:104A6800000E271624C028F025C029F0D890283633
:104A78002936D89028362936D89028362936800EF7
:104A880028242A6E020E29202B6E26502A24D96E3D
:104A980027502B20DA6EDF501200740EF66E500E7F
:104AA800F76E000EF86E01EE85F010EE5DF009006D
:104AB800F5CFEEFFE550E150FAE11A0EF66E550E0D
:104AC800F76E000EF86E0900F5CFD2F00900F5CFA9
:104AD800D3F003EE4DF012EE80F0EE6AE550E150AF
:104AE800FCE1E250FAE102EE00F0D00EEE6AE806D0
:104AF800FDE101EE00F0850EEE6AE806FDE100EE4C
:104B0800B4F01E0EEE6AE806FDE100EE50F0080E65
:104B1800EE6AE806FDE158905892000EF86E000122
:104B28005EEF0BF0366E2F5001018225306E000EBD
:104B38008321316E30C0F6FF31C0F7FF0800F55011
:104B4800040DF3CF32F0F4CF33F0760E3224346E06
:104B58007B0E3320356E050E086E3650EDEC29F0CD
:104B6800366E000E386E000E376E36C018F0196AB1
:104B780037C01AF038C01BF034C0F6FF35C0F7FF55
:104B88000800F5501C6E1D6A2FC01EF01F6A93ECBA
:104B98001BF0344A352A374A382A38BEE6D7385007
:104BA80005E1040E375CD8B01200DFD71200000E02
:104BB800106E000E0F6E30D0400E0F24D96E020E0C
:104BC8001020DA6EDF500C6E0D6A08500C1822E1C6
:104BD80009500D18D8A41ED0000E0F24D96E020E4D
:104BE8001020DA6EDF507F0B0C6E0D6A0A500C181D
:104BF80011E10B500D18D8A40DD0000E0F24D96E5A
:104C0800020E1020DA6E0201DFAE02D0010E120091
:104C1800000E12000F4A102A0001D1510C6E0D6AC5
:104C28000C500F5C1050800A0E6E0D50800A0E5802
:104C3800D8A0C2D7020E1200000E1B6E19AE06D005
:104C4800186C191ED8B0192A010E1B6E17AE06D0A3
:104C5800166C171ED8B0172A010E1B1A000E1D6EEF
:104C6800000E1C6E18501910D8B41CD0010E1A6E04
:104C780004D0D890183619361A2A19AEFAD7D8900F
:104C88001C361D361850165C19501758D8A005D078
:104C98001850165E1950175A1C80D89019321832BD
:104CA8001A2EEDD71B50D8B404D01C6C1D1ED8B0DA
:104CB8001D2A1CC016F01DC017F01200000E266E2B
:104CC800000E256E2BD0400E2524D96E020E26200C
:104CD800DA6EDF50226E236A1E5022181DE11F5023
:104CE8002318D8A419D0000E2524D96E020E262028
:104CF800DA6EDF507F0B226E236A205022180CE1F7
:104D080021502318D8A408D0000E2524D96E020EED
:104D18002620DA6E000EDB8E254A262A0001D151A4
:104D2800226E236A2250255C2650800A246E235066
:104D3800800A2458D8B01200C6D7266EE00E252463
:104D48001E6E1F6AFF0E1F22000E216E050E206EBA
:104D58003DEC2AF01EC029F01FC02AF02450050D92
:104D6800F3CF24F0000E2C6E000E2B6ED70E2924E4
:104D7800F66E730E2A20F76E0800F550276E286A23
:104D880024C00DF027C00EF0265069EC28F0242A24
:104D9800294A2A2A2B4A2C2A2CBEE8D72C5005E16E
:104DA800050E2B5CD8B01200E1D71200000E236E5E
:104DB8001FAE06D01E6C1F1ED8B01F2A010E236E10
:104DC80021AE04D0206C211ED8B0212A20502110F9
:104DD800D8B418D0010E226E04D0D89020362136CF
:104DE800222A21AEFAD720501E5C21501F58D8A085
:104DF80004D020501E5E21501F5AD89021322032F4
:104E0800222EF1D72350D8B404D01E6C1F1ED8B060
:104E18001F2A1EC01EF01FC01FF01200196E19C0F5
:104E280008F0096A18C00AF00B6ABAEC20F0070EFD
:104E380018600BD019C008F0096A010E18240A6E10
:104E48000B6A000E0B22BAEC20F0192A090E19641D
:104E580002D0000E196E19C008F0096A18C00AF0CD
:104E68000B6ABAEC20F0070E1860120019C008F09F
:104E7800096A010E18240A6E0B6A000E0B22BAEC9E
:104E880020F01200306E000E326E000E316E11D01E
:104E98002D503124246E2EC0F6FF2FC0F7FF0800D6
:104EA800F5CF25F03050A1EC26F02E4A2F2A314AB2
:104EB800322A2EC0F6FF2FC0F7FF0800F5500A0A65
:104EC800D8B412002EC0F6FF2FC0F7FF0800F55027
:104ED8000009D8B412002EC0F6FF2FC0F7FF080053
:104EE800F5500D0AD8B41200D3D7316E0E0E311812
:104EF800D8A417D0020E0001D327050ED36502D01F
:104F0800060ED36F150E2D6ED3C02EF02F6A020E2B
:104F180031EC21F0000EBB6F000EBA6F000E0101DC
:104F2800846F0F0E3118D8A41200060E0001D36F3B
:104F3800150E2D6ED3C02EF02F6A020E31EC21F023
:104F4800000EBB6F000EBA6F000E0101846F1200D5
:104F58000A6E0A50020D060EF324F66E780EF4203F
:104F6800F76E0900F5CF0BF00A00F5CF0CF0E30E51
:104F78000B24F66E770E0C20F76E0800F550010131
:104F8800506F516B0BC04EF10CC04FF10BC008F0C5
:104F98000CC009F0D89008360936D890083609367A
:104FA80008C04CF109C04DF10AC052F1536B120010
:104FB800196E19C01AF01B6A1CD014C01CF01D6AA7
:104FC80009D01CC00DF0000E0E6E1A5069EC28F0C6
:104FD8001C4A1D2A1550166E176A1C50165C17506D
:104FE800800A186E1D50800A1858D8B0EAD71A4A95
:104FF8001B2A1350166E176A1A50165C1750800A2F
:10500800186E1B50800A1858D8A01200D6D7010174
:10501800524B532BD8905235F66E5335F76E060E19
:10502800F626780EF7220900F5CF0AF00A00F5CF28
:105038000BF0E30E0A24F66E770E0B20F76E0800CD
:10504800F550506F516B0AC04EF10BC04FF10AC0BA
:1050580008F00BC009F0D89008360936D890083601
:10506800093608C04CF109C04DF11200008080805B
:10507800808001000000DB7FE67FCF7FF87FF07F34
:10508800C27FB47FA57F02000200000000000080FC
:1050980000000000000000FFFF000000000000808A
:1050A80000000000000000FFFF000000000000807A
:1050B80000000000000000FFFF000000000000806A
:0950C80000000000000000FFFFE1
:1050D2000F6E400E0D6004D0000E116E010E03D053
:1050E200000E116E020E106E10C012F00F5071EC15
:1050F2002AF00D5012EC29F012507EEC29F0000E2D
:10510200936E1204D8B48190020E1218D8B4819210
:10511200819681840000818800000EC083FF000E0A
:10512200956E00008198818081821200000E106EBF
:10513200000E116E000E126E000E136E08A008D043
:105142000C5010260D5011220E5012220F50132215
:10515200D8900C360D360E360F36D8900B320A32F6
:1051620009320832085009100A100B10D8A4E6D7E9
:1051720010C008F011C009F012C00AF013C00BF001
:1051820012008BC108F08CC109F08DC10AF08EC1EA
:105192000BF06D0E0C6E4E0E0D6EC60E0E6E410EA7
:1051A2000F6E97EC28F008C08BF109C08CF10AC091
:1051B2008DF10BC08EF1390E01018B27300E8C233D
:1051C200000E8D23000E8E23FF0E8D15146E7F0EA2
:1051D2008E15156E1200000E0C6E000E0B6E10D0A6
:1051E200400E0B24D96E020E0C20DA6EDF6A000E1E
:1051F2000B24D96E020E0C20DA6EDF6A0B4A0C2ADF
:105202000001D151086E096A08500B5C0C50800AEB
:105212000A6E0950800A0A58D8A0E2D7000ED16F50
:1052220012000C6E400E0C600CD0010E0A6E0C5077
:1052320040094AEC29F0020E0A6E400E4AEC29F0AF
:105242001200010E0A6E7F0E4AEC29F0020E0A6E5F
:105252000C50C00F40094AEC29F01200280E000140
:10526200D025D96EDA6A010EDA2208C0DFFF140EE9
:10527200D025D96EDA6A010EDA220AC0DFFF000EEB
:10528200D025D96EDA6A010EDA220CC0DFFFD02BEC
:1052920012000B6E0A507EEC29F0000E936E0A0487
:1052A200D8B48190020E0A18D8B481928196819462
:1052B2000000818800000BC083FF000E956E000085
:1052C200819881808182120008C0B6F009C0B7F0CF
:1052D2000AC05AF10BC05BF10CC058F10DC059F174
:1052E2000EC056F10FC057F110C0B4F011C0B5F0A6
:1052F20012C054F113C055F11200096E9568000EE8
:10530200936E0904D8B48190020E0918D8B4819220
:105312008186819400008188000083CF08F0819803
:1053220008BEF9D78180818212000BD09EA8FED7D9
:1053320008C0F6FF09C0F7FF0800F5CFADFF084A25
:10534200092A08C0F6FF09C0F7FF0800F550000956
:10535200D8B41200EBD72CC024F02DC025F02EC0FB
:1053620026F02FC027F008EC25F0306E3004D8B4B8
:1053720004D00C0E3018D8A402D0010E1200000E78
:1053820012000BD09EA8FED701C0F6FF02C0F7FFA5
:105392000800F5CFADFF014A022A01C0F6FF02C0A4
:1053A200F7FF0800F5500009D8B41200EBD70A6ED7
:1053B200010E7EEC29F0000E936E8190819681841D
:1053C2000000818800000AC083FF000E956E000075
:1053D2008198818081821200096E080E0A6E000E89
:1053E2000B6ED89009340B340B6ED89009360850E6
:1053F2000B5CD8A002D008500B5E0A2EF2D70B50DD
:105402001200070E136E000E146E7F0E156E000E44
:10541200DCEC27F0080E2D6EE60E2E6E7F0E2F6E40
:10542200030E46EC27F00000FED7070E136E000EA7
:10543200146E7F0E156E000EDCEC27F0080E2D6E3A
:10544200CF0E2E6E7F0E2F6E030E46EC27F000005D
:10545200FED7400E0001D125D96EDA6A020EDA2299
:1054620008C0DFFF000ED125D96EDA6A020EDA22F9
:105472000AC0DFFFD12B12001E502002F3CF22F010
:10548200F4CF23F01E502102F35023261F50200296
:10549200F350232622C01EF023C01FF0120010C0BA
:1054A20008F011C009F00A6A8E0E0B6E000E0C6E27
:1054B200C3EC23F008C010F009C011F00AC012F0CA
:1054C2001200818A010E0A6E3F0E4AEC29F0020E8A
:1054D2000A6E3F0E4AEC29F0000E7FEC2AF0120011
:1054E2000C6E010E0A6E0C50B8094AEC29F0020E3D
:1054F2000A6E0C50B8094AEC29F012000C6E010E2B
:105502000A6E0C50C0094AEC29F0020E0A6E0C50C9
:0A551200C0094AEC29F01200060659
:106FD60000000000000000000000000000000000AB
:106FE600000000000000000000000000000000009B
:106FF6000000000080404020100C4A8A2CD820E077
:10700600000000000000000000000000000000007A
:10701600000000000000000000000000000000006A
:10702600000000000000000000000000000000005A
:10703600000000000000000000000000000000004A
:10704600000000000000000000000000000000003A
:10705600000000000000000000000000000000002A
:10706600000000000000000000000000000000001A
:107076000000000003020206087070F1F0787C033D
:107086000000808080C04040404040C08080C040BA
:107096004040602020206040C0808080C06020C0CA
:1070A60080000080C0407EC1010107FC0000000096
:1070B60000000000000000000000000000000000CA
:1070C60000000000000000000000000000000000BA
:1070D60000000000000000000000000000000000AA
:1070E6000000000000000000000000007CC4020256
:1070F600063CE0FC060301F11F00FC8404040C3886
:10710600EE1B11F00000187878780080C1633E18F5
:10711600F00000003C3C1800C0C0233F3EE0800069
:10712600070C068360300C07FD07030101F161C1FE
:1071360083C67C0000000000000000000000000084
:107146000000000000000000000000000000000039
:107156000000000000000000000000000000000029
:1071660000000000000000000000000000037EC0D8
:107176000000030140C000011F3060C7FC00000092
:10718600031E70FF00000000FC1C70C181070CF894
:107196008F0000001E1E0E00000183E63C78CF0023
:1071A6000080FE137CC4040C38233C000087FC00DE
:1071B60000000000000000000000000000000000C9
:1071C60000000000000000000000000000000000B9
:1071D60000000000000000000000000000000000A9
:1071E6000000000000000000000000000000000396
:1071F60006FC8000008FFF040C183020212F3C88ED
:107206008888880F02C42424E7800000C16223E135
:1072160081E31262C202020202F3090404F80103C6
:107226000203C070101133E604040C080C070100B9
:107236000000000000000000000000000000000048
:107246000000000000000000000000000000000038
:107256000000000000000000000000000000000028
:107266000000000000000000808080808080800098
:1072760080F011090909CCC4040C18F87E03013901
:107286002CA4E780FE01703870071CFC0300E0E1C7
:1072960003C0F0800FF88000E0FF0000FFC0701808
:1072A6000C07819C9F000007F80603071C307E012F
:1072B60002FC00FC0206C4CC989070C000000000DE
:1072C60000000000000000000000000000000000B8
:1072D60000000000000000000000000000000000A8
:1072E600000000000000060F0830E0801878F8F96A
:1072F600F1E20418E000010170E0C78F1CF0C080C5
:1073060087444447381008060204040F08060301A0
:1073160002030003060603003F4180808F8F8878B2
:107326000C060300011F10180F7080807C1870C0B7
:1073360080FFFE01001E1F1F87C3701F0000000094
:107346000000000000000000000000000000000037
:107356000000000000000000000000000000000027
:107366000000000000000000000000073C60C1872C
:107376004761180C0703060406030001010100001B
:1073860000000000000000000000000000000000F7
:1073960000000000000000000000000000000000E7
:1073A60000000000000000000000000000000000D7
:1073B60000000102020203010100000000000000BB
:1073C60000000000000000000000000000000000B7
:1073D60000000000000000005F000000070007003A
:1073E600147F147F14242A7F2A122313086462361A
:1073F600495522500005030000001C2241000041AF
:10740600221C00082A1C2A0808083E0808005030DA
:1074160000000808080808003030000020100804A2
:10742600023E5149453E00427F4000426151494675
:107436002141454B311814127F1027454545393CEB
:107446004A49493001710905033649494936064911
:1074560049291E0036360000005636000000081482
:107466002241141414141441221408000201510973
:1074760006324979413E7E1111117E7F49494936CE
:107486003E414141227F4141221C7F494949417F7A
:10749600090901013E414151327F0808087F004138
:1074A6007F41002040413F017F081422417F404038
:1074B60040407F0204027F7F0408107F3E41414125
:1074C6003E7F090909063E4151215E7F0919294679
:1074D600464949493101017F01013F4040403F1F74
:1074E6002040201F7F2018207F63140814630304A4
:1074F600780403615149454300007F414102040875
:10750600102041417F000004020102044040404037
:1075160040000102040020545454787F4844443803
:107526003844444420384444487F38545454180856
:107536007E090102081454543C7F08040478004470
:107546007D40002040443D00007F10284400417FDC
:1075560040007C041804787C0804047838444444C9
:10756600387C14141408081414187C7C08040408C5
:107576004854545420043F4440203C4040207C1C46
:107586002040201C3C4030403C44281028440C50ED
