:0400000049EF00F0D4
:100008005882F6CF03F0F7CF04F0F8CF05F0F5CF1C
:1000180006F09EAA2CD0AECF07F0610E0718D8A420
:1000280003D0010E0101486F640E0718D8A403D04D
:10003800010E0101496F6A0E0718D8A403D0010EFA
:1000480001014A6F6B0E0718D8A409D0010E0101EF
:100058004B6F8AC101F08BC102F0EDEC22F0ABA22C
:1000680002D0AB98AB88ABA402D0AB9EAB8E9DB24E
:100078009EA201D09E9206C0F5FF05C0F8FF04C0FD
:10008800F7FF03C0F6FF5892110083EF1EF0000E31
:100098000F01386F000E396F000E3A6F000E3B6F7C
:1000A8009268000E956E000E936E000E806E000E24
:1000B800836E000E816E000E846E000E966E020E28
:1000C8003C6F020E966E190EC26E000EC16EAF0E18
:1000D800C06E0C0E5D6F000E496F000E5E6FF90E5C
:1000E800BB6EBA84BA90BA829E929D82948C948E8A
:1000F800AB9CAC8AAC98AC9CAC84B886100EAF6E46
:10010800AB8EAC98AB88A40E086E7F0E096EC1EC5E
:1001180022F0B30E086E7F0E096EC1EC22F0C10EFC
:10012800086E7F0E096EC1EC22F0F28EF28C9D8A69
:100138008DEC23F0070E136E000E146E7F0E156EF5
:10014800000E08EC21F0000EAAEC23F0000E0301CB
:10015800096F000E086F000E296F000E286F29BF67
:1001680006D029513DE1080E285DD8B039D0000EDF
:100178003C6F000E3B6F3CBF06D03C512AE1800E1D
:100188003B5DD8B026D03BC30DF0F70E0001AB6F36
:10019800720EAC6F03013B510001AB2703013C51C8
:1001A8000001AC23030108510001AB2703010951E9
:1001B8000001AC23ABC0F6FFACC0F7FF0800F5CFD9
:1001C8000EF00301285194EC21F003013B4B3C2B2A
:1001D800D2D7800E0827000E0923284B292BBFD71A
:1001E8000B0E0001AC6F260EAB6F5D0EE82EFED72E
:1001F800AB2FFCD7AC2FFAD700D0070E136E000E2A
:10020800146E7F0E156E000E08EC21F0470E086E76
:10021800030E096EDA0E0A6E7E0E0B6EAA0E0C6EB7
:100228007D0E0D6E800E0E6E020E0F6E610E106E3C
:100238007B0E116E890E126E7A0E136E90EC22F000
:10024800000E0E6E000E0D6E40EC1CF070C139F001
:1002580071C13AF0000E3C6E000E3B6E000E3E6E11
:10026800000E3D6E000E406E000E3F6EB4EC11F0B5
:1002780023EE16F0050EDE6AE806FDE223EE22F014
:10028800050EDE6AE806FDE221EE80F013EE1CF0B2
:10029800050EDBCFE3FFE806FCE20F0E2D6EEF0E36
:1002A8002E6E7F0E2F6E020E74EC20F0100E2D6E47
:1002B800F70E2E6E7F0E2F6E050E74EC20F0150EC5
:1002C8002D6ED9C02EF02F6A020E70EC1AF0150EA2
:1002D8002D6ED8C02EF02F6A050E70EC1AF0C2826F
:1002E800C2B2FED7C3CF10F0C4CF11F07BEC23F01D
:1002F80010C003F311C004F312C005F303C310F0D8
:1003080004C311F005C312F09A0E136E4C0E146E4E
:10031800430E156ECDEC1BF010C000F311C001F3B5
:1003280012C002F3000E01015B6F010E5A6F5AC131
:100338001EF05BC11FF0000E216E140E206E68ECDB
:1003480023F01EC058F11FC059F1000E0F015E6F57
:100358005D51FC0B5D6F000E0301426F000E416F93
:1003680042BF06D042514EE1060E415DD8B04AD098
:10037800220E4125D96E030E4221DA6E500E086E08
:10038800220E4125E16E030E4221E26EE75018EC81
:1003980023F0DF6E220E03014125D96E030E4221A0
:1003A800DA6EDF500001AB6FD890AB33D890AB3327
:1003B800D890AB310301066F160E4125D96E030E96
:1003C8004221DA6EDF50166E176A16BE1706000E47
:1003D800196E080E186E4FEC1FF016500301076FC8
:1003E800160E4125D96E030E4221DA6E000EDBBED1
:1003F80005D007C318F0065140EC20F00301414B2B
:10040800422BAED756C016F057C017F0000E196E23
:10041800100E186E4FEC1FF016C00CF317C00DF33A
:100428000001D251D8A426EF06F0542A0F0E5464C6
:1004380002D0000E546EBE51BF11D8A404D0543857
:10044800E8461F0B16D0BE05BF11D8A402D0020E75
:1004580010D0020EBE19BF11D8A402D0030E09D0C5
:10046800030EBE19BF11D8A406D05438E8461F0B96
:10047800040F03011C6F0001C051C111D8B403D08F
:1004880003011C8D02D003011C9D01015C515D110B
:10049800D8A454A003D0800E03011C6FBEEC0DF04D
:1004A8000001CF51D8B450D0CF51BC27000ECFBFD8
:1004B800FF0EBD23060E03011D6F040E0001BC25AF
:1004C800086E000EBD21096E040ED0250A6E0B6A57
:1004D800000E0B225AEC1BF0AB6FAB5103010E6FF1
:1004E8000F6B0E290F11D8B409D00E516CEC18F00F
:1004F800000E0001CF6F800E03011D6F400E5624C1
:100508000001AB6F000E5720AC6FBC51AB5DAC5116
:10051800800AAD6FBD51800AAD59D8A010D0F80E31
:100528005624AB6FFF0E5720AC6FAB51BC5DBD516D
:10053800800AAD6FAC51800AAD59D8B005D0000E15
:10054800CF6F800E03011D6F0001D151D8B448D080
:10055800C051C111D8A404D003013D693E6905D03A
:10056800000E03013E6F010E3D6F3D053E11D8A4FC
:1005780011D00001BDBF05D0BD510CE1BC05D8B0FC
:1005880009D003013D510001BC2703013E51000180
:10059800BD2309D003013D2906E13E29D8A403D093
:1005A8000001BDAFEED7030122510001BC251E6E2C
:1005B800000EBD211F6E000E216E500E206E08EC3D
:1005C80020F01E500301236F16C317F3060E1D6F8C
:1005D8000001D105D8A413D0800E03011D6F0FD0E0
:1005E800BCC01EF0BDC01FF0000E216E500E206E64
:1005F80008EC20F01E500301236FD0C017F39C0EA7
:100608000301146F010E156F000E2B6F000E2A6F79
:100618002BBF06D02B511FE1040E2A5DD8B01BD08A
:1006280020EE06F01451D9261551DA22800EDE1874
:10063800DE10D8B408D014C325F015C326F02AC399
:1006480027F0A1EC08F0100E03011427000E152363
:100658002A4B2B2BDDD750C016F051C017F0000ED7
:10066800196E0A0E186E4FEC1FF05650165C0301F7
:10067800396F575017583A6F5504D8B41AD000013B
:10068800CE51D8A416D003013ABF08D03A5104E19C
:10069800150E395DD8A002D0564A572A3ABF06D05F
:1006A8003A5107E10A0E395DD8B003D05606D8A0F2
:1006B800570657AE04D0000E576E000E566E030153
:1006C8003ABF16D03A5104E1380E395DD8A010D09F
:1006D80056C01EF057C01FF0000E216E0A0E206E85
:1006E80068EC23F0300E1E24506E020E1F20516E4F
:1006F80003013ABF05D03A5113E13905D8B010D0FB
:1007080056C01EF057C01FF0000E216E0A0E206E54
:1007180068EC23F0140E1E24506E000E1F20516E3C
:1007280051BE06D0515008E10A0E505CD8B004D032
:10073800000E516E0A0E506E040E5518D8A44FD0F4
:1007480068C11EF069C11FF0C6C020F0C7C021F003
:1007580068EC23F01E50565C0301106F1F50575869
:10076800116FC00E0001C625AB6FFF0EC721AC6F1D
:10077800030110510001AB5DAC51800AAD6F03015C
:100788001151800A0001AD59D8B013D0010E0101F2
:1007980068251E6E000E69211F6EC6C020F0C7C0F6
:1007A80021F068EC23F0C00E1E24566EFF0E1F20A9
:1007B800576E030111BF05D0115111E11005D8B0D2
:1007C8000ED068C11EF069C11FF0C6C020F0C7C0B6
:1007D80021F068EC23F01EC056F01FC057F05650A9
:1007E8000001CA5DCB51800AAB6F5750800AAB59E4
:1007F800D8B004D0CAC056F0CBC057F0CAC01EF05B
:10080800CBC01FF0000E216E0A0E206E68EC23F09C
:10081800300E1E240001AB6F020E1F20AC6F50502B
:10082800AB5DAC51800AAD6F5150800AAD59D8B05C
:1008380010D0CAC01EF0CBC01FF0000E216E0A0EE9
:10084800206E68EC23F0300E1E24506E020E1F201E
:10085800516E0001C5AFB5D05504D8B404D0040E0C
:100868005518D8A403D0CE05D8A405D0000EC56F5E
:10087800000EC46FA6D05504D8A449D0CA51565CFE
:100888005750800AAB6FCB51800AAB59D8B0EED71E
:10089800200E5026030E5122010EC56FF40EC46FB0
:1008A800500E5626000E572256C016F057C017F0A5
:1008B800000E196E100E186E4FEC1FF016C02CF3B8
:1008C80017C02DF309D02CC32FF003012C510DECC8
:1008D8001FF003012C4B2D2B56C016F057C017F0F4
:1008E800000E196E100E186E4FEC1FF0050E16262E
:1008F800000E1722165003012C5D2D51800A0001AD
:10090800AB6F1750800AAB59D8B05BD0DCD7040E58
:100918005518D8A456D0CA51565C5750800AAB6FA8
:10092800CB51800AAB59D8B0A1D70101684B692BCC
:10093800C6C01EF0C7C01FF0000E216E0A0E206E42
:1009480068EC23F01E5050261F505122010E000162
:10095800C56FF40EC46FC6515626C751572256C0EC
:1009680016F057C017F0000E196E100E186E4FECE7
:100978001FF016C02EF317C02FF309D02EC32FF087
:1009880003012E510DEC1FF003012E4B2F2B56C0E7
:1009980016F057C017F0000E196E100E186E4FECB7
:1009A8001FF0050E1626000E1722165003012E5DA5
:1009B8002F51800A0001AB6F1750800AAB59D8A09D
:1009C800DDD7C5BFA6D0310EC45D020EC559D8A06B
:1009D800A0D05504D8B404D0040E5518D8A403D018
:1009E800CE05D8A403D041EC23F093D05504D8A465
:1009F8003FD0E00E5026FC0E5122000EC56F3C0E73
:100A0800C46FB00E5626FF0E572256C016F057C0B8
:100A180017F0000E196E100E186E4FEC1FF016C06E
:100A280030F317C031F309D030C32FF00301305130
:100A38000DEC1FF00301304B312B56C016F057C098
:100A480017F0000E196E100E186E4FEC1FF0050E01
:100A58001626000E172216500301305D3151800A08
:100A68000001AB6F1750800AAB59D8B052D0DCD711
:100A7800040E5518D8A44DD001016807D8A06907FD
:100A8800C6C01EF0C7C01FF0000E216E0A0E206EF1
:100A980068EC23F01E50505E1F50515A000E0001A2
:100AA800C56F3C0EC46FC651565EC751575A56C0E3
:100AB80016F057C017F0000E196E100E186E4FEC96
:100AC8001FF016C032F317C033F309D032C32FF02A
:100AD800030132510DEC1FF00301324B332B56C08A
:100AE80016F057C017F0000E196E100E186E4FEC66
:100AF8001FF0050E1626000E172216500301325D50
:100B08003351800A0001AB6F1750800AAB59D8A047
:100B1800DDD7C4C016F0C5C017F0000E196E0A0E56
:100B2800186E4FEC1FF016503F0B0301166F000EA6
:100B3800196E0A0E186E50C016F051C017F04FEC1F
:100B48001FF016C01EF017C01FF0000E216E500EC9
:100B5800206E08EC20F01E500301226F000E386F43
:100B6800000E446F020E436F44BF08D0445105E1A4
:100B7800060E435DD8B0CDD001D0CBD0220E432590
:100B8800D96E030E4421DA6E3851020D9C0EF324FF
:100B9800E16E010EF420E26EE6CF1EF0E5CF1FF005
:100BA800000E216E500E206E08EC20F01E50DF6EF5
:100BB800220E03014325D96E030E4421DA6E800EFE
:100BC800DF640FD0220E4325D96E030E4421DA6E5E
:100BD800220E4325E16E030E4421E26EE750500FCA
:100BE800DF6E38510001AB6FAC6BD890AB37AC37C8
:100BF8009E0EAB25D96E010EAC21DA6E160E0301DE
:100C08004325E16E030E4421E26EDFCFE7FF385142
:100C18000001AB6FAC6BD890AB37AC37A20EAB25ED
:100C2800D96E010EAC21DA6E1C0E03014325E16E6C
:100C3800030E4421E26EDFCFE7FF080E3827434B4F
:100C4800442B92D7D205D8A447D0220E086E030EA3
:100C5800096E160E0A6E030E0B6E1C0E0C6E030E3A
:100C68000D6E560E0E6E23EC17F0E806D8A451D080
:100C7800F8EC18F05550D8A403D0000E0001D26F3C
:100C8800800E03011C6F800E1D6F020E5518D8A42C
:100C980040D050C016F051C017F0000E196E0A0E61
:100CA800186E4FEC1FF016500301226FC4C016F0E7
:100CB800C5C017F0000E196E0A0E186E4FEC1FF023
:100CC80016500301166F22C323F31651F80F176F3E
:100CD80037EC21F0020E1BD0020ED219D8A419D07D
:100CE800220E086E030E096E160E0A6E030E0B6EA8
:100CF8001C0E0C6E030E0D6E560E0E6E23EC17F0C6
:100D0800E806D8A406D0030E556003D0000E0001F3
:100D1800D26F56C01EF057C01FF0000E216E500E45
:100D2800206E08EC20F01EC0CCF01FC0CDF056C0DD
:100D380016F057C017F0000E196E100E186E4FEC13
:100D48001FF0165003010C5D0D51800A0001AB6FB6
:100D58001750800AAB59D8B0B0D056C016F057C05B
:100D680017F0000E196E100E186E4FEC1FF016508B
:100D7800040F2F6ECCC016F0CDC017F0000E196E00
:100D8800100E186E4FEC1FF01650040F0DEC1FF0EC
:100D98000301126962D0000E03010A6F000E356F5D
:100DA800070E346F35BF06D035511BE11F0E345D79
:100DB800D8B017D0D8903435D96E3535DA6E9C0E48
:100DC800D926010EDA225250DE1806E15350DE18F9
:100DD800D8A402D0010E0A6F080E3427000E35235E
:100DE800E1D70A51D8A437D052C0ABF053C0ACF009
:100DF8000001D890AB37AC37D890AB37AC37AB5194
:100E0800C825AD6FAC51C921AE6FADC0F6FFAEC0FD
:100E1800F7FF0800F550100D5650F3181CE1575015
:100E2800F418D8A418D052C0ABF053C0ACF0D89086
:100E3800AB37AC37D890AB37AC37AB51C825086E59
:100E4800AC51C921096E52C00AF0120E0B6E030E86
:100E58000C6E2BEC16F0524A532A52C0ABF053C01A
:100E6800ACF00001D890AB37AC37D890AB37AC3783
:100E7800AB51C825AD6FAC51C921AE6FADC0F6FFFF
:100E8800AEC0F7FF0800F550100DF350565C5750F0
:100E9800800AAF6FF450800AAF59D8A00ED0010174
:100EA8007C51525C5350800A0001AB6F01017D51A7
:100EB800800A0001AB59D8A06ED756C016F057C0AB
:100EC80017F0000E196E100E186E4FEC1FF003018C
:100ED8000C51165C1750800A0001AB6F03010D51CD
:100EE800800A0001AB59D8B0CBD00301136956C0B2
:100EF80016F057C017F0000E196E100E186E4FEC52
:100F08001FF016502F6ECCC016F0CDC017F0000E93
:100F1800196E100E186E4FEC1FF016500DEC1FF0E6
:100F280003D05206D8A05306010E56240001AB6F19
:100F3800000E5720AC6F52C0ADF053C0AEF0D89041
:100F4800AD37AE37D890AD37AE37AD51C825AF6F96
:100F5800AE51C921B06FFC0EAF25B16FFF0EB021A5
:100F6800B26FB1C0F6FFB2C0F7FF0800F550100D20
:100F7800AB51F35CF450800AB36FAC51800AB3599B
:100F8800D8B053BE05D05350CCE15204D8B0C9D71D
:100F98005504D8A46FD0FF0E522403013F6FFF0EF3
:100FA8005320406F45D0000E0B6F000E376F070EB1
:100FB800366F37BF06D037511BE11F0E365DD8B0EC
:100FC80017D0D8903635D96E3735DA6E9C0ED926BB
:100FD800010EDA223F51DE1806E14051DE18D8A48E
:100FE80002D0010E0B6F080E3627000E3723E1D70B
:100FF8000B51D8A419D03FC3ABF040C3ACF00001EB
:10100800D890AB37AC37D890AB37AC37AB51C82595
:10101800086EAC51C921096E3FC30AF0130E0B6E5E
:10102800030E0C6E2BEC16F003013F07D8A0400707
:101038003FC3ABF040C3ACF00001D890AB37AC373E
:10104800D890AB37AC37AB51C825AD6FAC51C9217F
:10105800AE6FADC0F6FFAEC0F7FF0800F550100D3B
:101068005650F31807E15750F418D8A403D00301D9
:1010780040AF99D753AE04D0000E536E000E526E97
:10108800000E0301466F000E456F46BF06D046515D
:101098003CE1060E455DD8B038D01C0E4525D96E0A
:1010A800030E4621DA6EDFBE2CD0160E4525D96E0A
:1010B800030E4621DA6E000EDBBE23D0160E452540
:1010C800D96E030E4621DA6EDF50086E1C0E4525D8
:1010D800D96E030E4621DA6EDF503F0B096E1C0EE7
:1010E8004525D96E030E4621DA6EDF50400B0A6E95
:1010F800220E4525D96E030E4621DA6EDF507BECB1
:1011080013F00301454B462BC0D70001CDBF0AD0D1
:10111800CD5104E1500ECC5DD8A004D0000ECD6FA7
:10112800000ECC6FCDAF04D0000ECD6F4F0ECC6F3C
:10113800CC5179EC19F073EF01F020EE04F0255052
:10114800D9262650DA22DF502E6E2E50D8A413D07E
:1011580054A007D025C0D9FF26C0DAFFDE06000E4E
:10116800DD5A20EE06F02550D9262650DA22470E01
:10117800DE6E000EDD6E2E04D8B454A058D020EEDA
:1011880008F02550D9262650DA22DE04DE10D8A42D
:1011980012D020EE06F02550D9262650DA22080E65
:1011A800DE6E000EDD6E25C0D9FF26C0DAFFDE2A0E
:1011B800000EDD2211D025C0D9FF26C0DAFFDE06D9
:1011C800000EDD5A20EE06F02550D9262650DA22E8
:1011D800480EDE6E000EDD6E20EE0AF02550D92690
:1011E8002650DA22DE2A000EDD2220EE0AF02550F3
:1011F800D9262650DA22010EDBBE19D0010EDB50AB
:1012080004E1110EDE5CD8A012D020EE08F02550C3
:10121800D9262650DA22010EDE1A000EDD1A20EE3B
:101228000AF02550D9262650DA22DE6ADD6A020E37
:101238002E18D8A487D020EE06F02550D92626509F
:10124800DA220D0EDE6E000EDD6E20EE0AF025505D
:10125800D9262650DA22DE2A000EDD2220EE0AF0F8
:101268002550D9262650DA22010EDBBE07D0010E02
:10127800DB500FE13D0EDE5CD8B00BD020EE06F05F
:101288002550D9262650DA220D0EDE6E000EDD6EB0
:1012980046D0D8905430010B286E296A0D0E2826A6
:1012A800000E292220EE06F02550D9262650DA22F3
:1012B80028C0DEFF29C0DDFF20EE0AF02550D92620
:1012C8002650DA22010EDBBE07D0010EDB500EE1FC
:1012D800510EDE5CD8B00AD020EE02F02550D92697
:1012E8002650DA22DE06000EDD5A19D020EE0AF06A
:1012F8002550D9262650DA22010EDBBE10D0010E69
:10130800DB5004E1650EDE5CD8A009D020EE02F0C7
:101318002550D9262650DA22DE2A000EDD2220EEBC
:101328000AF02550D9262650DA22780EDE18DE106B
:10133800D8A408D020EE0AF02550D9262650DA2263
:10134800DE6ADD6A030E2E18D8A449D020EE0AF012
:101358002550D9262650DA22DE2A000EDD2220EE7C
:101368000AF02550D9262650DA22010EDBBE07D016
:10137800010EDB500EE11F0EDE5CD8B00AD020EE65
:1013880002F02550D9262650DA22DE06000EDD5A54
:1013980009D020EE02F02550D9262650DA22DE2A7E
:1013A800000EDD2220EE06F02550D9262650DA223E
:1013B800470EDE6E000EDD6E20EE0AF02550D926AF
:1013C8002650DA223C0EDE18DE10D8A408D020EE13
:1013D8000AF02550D9262650DA22DE6ADD6A040E84
:1013E8002E18D8A417D05438E8461F0BD8A408D014
:1013F80020EE06F02550D9262650DA220F0E07D007
:1014080020EE06F02550D9262650DA224F0EDE6E41
:10141800000EDD6E050E2E18D8A417D05438E846F5
:101428001F0BD8A408D020EE06F02550D926265048
:10143800DA22100E07D020EE06F02550D9262650C5
:10144800DA22500EDE6E000EDD6E060E2E18D8A4BF
:101458008BD020EE0CF02550D9262650DA22DE500B
:10146800DE10D8A422D020EE0AF02550D926265026
:10147800DA22010EDBBE07D0010EDB5016E1080EA2
:10148800DE5CD8B012D020EE02F02550D9262650C6
:10149800DA22DE2A000EDD2220EE0AF02550D926B7
:1014A8002650DA22DE2A000EDD225438E8461F0BC9
:1014B8002B6E2B50D8A408D020EE06F02550D92644
:1014C8002650DA22130E0AD02B04D8A40AD020EE14
:1014D80006F02550D9262650DA22140EDE6E000EAC
:1014E800DD6E20EE08F02550D9262650DA22DE2AB5
:1014F800000EDD2220EE08F02550D9262650DA22EB
:10150800010EDBBE07D0010EDB500CE1150EDE5CD0
:10151800D8B008D025C0D9FF26C0DAFFDE06000EF5
:10152800DD5A07D025C0D9FF26C0DAFFDE2A000E13
:10153800DD2220EE08F02550D9262650DA22280E82
:10154800DE18DE10D8A408D020EE08F02550D926E1
:101558002650DA22DE6ADD6A20EE0CF02550D92604
:101568002650DA22DE6ADD6A070E2E18D8A48FD03C
:1015780020EE0CF02550D9262650DA22DECF28F0AE
:10158800DDCF29F0D89028362936D8902836293644
:10159800D89028362936D89028362936A80E2824F7
:1015A800D96E010E2920DA6E010EDE6E000EDD6E98
:1015B8005440E8423F0B2D6E2D50D8A408D020EEA1
:1015C80006F02550D9262650DA22110E22D02D04F5
:1015D800D8A408D020EE06F02550D9262650DA22C5
:1015E800510E17D0020E2D18D8A408D020EE06F000
:1015F8002550D9262650DA22520E0BD0030E2D186C
:10160800D8A40AD020EE06F02550D9262650DA2292
:10161800120EDE6E000EDD6E20EE0AF02550D92681
:101628002650DA22DE2A000EDD2220EE0AF02550AE
:10163800D9262650DA22010EDBBE07D0010EDB5078
:101648000CE1150EDE5CD8B008D025C0D9FF26C045
:10165800DAFFDE06000EDD5A07D025C0D9FF26C006
:10166800DAFFDE2A000EDD2220EE0AF02550D92608
:101678002650DA22280EDE18DE10D8A408D020EE74
:101688000AF02550D9262650DA22DE6ADD6A080ECD
:101698002E18D8A463D020EE06F02550D92626505F
:1016A800DA22470EDE6E000EDD6E20EE0AF02550BF
:1016B800D9262650DA22DE50DE10D8A42ED020EE0D
:1016C80002F02550D9262650DA22DE2A000EDD2225
:1016D80020EE02F02550D9262650DA22C4C016F092
:1016E800C5C017F0000E196E0A0E186E4FEC1FF0E9
:1016F800DE50165C1750800A2A6EDE50800A2A587F
:10170800D8B02CD020EE0AF02550D9262650DA225F
:10171800010EDE6E000EDD6E21D020EE0AF025509F
:10172800D9262650DA22010EDBBE07D0010EDB5087
:101738000EE1140EDE5CD8B00AD020EE0AF0255077
:10174800D9262650DA22DE2A000EDD2207D025C04F
:10175800D9FF26C0DAFFDE06000EDD5A090E2E1864
:10176800D8A42DD020EE06F02550D9262650DA220E
:10177800110EDE6E000EDD6E20EE08F02550D92623
:101788002650DA22DE2A000EDD2220EE08F025504F
:10179800D9262650DA22010EDBBE11D0010EDB500D
:1017A80004E1100EDE5CD8A00AD020EE02F025502D
:1017B800D9262650DA22020EDE26000EDD220A0E77
:1017C8002E18D8A411D020EE06F02550D926265080
:1017D800DA22190EDE6E000EDD6E25C0D9FF26C096
:1017E800DAFFDE06000EDD5A0B0E2E18D8A449D0FB
:1017F80020EE0AF02550D9262650DA22DE2A000EDD
:10180800DD2220EE0AF02550D9262650DA22010ED4
:10181800DBBE07D0010EDB500EE1100EDE5CD8B047
:101828000AD020EE02F02550D9262650DA22DE060C
:10183800000EDD5A09D020EE02F02550D926265098
:10184800DA22DE2A000EDD2220EE06F02550D92607
:101858002650DA22470EDE6E000EDD6E20EE0AF00C
:101868002550D9262650DA221E0EDE18DE10D8A4FE
:1018780008D020EE0AF02550D9262650DA22DE6A52
:10188800DD6A0C0E2E18D8A412D020EE06F02550D2
:10189800D9262650DA221A0EDE6E000EDD6E25C01D
:1018A800D9FF26C0DAFFFE0EDE26FF0EDD22140E5B
:1018B8002E18D8A43ED020EE06F02550D926265062
:1018C800DA22150EDE6E000EDD6E20EE08F02550D1
:1018D800D9262650DA22DE2A000EDD2220EE08F074
:1018E8002550D9262650DA22010EDBBE22D0010E61
:1018F800DB5004E13D0EDE5CD8A01BD0040E1E6E4A
:10190800090E1F6EEDEC21F014C016F015C017F08B
:10191800020E196E490E186E4FEC1FF01650DEECD1
:1019280017F020EE08F02550D9262650DA22DE6A74
:10193800DD6A1E0E2E18D8A495D020EE08F025508A
:10194800D9262650DA22010EDBBE07D0010EDB5065
:101958001EE11E0EDE5CD8B01AD025C0D9FF26C005
:10196800DAFFDE06000EDD5A070E546408D020EEBA
:1019780006F02550D9262650DA22160E1FD020EE62
:1019880006F02550D9262650DA22170E17D020EE59
:1019980008F02550D9262650DA22010EDBBE07D0E2
:1019A800010EDB500FE1230EDE5CD8B00BD020EE29
:1019B80006F02550D9262650DA22180EDE6E000EC3
:1019C800DD6E47D020EE08F02550D9262650DA22C1
:1019D800010EDBBE07D0010EDB5021E1400EDE5CBC
:1019E800D8B01DD0070E546408D020EE06F025505C
:1019F800D9262650DA22560E07D020EE06F02550BA
:101A0800D9262650DA22570EDE6E000EDD6E25C06E
:101A1800D9FF26C0DAFFDE2A000EDD221AD020EE1A
:101A280008F02550D9262650DA22DE6ADD6A20EE33
:101A380002F02550D9262650DA22DF501E6E0A0EF3
:101A48001F6E25C0D9FF26C0DAFFDF50F80FDEEC85
:101A580017F020EE08F02550D9262650DA22DE2A83
:101A6800000EDD221F0E2E18D8A43DD020EE06F061
:101A78002550D9262650DA22130EDE6E000EDD6EB2
:101A880020EE0AF02550D9262650DA22DE2A000E4A
:101A9800DD2220EE0AF02550D9262650DA22010E42
:101AA800DBBE21D0010EDB5004E13D0EDE5CD8A088
:101AB8001AD020EE02F02550D9262650DA22DF501F
:101AC8001E6E0C0E1F6E25C0D9FF26C0DAFFDF5030
:101AD800F80FDEEC17F020EE0AF02550D926265034
:101AE800DA22DE6ADD6A25C0D9FF26C0DAFFDF50B8
:101AF800286E5650285C2C6E2C50800A900FD8A067
:101B080024D02C50800A370FD8B01FD020EE02F016
:101B18002550D9262650DA22010EDBBE16D0010E3A
:101B2800DB5003E1DE04D8A010D020EE02F02550EF
:101B3800D9262650DA22010EDBBE1200010EDB5038
:101B480004E1390EDE5CD8A0120020EE06F0255024
:101B5800D9262650DA22800EDE6E000EDD6E20EECB
:101B68000EF02550D9262650DA22FF0EDE6EFF0E23
:101B7800DD6E1200000E196E0A0E186E50C016F0B7
:101B880051C017F04FEC1FF016C01EF017C01FF021
:101B9800000E216E500E206E08EC20F01EC0A7F03B
:101BA8001FC0A8F0C4C016F0C5C017F0000E196E0B
:101BB8000A0E186E4FEC1FF03F0E16140001A96FA5
:101BC800AA6B50C016F051C017F0000E196E0A0E1D
:101BD800186E4FEC1FF016C0A5F017C0A6F0040E43
:101BE8000001A525086E000EA621096E040EA92580
:101BF8000A6E000EAA210B6E5AEC1BF0A06FA029EA
:101C0800D8B40ED0A0518B6F8C6BD8908B378C3793
:101C1800A00E8B25D96E010E8C21DA6EDF50A06FD5
:101C2800A029D8B41BD001015C515D11D8A416D0ED
:101C3800000E5D6F1E0E5C6FFF0E0001C36FEC0E91
:101C4800C26FD907150E2D6ED9C02EF02F6A020E5D
:101C580070EC1AF0D951D8B441EC23F001015C5171
:101C68005D11D8B403D05C07D8A05D07000E656F7E
:101C7800000E646F000E0001986F0A0E976FBE5138
:101C8800BF11D8B404D0000E986F050E976F020EDE
:101C9800C227000EC323C2C016F0C3C017F0000E3F
:101CA800196E0A0E186E4FEC1FF00001A951162686
:101CB800AA511722080E1624A16F000E1720A26F32
:101CC800A7C02CF0A8C02DF0A1C02EF0A2C02FF004
:101CD800D7EC22F0E806D8B462D0C2C016F0C3C070
:101CE80017F0000E196E0A0E186E4FEC1FF0000167
:101CF800A9511626AA511722080E1624A16F000E04
:101D08001720A26F070EA7252C6E000EA8212D6E96
:101D1800A1C02EF0A2C02FF0D7EC22F0E806D8B46C
:101D28003ED0C2C016F0C3C017F0000E196E0A0EDE
:101D3800186E4FEC1FF00001A9511624A16FAA518B
:101D48001720A26FA7C02CF0A8C02DF0A1C02EF0BC
:101D5800A2C02FF0D7EC22F0E806D8B420D0C2C039
:101D680016F0C3C017F0000E196E0A0E186E4FEC6D
:101D78001FF00001A9511624A16FAA511720A26FC4
:101D8800070EA7252C6E000EA8212D6EA1C02EF0DF
:101D9800A2C02FF0D7EC22F0E806D8A425D0000E78
:101DA800196E500E186E460E0001C425166E000EF0
:101DB800C521176E4FEC1FF016C01EF017C01FF09C
:101DC800000E216E500E206E68EC23F01EC0C4F089
:101DD8001FC0C5F0000E0001C36F000EC26F000ED9
:101DE8000101656F010E646F0001C3BF0AD0C351C2
:101DF80004E1280EC25DD8A004D0000EC36F280EDF
:101E0800C26FC251C427C351C523C4C016F0C5C090
:101E180017F0000E196E0A0E186E4FEC1FF03F0EE9
:101E280016140001A96FAA6B000E9D6F000E9A6F21
:101E3800000E996F000E9C6F000E9B6F040EA72575
:101E4800246E000EA821256E040EA925266E000E0C
:101E5800AA21276E3AEC1EF0080AD8A42DD0020E4B
:101E680000019D6F50C016F051C017F0000E196E9A
:101E78000A0E186E4FEC1FF0040E1626000E1722DD
:101E8800F80E16140001996FFF0E17149A6FC4C04C
:101E980016F0C5C017F0000E196E0A0E186E4FEC3A
:101EA8001FF0040E1626000E1722F80E1614000155
:101EB8009B6FFF0E17149C6F80BA04D001014B5121
:101EC800D8B43CD0010160516111D8A432D064511A
:101ED8006511D8B409D00001BE05BF11D8B404D02B
:101EE800FF0EC36FE20E10D00001BFBF06D0BF5176
:101EF8000CE1020EBE5DD8B008D0000EBF6F010E17
:101F0800BE6FFF0EC36FEC0EC26F040EA725246EC2
:101F1800000EA821256E040EA925266E000EAA2102
:101F2800276E3AEC1EF0060AD8A403D0010E000171
:101F38009D6F000E0101616F010E03D0000E616FED
:101F4800000E606F80B003D04951D8B431D0020E72
:101F58000001BE19BF11D8B42BD0080EA7252C6ECE
:101F6800000EA8212D6E070EA9252E6E000EAA219F
:101F78002F6ED7EC22F0E806D8B415D0080E000171
:101F8800A7252C6E000EA8212D6EA9C02EF0AAC080
:101F98002FF0D7EC22F0E806D8B405D0000197510D
:101FA800502698515122000E0001C16F000EC06FDB
:101FB80080B404D001014851D8B431D0020E0001D8
:101FC800BE19BF11D8B42BD0FF0EA7252C6EFF0E5B
:101FD800A8212D6E070EA9252E6E000EAA212F6EA0
:101FE800D7EC22F0E806D8B415D0FF0E0001A725DB
:101FF8002C6EFF0EA8212D6EA9C02EF0AAC02FF0BE
:10200800D7EC22F0E806D8B405D000019751505E0D
:102018009851515A000E0001C16F010EC06F020E97
:102028000001BE19BF11D8A49FD0D151D8A49CD00B
:10203800C051C111D8A404D0000EA46F070E03D05C
:10204800FF0EA46FF90EA36FA351A5258B6FA451A2
:10205800A6218C6F070E8B25086E000E8C21096E49
:10206800040EA9250A6E000EAA210B6E5AEC1BF06D
:102078008D6F8D51936F946BA351A525086EA45154
:10208800A621096E040EA9250A6E000EAA210B6E60
:102098005AEC1BF08B6F8B51956F966BA351A7254C
:1020A8008B6FA451A8218C6F040E8B25246E000E13
:1020B8008C21256E040EA925266E000EAA21276EF6
:1020C8003AEC1EF000018D6F8D519E6F9F6B932926
:1020D8009411D8B408D0A5C087F0A6C088F0935151
:1020E8009DEC1CF041D095299611D8B408D0A5C014
:1020F80087F0A6C088F095519DEC1CF035D09FBFA5
:1021080033D09F5104E10C0E9E5DD8A02DD09FBF07
:1021180006D09F5129E1150E9E5DD8B025D0A5C0E7
:1021280024F0A6C025F0A351A7258B6FA451A821A0
:102138008C6F040E8B25266E000E8C21276E040EE4
:10214800A925286E000EAA21296EA351A5258D6FF9
:10215800A451A6218E6F040E8D252A6E000E8E21A5
:102168002B6E9E51E7EC1AF080B60CD001015BBFD4
:1021780006D05B5107E11C0E5A5DD8B003D04A5116
:10218800D8B44DD001015E515F11D8A443D00001ED
:10219800BE05BF11D8A404D0000EBF6F000E07D033
:1021A800BE51BF11D8A404D0000EBF6F020EBE6F7F
:1021B800030EBE19BF11D8A42DD0000EBF6F000E9C
:1021C800BE6F50C016F051C017F0000E196E0A0EFF
:1021D800186E4FEC1FF016C0BCF017C0BDF0C4C09D
:1021E80016F0C5C017F0000E196E0A0E186E4FECE7
:1021F8001FF016500001D06FC051C111D8A404D0EF
:10220800000E926F030E03D0FF0E926FFD0E916FBA
:1022180091C0CFF0000E01015F6F010E11D0020EC8
:102228000001BE19BF11D8A407D0D151D8A404D039
:10223800000EBF6F000EBE6F000E01015F6F000E33
:102248005E6F0001D151D8B40BD0D107D151D8A4B9
:1022580007D0000EBF6F030EBE6FD351A7EC20F05E
:1022680000019D05D8A403D0F8EC18F06FD0020E39
:102278009D19D8A46BD0280E5024166E000E51203C
:10228800176E010E196E400E186E4FEC1FF016C037
:102298008FF017C090F099C0BCF09AC0BDF0000153
:1022A8009B51F80FD06F99C01EF09AC01FF0000E16
:1022B800216E0A0E206E68EC23F01EC050F01FC07D
:1022C80051F09BC01EF09CC01FF0000E216E0A0E3C
:1022D800206E68EC23F01EC0C4F01FC0C5F0010ECC
:1022E8000001D26F000ED8EC20F0040E0001A725E3
:1022F800166E000EA821176E000E196E080E186EC5
:102308004FEC1FF0D89016361736D8901636173679
:10231800D89016361736800E162400018B6F020EE1
:1023280017208C6F040EA925166E000EAA21176EB1
:10233800000E196E080E186E4FEC1FF016500001B3
:102348008B25D96E17508C21DA6EDF6A000E0101D9
:10235800486F000E496F000E4A6F000E4B6F120057
:1023680039C0D4F017EC22F0000EC36F000EC26F14
:10237800000E536E000E526E000EBF6F000EBE6F41
:1023880039C01EF03AC01FF0000E216E060E206EF6
:1023980068EC23F01EC039F01FC03AF0000E576EEB
:1023A800000E566ED8903934F66E3A34F76EEB0E4E
:1023B800F626780EF7220900F5CF41F00900F5CF8F
:1023C80042F0390E4124436E7C0E4220446E0101D6
:1023D8006E5143247E6F6F5144207F6F39C041F0A6
:1023E8003AC042F0D89041364236020E4126000EDD
:1023F8004222EB0E4124F66E780E4220F76E090059
:10240800F5CFCAF00A00F5CFCBF039C041F03AC099
:1024180042F0D89041364236040E4126000E422240
:10242800EB0E4124F66E780E4220F76E0900F5CFC8
:1024380043F00900F5CF44F06C5143266D51442216
:10244800D89043364436D89043364436520E432407
:102458000001C86F7E0E4420C96F39C041F03AC0F0
:1024680042F0D89041364236060E4126000E4222EE
:10247800EB0E4124F66E780E4220F76E0900F5CF78
:102488007CF10A00F5CF7DF139C041F03AC042F045
:10249800D89041364236080E4126000E4222EB0EF5
:1024A8004124F66E780E4220F76E01016A51090048
:1024B800F5244B6E6B510900F5204C6E8E0E4B24A3
:1024C8007A6F7F0E4C207B6F780E4B24786F7F0ECF
:1024D8004C20796F4C0E4B24766F7F0E4C20776F13
:1024E800360E4B24746F7F0E4C20756F620E4B2492
:1024F800726F7F0E4C20736F39C041F03AC042F0C2
:10250800D890413642360A0E4126000E4222EB0E82
:102518004124F66E780E4220F76E0800F5CF55F08C
:10252800030E556412D0040E556E5550416E426A22
:10253800060ED89041364236E82EFBD7800E41244D
:102548000001C66FFF0E4220C76F3BC01EF03CC0A3
:102558001FF0000E216E0A0E206E68EC23F01EC0DC
:1025680050F01FC051F03DC01EF03EC01FF0000EDD
:10257800216E0A0E206E68EC23F01EC0C4F01FC046
:10258800C5F03FC056F040C057F0000E486E030E2D
:10259800476ED8904734D96E4834DA6E9C0ED926E7
:1025A800010EDA22800EDE6E000EDD6E080E472662
:1025B800000E482248BEEDD7485004E1200E475C83
:1025C800D8A0E7D756C016F057C017F0000E196EFE
:1025D800100E186E4FEC1FF016C049F017C04AF0E5
:1025E80007D049C02FF049500DEC1FF0494A4A2A3C
:1025F80056C016F057C017F0000E196E100E186E60
:102608004FEC1FF0050E1626000E17221650495CD7
:102618004A50800A416E1750800A4158D8A0E1D725
:10262800466837D052C041F053C042F0D890413686
:102638004236D890413642364150C825436E425002
:10264800C921446E43C0F6FF44C0F7FF0800F550A7
:10265800100D5650F3181BE15750F418D8A417D092
:1026680052C041F053C042F0D89041364236D8901B
:10267800413642364150C825086E4250C921096E7C
:1026880052C00AF0460E0B6E0C6A2BEC16F0524A3A
:10269800532A01017C51525C5350800A416E7D518E
:1026A800800A4158D8B0120052C041F053C042F0DD
:1026B800D89041364236D8904136423641500001D2
:1026C800C825436E4250C921446E43C0F6FF44C03A
:1026D800F7FF0800F550100DF350565C5750800A6C
:1026E800456EF450800A4558D8A012009BD7106E4A
:1026F8000850070B186E08C00BF0D8900B32D89012
:102708000B32D8900B321050080DF3CF0CF0F4CFE9
:102718000DF00C500001BA250E6E0D50BB210F6E46
:102728000B500E24156E000E0F20166E0950080D62
:10273800F3CF09F0000E1A6E000E196E0A50D8A4D5
:1027480070D018C00BF00950B6250C6E000EB721DA
:102758000D6E19500C261A500D220CC0F6FF0DC034
:10276800F7FF0800F5CF0EF00B2A02D0D8900E36EE
:102778000B2EFCD70E50136E185008080B6E09501C
:102788000001B6250C6E000EB7210D6E19500C26EF
:102798001A500D220CC0F6FF0DC0F7FF0800F5CF48
:1027A8000EF00B2A02D0D8900E320B2EFCD70E500A
:1027B800146E18C00BF009500001B8250C6E000EFD
:1027C800B9210D6E19500C261A500D220CC0F6FFB7
:1027D8000DC0F7FF0800F5CF0EF00B2A02D0D890F5
:1027E8000E360B2EFCD70E50116E185008080B6EC3
:1027F80009500001B8250C6E000EB9210D6E195054
:102808000C261A500D220CC0F6FF0DC0F7FF080069
:10281800F5CF0EF00B2A02D0D8900E320B2EFCD733
:102828007FD018C00BF00950B6250C6E000EB721EA
:102838000D6E19500C5E1A500D5A070E0C26000E1C
:102848000D220CC0F6FF0DC0F7FF0800F5CF0EF003
:102858000B2A02D0D8900E360B2EFCD70E50136ED2
:10286800185008080B6E09500001B6250C6E000EB2
:10287800B7210D6E19500C5E1A500D5A070E0C2612
:10288800000E0D220CC0F6FF0DC0F7FF0800F5CFB3
:102898000EF00B2A02D0D8900E320B2EFCD70E5019
:1028A800146E18C00BF009500001B8250C6E000E0C
:1028B800B9210D6E19500C5E1A500D5A070E0C26D0
:1028C800000E0D220CC0F6FF0DC0F7FF0800F5CF73
:1028D8000EF00B2A02D0D8900E360B2EFCD70E50D5
:1028E800116E185008080B6E09500001B8250C6EBF
:1028F800000EB9210D6E19500C5E1A500D5A070EB4
:102908000C26000E0D220CC0F6FF0DC0F7FF0800C4
:10291800F5CF0EF00B2A02D0D8900E320B2EFCD732
:102928000E50126E15C0D9FF16C0DAFFDF50176EB1
:102938001350FF0A1714176E17501110176E15C091
:10294800D9FF16C0DAFF17C0DFFF154A162A15C0CF
:10295800D9FF16C0DAFFDF50176E1450FF0A17149C
:10296800176E17501210176E15C0D9FF16C0DAFF70
:1029780017C0DFFF780E0001BA250B6E020EBB21CF
:102988000C6E0B50155C0C501658D8A004D0800E55
:10299800155E020E165A070E1526000E1622194A43
:1029A8001A2A1ABECBD61A5005E1080E195CD8B0FF
:1029B8001200C4D61200D8901C361D36D8901C368A
:1029C8001D361AC020F01BC021F0D89020362136C1
:1029D80018C022F019C023F0223A233AF00E231629
:1029E80022500F0B2312F00E2216800E2224246E82
:1029F800020E2320256E20502424296E21502520E4
:102A08002A6E000E2E6E000E2D6E2E342E30216E84
:102A18002D30206E20502B6E2D50010B2C6EDA0EAF
:102A2800206E7E0E216E1C5020261D5021222D5016
:102A380020262E50212220C0F6FF21C0F7FF0800D3
:102A4800F5CF28F029C0D9FF2AC0DAFF28C0DFFF58
:102A5800289E0C0E2818D8A446D01EC020F01FC0EF
:102A680021F0D890203621362B502024086E000EF5
:102A78002120096E1AC022F01BC023F0D8902236FC
:102A880023362C5022240A6E000E23200B6EC8EC2D
:102A98001EF0266E2604D8A406D029C0D9FF2AC065
:102AA800DAFFDF6A20D0020E2618D8A41CD01EC078
:102AB80020F01FC021F0D890203621362B5020243A
:102AC800086E000E2120096E1AC022F01BC023F0E8
:102AD800D890223623362C5022240A6E000E23204A
:102AE8000B6E55EC23F00C0E28644CD01EC020F061
:102AF8001FC021F0D890203621362B502024086E94
:102B0800000E2120096E1AC022F01BC023F0D890B5
:102B1800223623362C5022240A6E000E23200B6EF8
:102B2800D4C00CF00D6A4DEC1DF0276E2704D8A414
:102B380006D029C0D9FF2AC0DAFFDF6A23D0020EE7
:102B48002718D8A41FD01EC020F01FC021F0D8908D
:102B5800203621362B502024086E000E2120096EC5
:102B68001AC022F01BC023F0D890223623362C50EE
:102B780022240A6E000E23200B6ED4C00CF00D6ABE
:102B88005AEC22F0294A2A2A2D042E10D8A404D05F
:102B9800060E2926000E2A222D4A2E2A2EBE35D7A9
:102BA8002E5004E1040E2D5CD8A02FD7D8901834ED
:102BB800086E1934096ED8901A340A6E1B340B6EDD
:102BC800F9EC19F018C020F019C021F0D89020367F
:102BD8002136010E2024086E000E2120096ED8909F
:102BE8001A340A6E1B340B6EF9EC19F0D8901834AD
:102BF800086E1934096E1AC020F01BC021F0D89055
:102C080020362136010E20240A6E000E21200B6E7C
:102C1800F9EC19F018C020F019C021F0D89020362E
:102C28002136010E2024086E000E2120096E1AC0DC
:102C380022F01BC023F0D89022362336010E22241E
:102C48000A6E000E23200B6EF9EC19F01200000E2C
:102C5800126E000E116ED8901134D96E1234DA6EDD
:102C6800A20ED926010EDA22800EDE18DE10D8A4B4
:102C7800D8D0010E08240D6E000E09200E6E0DC06E
:102C8800F6FF0EC0F7FF0800F55056240F6E000E31
:102C98005720106ED8901134D96E1234DA6E9C0E0B
:102CA800D926010EDA220FC0DEFF10C0DDFF020EAA
:102CB80008240D6E000E09200E6E0DC0F6FF0EC022
:102CC800F7FF0800F5500F6E106AD8901134D96ECE
:102CD8001234DA6E9E0ED926010EDA220FC0DEFFFC
:102CE80010C0DDFF030E08240D6E000E09200E6EC5
:102CF8000DC0F6FF0EC0F7FF0800F5500F6E106A02
:102D0800D8901134D96E1234DA6EA00ED926010E7D
:102D1800DA220FC0DEFF10C0DDFFD8901134D96E63
:102D28001234DA6EA20ED926010EDA22DE6ADD6AC4
:102D3800D8901134D96E1234DA6EA40ED926010E49
:102D4800DA22DE6ADD6AD8901134D96E1234DA6E6E
:102D5800A60ED926010EDA22DE6ADD6AD890113471
:102D6800D96E1234DA6EA80ED926010EDA22DE6A7E
:102D7800DD6A0A500D6E0E6AD8901134D96E12347D
:102D8800DA6EAA0ED926010EDA220DC0DEFF0EC0B9
:102D9800DDFF030E08240D6E000E09200E6E0DC017
:102DA800F6FF0EC0F7FF0800F550070AD8A414D0A4
:102DB8000BC0D9FF0CC0DAFFDF500D6E0E6AD89039
:102DC8001134D96E1234DA6EA80ED926010EDA2221
:102DD8000DC0DEFF0EC0DDFF030E08240D6E000ED1
:102DE80009200E6E0DC0F6FF0EC0F7FF130E080087
:102DF800F56410D0030E08240D6E000E09200E6E27
:102E08000DC0F6FF0EC0F7FF1E0E0800F56002D0D9
:102E1800010ECE6F0BC0D9FF0CC0DAFF11C0DFFF67
:102E28001200080E1126000E122212BE14D71250DC
:102E380005E1200E115CD8B012000DD71200000E6B
:102E4800156E000E146E050E0F6E7A0E106EB451CC
:102E58000F26B551102214500F26155010220FC0FE
:102E6800F6FF10C0F7FF0800F5CF11F01450082442
:102E7800D96E15500920DA6E1150DF26C10E0F6E7B
:102E8800790E106EB4510F26B551102214500F262A
:102E9800155010220FC0F6FF10C0F7FF0800F5CF3D
:102EA80011F014500A24D96E15500B20DA6E115007
:102EB800DF267D0E0F6E790E106EB4510F26B551B8
:102EC800102214500F26155010220FC0F6FF10C004
:102ED800F7FF14500C24D96E15500D20DA6E080037
:102EE800F5CFDFFF144A152A15BEADD7155004E1FA
:102EF800040E145CD8A0A7D70E50D96EDA6A5B0E00
:102F080001014C25F66E7A0E4D21F76E0800F5503A
:102F1800DE26000EDD224E07D8A04F074E514F1176
:102F2800D8A446D04C4B4D2B040E0001B427000EFC
:102F3800B523000E136E000E126E7D0E0F6E790E05
:102F4800106EB4510F26B551102212500F2613508F
:102F580010220FC0F6FF10C0F7FF12500C24D96ED4
:102F680013500D20DA6E0800F5CFDFFF124A132A3E
:102F780013BEE3D7135004E1040E125CD8A0DDD7CA
:102F8800490E01014C25F66E7A0E4D21F76E0800A8
:102F9800F550FF0AD8A402D0010E1200490E4C25A4
:102FA800F66E7A0E4D21F76E0800F5504E6F4F6B96
:102FB800000E1200226E000E246E000E236ED890B2
:102FC8002334D96E2434DA6EA20ED926010EDA2201
:102FD800800EDE18DE10D8A46DD022505624206E44
:102FE800000E5720216ED8902334D96E2434DA6E1F
:102FF8009C0ED926010EDA2220C0DEFF21C0DDFF9B
:103008001E50206E216AD8902334D96E2434DA6E8B
:103018009E0ED926010EDA2220C0DEFF21C0DDFF78
:103028001F50206E216AD8902334D96E2434DA6E6A
:10303800A00ED926010EDA2220C0DEFF21C0DDFF56
:10304800D8902334D96E2434DA6EA20ED926010E14
:10305800DA22DE6ADD6AD8902334D96E2434DA6E37
:10306800A40ED926010EDA22DE6ADD6AD89023344E
:10307800D96E2434DA6EA60ED926010EDA22DE6A5B
:10308800DD6AD8902334D96E2434DA6EA80ED92696
:10309800010EDA22DE6ADD6AD8902334D96E243430
:1030A800DA6EAA0ED926010EDA22FF0EDE6E000EA7
:1030B800DD6E1200080E2326000E242224BE7FD7C0
:1030C800245005E1200E235CD8B0120078D71200F6
:1030D8004D6E4D500001836F846BD89083378437D1
:1030E800A00E8325D96E010E8421DA6E010EDBBE97
:1030F80007D0010EDB5025E1140EDE5CD8B021D0DC
:103108004D50836F846BD89083378437A20E832504
:10311800D96E010E8421DA6E800EDE6E000EDD6E31
:103128004D50836F846BD89083378437AA0E8325DC
:10313800D96E010E8421DA6EFF0EDE6EFF0EDD6E93
:103148001200D807150E2D6ED8C02EF02F6A050E66
:1031580070EC1AF0D851D8A412004D50836F846BCC
:10316800D89083378437A00E8325D96E010E842129
:10317800DA6E010EDBBE07D0010EDB5007E11E0E32
:10318800DE5CD8B003D02DEC23F012004D50836FD5
:10319800846BD89083378437A20E8325D96E010EAD
:1031A8008421DA6E800EDE6E000EDD6E4D50836F68
:1031B800846BD89083378437AA0E8325D96E010E85
:1031C8008421DA6EFF0EDE6EFF0EDD6EF8EC18F06D
:1031D800060E0001D86F150E2D6ED8C02EF02F6A7E
:1031E800050E70EC1AF0120050C016F051C017F01E
:1031F800000E196E0A0E186E4FEC1FF016C068F01C
:1032080017C069F0000E00016B6F000E6A6F02D0E4
:103218006A4B6B2B6A51010178250001606F6B5175
:10322800010179210001616F60C0F6FF61C0F7FFFD
:103238000800F550100D6851F35CF450800A626F75
:103248006951800A6259D8A0E3D76A5101017A25E9
:103258000001606F6B5101017B210001616F60C04B
:10326800F6FF61C0F7FF0800F55001017025396EBF
:10327800000E71213A6E00016A51010176250001A4
:10328800626F6B51010177210001636F62C0F6FF25
:1032980063C0F7FF0800F5503B6E3C6A6A510101B4
:1032A80074250001646F6B51010175210001656F80
:1032B80064C0F6FF65C0F7FF0800F5503D6E3E6A32
:1032C8006A51010172250001666F6B51010173217A
:1032D8000001676F66C0F6FF67C0F7FF0800F5508A
:1032E8003F6E406AB4EC11F01200176E1750080DCB
:1032F800F3CF13F0F4CF14F013500001BA25186E71
:103308001450BB21196E17505008156E000ED8A026
:10331800E82A0008166E000E1D6E000E1C6E5BD0AB
:10332800000E0D6E18C0D9FF19C0DAFFDF500E6EFF
:103338001C5094EC21F0080E18241A6E000E192067
:103348001B6E000E1F6E010E1E6E0DD01AC0D9FF27
:103358001BC0DAFFDF5003EC23F0080E1A26000E1C
:103368001B221E4A1F2A1FBE06D01F500EE1400E08
:103378001E5CD8B00AD015501E5C1F50800A136E10
:103388001650800A1358D8A0E1D7400E1E181F10F7
:10339800D8B415D01C500001BA251A6E1D50BB2197
:1033A8001B6E0DD01AC0D9FF1BC0DAFFDF5003EC2B
:1033B80023F0080E1A26000E1B221E4A1F2A1FBEC3
:1033C800F1D71F5004E1400E1E5CD8A0EBD7184A75
:1033D800192A1C4A1D2A1DBEA3D71D5005E1080E37
:1033E8001C5CD8B012009CD7120008C00CF009C0B1
:1033F8000DF0060ED8900C360D36E82EFBD70C5083
:103408000001BA250E6E0D50BB210F6E0A500E2416
:10341800136E0B500F20146E08C00CF009C00DF08D
:10342800D8900C360D36D8900C360D36D8900C3610
:103438000D360C50010152250E6E0D5053210F6EA2
:103448000A500E24D96E0B500F20DA6EDF50156E1D
:103458001550800B106E159E1550080DF3CF11F006
:10346800F4CF12F0000E176E000E166E1050D8A48E
:103478000AD0115054250C6E125055210D6E16505D
:103488000C2617500DD01650545D0C6E1750555918
:103498000D6E11500C2612500D22070E0C26000E30
:1034A8000D220CC0F6FF0DC0F7FF13C0D9FF14C0E2
:1034B800DAFF0800F5CFDFFF080E1326000E1422EE
:1034C800164A172A17BED2D7175005E1080E165C00
:1034D800D8B01200CBD712000001806F2FAE16D0E3
:1034E8002DC024F02D0E256E00018051CFEC1FF069
:1034F8002D2A2EC01EF02FC01FF0FF0E216E20684F
:1035080068EC23F01EC02EF01FC02FF0000E000143
:10351800826F000E816F2E502F10D8A428D0300E45
:10352800606F814B822B23D000018151600FD96ECF
:10353800DA6A2EC01EF02FC01FF0000E216E0A0E90
:10354800206E08EC20F01E50300FDF6E0001814B1A
:10355800822B2EC016F02FC017F0000E196E0A0E1F
:10356800186E4FEC1FF016C02EF017C02FF02FBEAC
:1035780021D02F50D9E12E04D8A01CD0D5D781074F
:10358800D8A082078151600FD96EDA6ADF50306E99
:1035980030502E6E2F6A2DC024F02EC025F0805199
:1035A800CFEC1FF02D2A7F0E2D6404D00001802B54
:1035B800000E2D6E000182BF12008251E0E18105EC
:1035C800D8A01200DCD72C6E24502A5C0001BC6FF6
:1035D80025502B58BD6F2AC016F02BC017F0000ECF
:1035E800196E080E186E4FEC1FF016C02AF017C09F
:1035F8002BF026C016F027C017F0000E196E080E23
:10360800186E4FEC1FF016C026F017C027F026C022
:103618001EF027C01FF0000E216E0A0E206E08EC67
:1036280020F01EC026F01FC027F028C016F029C0C1
:1036380017F0000E196E080E186E4FEC1FF016C02A
:1036480028F017C029F0070E2816000E29160F0EAD
:103658000001D16F0C0E2C18D8A40BD02AC008F08A
:103668002BC009F028C00AF029C00BF091EC1FF01C
:1036780012D00C0E2C640FD02CC0D3F02AC008F046
:103688002BC009F028C00AF029C00BF0D4C00CF0F8
:103698000D6AA2EC1DF026C008F027C009F028C06A
:1036A8000AF029C00BF0F0EC1DF012009C0E116E10
:1036B800010E126E000E106E000E0F6E20EE06F058
:1036C8001150D9261250DA22800EDE18DE10D8B436
:1036D80050D011C0D9FF12C0DAFF0850DE5CDE50AE
:1036E800800A0E6E0950800A0E58D8B042D011C018
:1036F800D9FF12C0DAFFDECF0CF0DDCF0DF0080ED7
:103708000C26000E0D220C50085C0950800A0E6E23
:103718000D50800A0E58D8B02CD020EE02F011506F
:10372800D9261250DA220A50DE5CDE50800A0E6E6C
:103738000B50800A0E58D8B01CD020EE02F0115061
:10374800D9261250DA22DECF0CF0DDCF0DF0080EAC
:103758000C26000E0D220C500A5C0B50800A0E6ECF
:103768000D50800A0E58D8B004D00F38E842F80B34
:103778001200100E1126000E12220F4A102A10BE37
:103788009DD7105004E1040E0F5CD8A097D7FF0E08
:10379800120012C016F0176A186A1134163601E3BF
:1037A800178016501D6E1D50D8A407D0000E106E3D
:1037B800000E116E000E126E120015C016F0176A78
:1037C800186A1434163601E3178016501E6E1E5000
:1037D800D8A407D0000E106E000E116E000E126EE7
:1037E8001200000E1A6E000E1B6E000E1C6E1E508C
:1037F800890F1D5E12C01EF015501E1A800E1E166F
:10380800118EFF0E1016FF0E1116000E1216148ED2
:10381800FF0E1316FF0E1416000E1516180E196E4D
:10382800D8901A361B361C361350105C1450115899
:1038380015501258D8A007D01350105E1450115AC2
:103848001550125A1A80D890103611361236192E81
:10385800E7D71AC008F01BC009F01CC00AF01DC049
:103868000BF01EC00CF0F6EC1CF008C010F009C0FC
:1038780011F00AC012F01200D8900D360E36D8900A
:103888000D360E36D8900D34F66E0E34F76E6C0E7B
:10389800F6267A0EF7220900F5CF70F10A00F5CF67
:1038A80071F10DC00FF00EC010F0D8900F36103621
:1038B800020E0F26000E10226C0E0F24F66E7A0EE2
:1038C8001020F76E0900F5CF6EF10A00F5CF6FF101
:1038D8000DC00FF00EC010F0D8900F361036040E41
:1038E8000F26000E10226C0E0F24F66E7A0E102092
:1038F800F76E0900F5CF6CF10A00F5CF6DF10DC038
:103908000FF00EC010F0D8900F361036060E0F26A6
:10391800000E10226C0E0F24F66E7A0E1020F76E31
:103928000900F5CF6AF10A00F5CF6BF117EC22F028
:1039380012008A6F00018A514E6E4F6AD8904E3637
:103948004F36A00E4E24D96E010E4F20DA6EDF508E
:10395800896F050E896119D00F0ED16F8A516CECF1
:1039680018F000018A51020D9C0EF324D96E010E45
:10397800F420DA6EDECF4EF0DDCF4FF087514E5C8B
:10398800BC6F88514F58BD6F1200050E8919D8A415
:1039980013D00F0ED16F8A514E6E4F6AD8904E36A3
:1039A8004F36A00E4E24D96E010E4F20DA6E040E4B
:1039B800DE6E000EDD6ED5D7060E8919D8A406D0A6
:1039C8000F0ED16F8A516CEC18F0CBD7060E8965B3
:1039D8001200140E896112000F0ED16F8A516CEC1F
:1039E80018F0BFD70B50D8B405D0085009100A10EA
:1039F800D8A40CD0000E086E000E096E000E0A6ED8
:103A080012000B2AD8900A3209320832000E081424
:103A18000D6E000E09140E6EFE0E0A140F6E0D5078
:103A28000E100F10D8B40CD0ECD70B2A010E0826B4
:103A3800000E0922000E0A22D8900A3209320832F2
:103A4800000E08140D6E000E09140E6EFF0E0A14F7
:103A58000F6E0D500E100F10D8B406D0E6D70B0617
:103A6800D890083609360A3609BE03D0020E0B6014
:103A7800F6D70BA0099ED8900B320B500A120C50A7
:103A8800D8A40A8E08C008F009C009F00AC00AF0D4
:103A98001200000E126E000E116E40D0280E112476
:103AA800D96E010E1220DA6EDF500E6E0F6A0850C2
:103AB8000E1832E109500F18D8A42ED0140E112474
:103AC800D96E010E1220DA6EDF507F0B0E6E0F6A70
:103AD8000A500E1821E10B500F18D8A41DD0000E63
:103AE8001124D96E010E1220DA6EDF500E6E0F6AA5
:103AF8000C500E1811E10D500F18D8A40DD0140E4B
:103B08001124D96E010E1220DA6E0101DFAE02D047
:103B1800010E1200000E1200114A122A0001D6519D
:103B28000E6E0F6A0E50115C1250800A106E0F5004
:103B3800800A1058D8A0B2D7020E1200000E126EDA
:103B4800000E116E3BD0280E1124D96E010E1220E2
:103B5800DA6EDF500E6E0F6A08500E182DE109500C
:103B68000F18D8A429D0140E1124D96E010E1220D2
:103B7800DA6EDF507F0B0E6E0F6A0A500E181CE1CA
:103B88000B500F18D8A418D0000E1124D96E010EAE
:103B98001220DA6EDF500E6E0F6A0C500E180CE110
:103BA8000D500F18D8A408D0140E1124D96E010E88
:103BB8001220DA6E000EDB8E114A122AD6510E6ED2
:103BC8000F6A0E50115C1250800A106E0F50800A56
:103BD8001058D8B01200B7D708C00CF009C00DF0C3
:103BE800060ED8900C360D36E82EFBD70C50BA25A9
:103BF8000E6E0D50BB210F6E0A500E24106E0B5026
:103C08000F20116E08C00CF009C00DF0D8900C36CA
:103C18000D36D8900C360D36D8900C360D360C5023
:103C2800010152250E6E0D5053210F6E0A500E24BD
:103C3800D96E0B500F20DA6EDF6A000E136E000E7D
:103C4800126E10C0D9FF11C0DAFFDF6A080E102605
:103C5800000E1122124A132A13BEF3D7135005E19E
:103C6800080E125CD8B01200ECD7120024C016F06F
:103C780025C017F0000E196E080E186E4FEC1FF0D5
:103C880016C024F017C025F024C01EF025C01FF070
:103C9800000E216E0A0E206E08EC20F01EC024F0E3
:103CA8001FC025F026C016F027C017F0000E196EA9
:103CB800080E186E4FEC1FF016C026F017C027F03C
:103CC800070E2616000E271624C028F025C029F056
:103CD800D89028362936D89028362936D8902836CC
:103CE8002936800E28242A6E020E29202B6E265093
:103CF8002A24D96E27502B20DA6EDF501200CC0E02
:103D0800F66E420EF76E000EF86E01EE80F010EEC1
:103D18005CF00900F5CFEEFFE550E150FAE1700ED6
:103D2800F66E470EF76E000EF86E0900F5CFD8F064
:103D38000900F5CFD9F003EE47F012EE80F0EE6AF5
:103D4800E550E150FCE1E250FAE102EE00F0D00E5D
:103D5800EE6AE806FDE101EE00F0800EEE6AE80684
:103D6800FDE100EEB4F0240EEE6AE806FDE100EE97
:103D780050F0080EEE6AE806FDE158905892000EE1
:103D8800F86E00014BEF00F0000E106E000E0F6E83
:103D980030D0400E0F24D96E020E1020DA6EDF509C
:103DA8000C6E0D6A08500C1822E109500D18D8A4A1
:103DB8001ED0000E0F24D96E020E1020DA6EDF50CE
:103DC8007F0B0C6E0D6A0A500C1811E10B500D1880
:103DD800D8A40DD0000E0F24D96E020E1020DA6E72
:103DE8000201DFAE02D0010E1200000E12000F4ACF
:103DF800102A0001D7510C6E0D6A0C500F5C105040
:103E0800800A0E6E0D50800A0E58D8A0C2D7020E36
:103E18001200366E2F5001017E25326E000E7F2172
:103E2800336E32C0F6FF33C0F7FF0800F550306E2E
:103E3800316AFE0E3024346E7C0E3120356E050E4C
:103E4800086E365018EC23F0366E000E386E000EF1
:103E5800376E36C018F0196A37C01AF038C01BF030
:103E680034C0F6FF35C0F7FF0800F5501C6E1D6A18
:103E78002FC01EF01F6ADFEC14F0344A352A374A87
:103E8800382A38BEE6D7385005E1040E375CD8B07A
:103E98001200DFD71200000E1B6E19AE06D0186C88
:103EA800191ED8B0192A010E1B6E17AE06D0166C53
:103EB800171ED8B0172A010E1B1A000E1D6E000E11
:103EC8001C6E18501910D8B41CD0010E1A6E04D0EC
:103ED800D890183619361A2A19AEFAD7D8901C363F
:103EE8001D361850165C19501758D8A005D0185010
:103EF800165E1950175A1C80D890193218321A2E8B
:103F0800EDD71B50D8B404D01C6C1D1ED8B01D2A88
:103F18001CC016F01DC017F01200000E106E000E27
:103F28000F6E2BD0400E0F24D96E020E1020DA6EC1
:103F3800DF500C6E0D6A08500C181DE109500D1861
:103F4800D8A419D0000E0F24D96E020E1020DA6EF4
:103F5800DF507F0B0C6E0D6A0A500C180CE10B50E9
:103F68000D18D8A408D0000E0F24D96E020E102008
:103F7800DA6E000EDB8E0F4A102AD7510C6E0D6ACE
:103F88000C500F5C1050800A0E6E0D50800A0E58AF
:103F9800D8B01200C7D7266EE00E25241E6E1F6A01
:103FA800FF0E1F22000E216E050E206E68EC23F016
:103FB8001EC029F01FC02AF02450050DF3CF24F0AD
:103FC800000E2C6E000E2B6EF70E2924F66E760E60
:103FD8002A20F76E0800F550276E286A24C00DF0D5
:103FE80027C00EF0265094EC21F0242A294A2A2AC8
:103FF8002B4A2C2A2CBEE8D72C5005E1050E2B5C49
:10400800D8B01200E1D71200000E236E1FAE06D002
:104018001E6C1F1ED8B01F2A010E236E21AE04D0BD
:10402800206C211ED8B0212A20502110D8B418D0D5
:10403800010E226E04D0D89020362136222A21AED5
:10404800FAD720501E5C21501F58D8A004D0205009
:104058001E5E21501F5AD89021322032222EF1D7CD
:104068002350D8B404D01E6C1F1ED8B01F2A1EC0FF
:104078001EF01FC01FF01200196E19C008F0096A5F
:1040880018C00AF00B6AF9EC19F0070E18600BD08B
:1040980019C008F0096A010E18240A6E0B6A000E8E
:1040A8000B22F9EC19F0192A090E196402D0000E36
:1040B800196E19C008F0096A18C00AF00B6AF9EC01
:1040C80019F0070E1860120019C008F0096A010EED
:1040D80018240A6E0B6A000E0B22F9EC19F0120074
:1040E800306E000E326E000E316E11D02D5031241C
:1040F800246E2EC0F6FF2FC0F7FF0800F5CF25F07D
:104108003050CFEC1FF02E4A2F2A314A322A2EC0C7
:10411800F6FF2FC0F7FF0800F5500A0AD8B41200BE
:104128002EC0F6FF2FC0F7FF0800F5500009D8B4DD
:1041380012002EC0F6FF2FC0F7FF0800F5500D0A39
:10414800D8B41200D3D7316E0E0E3118D8A416D0B9
:10415800020E0001D927050ED96502D0060ED96FC7
:10416800150E2D6ED9C02EF02F6A020E70EC1AF0C3
:10417800000EBF6F000EBE6F000ED36F0F0E31180A
:10418800D8A41200060E0001D96F150E2D6ED9C0E5
:104198002EF02F6A020E70EC1AF0000EBF6F000EA0
:1041A800BE6F000ED36F12000A6E0A50020D7C0E0D
:1041B800F324F66E7A0EF420F76E0900F5CF0BF0B3
:1041C8000A00F5CF0CF0490E0B24F66E7A0E0C207F
:1041D800F76E0800F55001014E6F4F6B0BC04CF1A4
:1041E8000CC04DF10BC008F00CC009F0D89008368F
:1041F8000936D8900836093608C0B4F009C0B5F0B9
:104208000AC050F1516B1200196E19C01AF01B6ADE
:104218001CD014C01CF01D6A09D01CC00DF0000E83
:104228000E6E1A5094EC21F01C4A1D2A1550166E79
:10423800176A1C50165C1750800A186E1D50800AA9
:104248001858D8B0EAD71A4A1B2A1350166E176A9C
:104258001A50165C1750800A186E1B50800A18589E
:10426800D8A01200D6D70101504B512BD890503509
:10427800F66E5135F76E7C0EF6267A0EF722090097
:10428800F5CF0AF00A00F5CF0BF0490E0A24F66EB6
:104298007A0E0B20F76E0800F5504E6F4F6B0AC070
:1042A8004CF10BC04DF10AC008F00BC009F0D890D2
:1042B80008360936D8900836093608C0B4F009C05F
:1042C800B5F0120000808080808001000000DA7F55
:1042D800E57FCE7FF77FEF7FC17FB37FA47F0200AA
:1042E8000000000000008000000000000000FFFF48
:1042F8000000000000008000000000000000FFFF38
:104308000000000000008000000000000000FFFF27
:104318000000000000008000000000000000FFFF17
:104328000F6E400E0D6004D0000E116E010E03D00A
:10433800000E116E020E106E10C012F00F509CECA1
:1043480023F00D503DEC22F01250A9EC22F0000EA3
:10435800936E1204D8B48190020E1218D8B48192C8
:10436800819681840000818800000EC083FF000EC2
:10437800956E00008198818081821200000E106E77
:10438800000E116E000E126E000E136E08A008D0FB
:104398000C5010260D5011220E5012220F501322CD
:1043A800D8900C360D360E360F36D8900B320A32AE
:1043B80009320832085009100A100B10D8A4E6D7A1
:1043C80010C008F011C009F012C00AF013C00BF0B9
:1043D800120086C108F087C109F088C10AF089C1B6
:1043E8000BF06D0E0C6E4E0E0D6EC60E0E6E410E5F
:1043F8000F6EC2EC21F008C086F109C087F10AC02F
:1044080088F10BC089F1390E01018627300E872308
:10441800000E8823000E8923FF0E8815146E7F0E68
:104428008915156E1200000E0C6E000E0B6E10D062
:10443800400E0B24D96E020E0C20DA6EDF6A000ED5
:104448000B24D96E020E0C20DA6EDF6A0B4A0C2A96
:104458000001D751086E096A08500B5C0C50800A9D
:104468000A6E0950800A0A58D8A0E2D7000ED76F02
:1044780012000C6E400E0C600CD0010E0A6E0C502F
:10448800400975EC22F0020E0A6E400E75EC22F01F
:104498001200010E0A6E7F0E75EC22F0020E0A6EF3
:1044A8000C50C00F400975EC22F01200280E0001D4
:1044B800D625D96EDA6A010EDA2208C0DFFF140E9B
:1044C800D625D96EDA6A010EDA220AC0DFFF000E9D
:1044D800D625D96EDA6A010EDA220CC0DFFFD62B98
:1044E80012000B6E0A50A9EC22F0000E936E0A041B
:1044F800D8B48190020E0A18D8B48192819681941A
:104508000000818800000BC083FF000E956E00003C
:10451800819881808182120008C0BAF009C0BBF07E
:104528000AC056F10BC057F10CC054F10DC055F13B
:104538000EC052F10FC053F110C0B8F011C0B9F05D
:1045480012C0B6F013C0B7F01200096E9568000EDD
:10455800936E0904D8B48190020E0918D8B48192D8
:104568008186819400008188000083CF08F08198BB
:1045780008BEF9D78180818212000BD09EA8FED791
:1045880008C0F6FF09C0F7FF0800F5CFADFF084ADD
:10459800092A08C0F6FF09C0F7FF0800F55000090E
:1045A800D8B41200EBD72CC024F02DC025F02EC0B3
:1045B80026F02FC027F03AEC1EF0306E3004D8B445
:1045C80004D00C0E3018D8A402D0010E1200000E30
:1045D80012000BD09EA8FED701C0F6FF02C0F7FF5D
:1045E8000800F5CFADFF014A022A01C0F6FF02C05C
:1045F800F7FF0800F5500009D8B41200EBD70A6E8F
:10460800010EA9EC22F0000E936E819081968184B0
:104618000000818800000AC083FF000E956E00002C
:104628008198818081821200096E080E0A6E000E40
:104638000B6ED89009340B340B6ED890093608509D
:104648000B5CD8A002D008500B5E0A2EF2D70B5094
:104658001200070E136E000E146E7F0E156E000EFC
:1046680008EC21F0080E2D6EE50E2E6E7F0E2F6ED3
:10467800030E74EC20F00000FED7070E136E000E38
:10468800146E7F0E156E000E08EC21F0080E2D6ECC
:10469800CE0E2E6E7F0E2F6E030E74EC20F00000EF
:1046A800FED7400E0001D725D96EDA6A020EDA224B
:1046B80008C0DFFF000ED725D96EDA6A020EDA22AB
:1046C8000AC0DFFFD72B12001E502002F3CF22F0C2
:1046D800F4CF23F01E502102F35023261F5020024E
:1046E800F350232622C01EF023C01FF0120010C072
:1046F80008F011C009F00A6A8E0E0B6E000E0C6EDF
:10470800F6EC1CF008C010F009C011F00AC012F055
:104718001200818A010E0A6E3F0E75EC22F0020E1D
:104728000A6E3F0E75EC22F0000EAAEC23F0120080
:104738000C6E010E0A6E0C50B80975EC22F0020ED0
:104748000A6E0C50B80975EC22F012000C6E010EBE
:104758000A6E0C50C00975EC22F0020E0A6E0C505D
:0A476800C00975EC22F012000606ED
:1072F6000000000000000000000000000000000088
:107306000000000000000000000000000000000077
:107316000000000080404020100C4A8A2CD820E053
:107326000000000000000000000000000000000057
:107336000000000000000000000000000000000047
:107346000000000000000000000000000000000037
:107356000000000000000000000000000000000027
:107366000000000000000000000000000000000017
:107376000000000000000000000000000000000007
:1073860000000000000000000000000000000000F7
:107396000000000003020206087070F1F0787C031A
:1073A6000000808080C04040404040C08080C04097
:1073B6004040602020206040C0808080C06020C0A7
:1073C60080000080C0407EC1010107FC0000000073
:1073D60000000000000000000000000000000000A7
:1073E6000000000000000000000000000000000097
:1073F6000000000000000000000000000000000087
:107406000000000000000000000000007CC4020232
:10741600063CE0FC060301F11F00FC8404040C3862
:10742600EE1B11F00000187878780080C1633E18D2
:10743600F00000003C3C1800C0C0233F3EE0800046
:10744600070C068360300C07FD07030101F161C1DB
:1074560083C67C0000000000000000000000000061
:107466000000000000000000000000000000000016
:107476000000000000000000000000000000000006
:1074860000000000000000000000000000037EC0B5
:107496000000030140C000011F3060C7FC0000006F
:1074A600031E70FF00000000FC1C70C181070CF871
:1074B6008F0000001E1E0E00000183E63C78CF0000
:1074C6000080FE137CC4040C38233C000087FC00BB
:1074D60000000000000000000000000000000000A6
:1074E6000000000000000000000000000000000096
:1074F6000000000000000000000000000000000086
:107506000000000000000000000000000000000372
:1075160006FC8000008FFF040C183020212F3C88C9
:107526008888880F02C42424E7800000C16223E112
:1075360081E31262C202020202F3090404F80103A3
:107546000203C070101133E604040C080C07010096
:107556000000000000000000000000000000000025
:107566000000000000000000000000000000000015
:107576000000000000000000000000000000000005
:107586000000000000000000808080808080800075
:1075960080F011090909CCC4040C18F87E030139DE
:1075A6002CA4E780FE01703870071CFC0300E0E1A4
:1075B60003C0F0800FF88000E0FF0000FFC07018E5
:1075C6000C07819C9F000007F80603071C307E010C
:1075D60002FC00FC0206C4CC989070C000000000BB
:1075E6000000000000000000000000000000000095
:1075F6000000000000000000000000000000000085
:10760600000000000000060F0830E0801878F8F946
:10761600F1E20418E000010170E0C78F1CF0C080A1
:1076260087444447381008060204040F080603017D
:1076360002030003060603003F4180808F8F88788F
:107646000C060300011F10180F7080807C1870C094
:1076560080FFFE01001E1F1F87C3701F0000000071
:107666000000000000000000000000000000000014
:107676000000000000000000000000000000000004
:107686000000000000000000000000073C60C18709
:107696004761180C070306040603000101010000F8
:1076A60000000000000000000000000000000000D4
:1076B60000000000000000000000000000000000C4
:1076C60000000000000000000000000000000000B4
:1076D6000000010202020301010000000000000098
:1076E6000000000000000000000000000000000094
:1076F60000000000000000005F0000000700070017
:10770600147F147F14242A7F2A12231308646236F6
:10771600495522500005030000001C22410000418B
:10772600221C00082A1C2A0808083E0808005030B7
:10773600000008080808080030300000201008047F
:10774600023E5149453E00427F4000426151494652
:107756002141454B311814127F1027454545393CC8
:107766004A494930017109050336494949360649EE
:1077760049291E003636000000563600000008145F
:107786002241141414141441221408000201510950
:1077960006324979413E7E1111117E7F49494936AB
:1077A6003E414141227F4141221C7F494949417F57
:1077B600090901013E414151327F0808087F004115
:1077C6007F41002040413F017F081422417F404015
:1077D60040407F0204027F7F0408107F3E41414102
:1077E6003E7F090909063E4151215E7F0919294656
:1077F600464949493101017F01013F4040403F1F51
:107806002040201F7F2018207F6314081463030480
:10781600780403615149454300007F414102040851
:10782600102041417F000004020102044040404014
:1078360040000102040020545454787F48444438E0
:107846003844444420384444487F38545454180833
:107856007E090102081454543C7F0804047800444D
:107866007D40002040443D00007F10284400417FB9
:1078760040007C041804787C0804047838444444A6
:10788600387C14141408081414187C7C08040408A2
:107896004854545420043F4440203C4040207C1C23
:1078A6002040201C3C4030403C44281028440C50CA
:1078B60050503C4464544C44000836410000007F5C
:1078C6000000004136080008082A1C08081C2A087F
:1078D600080801AA01080038383800000000000036
:1078E6000000000000000000010000060000000487
:1078F600001A00000002000000020000001E0080C6
:107906000106000E00030000003A003002140007D2
:107916000004000100620050001B00010005000188
:10792600006C0000001C00010006000200000000C0
:107936000000000100000000000500A00001000397
:1079460000010001001400A0000300000003000075
:10795600002200A000030000000500000034000023
:10796600000300010007000000390030000300009A
:10797600000800000040000B0C80800B0C80800B80
:107986000C808080808080808080800A80808080DB
:107996008080800B0C80800B0C8080808080800B28
:1079A6000C80800B0C80800B0C80800B0C80800B75
:1079B6000C80800B0C80808080808000000000009E
:1079C600000000FEFE0000000000000000000001B4
:1079D60000000000000000E0E000000202000000DD
:1079E6000000000404000004040000FCFC00000089
:1079F6000000000000000000000000000000000081
:107A0600000000FFFF00000202000001010000006C
:107A16000000000100000000000000ECEC00000186
:107A2600010000000000000202000000000000004B
:107A3600000000FCFC000004040000040400000434
:107A4600040000200A08141E1EFF0114FF02050789
:107A56000714030AFF0100010100000000000000F6
:107A66000000000300000000000000000000060007
:107A760071001D000700000007000A000C0000004E
:107A8600000000007EFFFFFFFF7E00007EFFFFFF7D
:107A9600FF7E00007EFFFFFFFF7E00007EFFFFFFF0
:107AA600FF7E00007EFFFFFFFF7E00007EFFFFFFE0
:107AB600FF7E0000087E3F3F7E0800007EFFFFFF3E
:107AC600FF7E00007EFFFFFFFF7E00007EFFFFFFC0
:107AD600FF7E000000000000000000007EFFFFFFA8
:107AE600FF7E00007EFFFFFFFF7E00007EFFFFFFA0
:107AF600FF7E00007EFFFFFFFF7E00007EFFFFFF90
:107B0600FF7E00007EFFFFFFFF7E00007EFFFFFF7F
:107B1600FF7E00007EFFFFFFFF7E00007EFFFFFF6F
:107B2600FF7E00007EFFFFFFFF7E000000000000DA
:107B3600000000007EFFFFFFFF7E00007EFFFFFFCC
:107B4600FF7E00007EFFFFFFFF7E00007EFFFFFF3F
:107B5600FF7E00007EFFFFFFFF7E00FCC2E19981F1
:107B6600D9C2FC3C42E1D9C1D9423CFFC1828D81D8
:107B76008D423C0E6AF2C141475966FCC2F185A1AD
:107B8600C5C2FC3C42F1C5E185423C0C7442212150
:107B960042740C0F11325C8494B4783C42F2DEE1FC
:107BA600ED633C0F11325C8494B478000000181821
:107BB6000000000D7643212142760DE0100868088A
:107BC6006810E008163541414E221C08163541E181
:107BD6008E6818704E8DA18DB5D21E1E7189919139
:107BE600B9D20C3C42818183854A3D3C428181C1A8
:107BF600A152BC1E2BE3EBE31F070E7EEBE32B2308
:107C0600FFE70E7EFF7E007EFF7E003CDAC25AC290
:107C1600CC50203C5AC2DAC24C502066F9C25A42B5
:107C2600DAC23C7E8181818181817E387CF6FEFCD0
:107C36007A3501000808000014141010100C3C1CC2
:107C46004004100400142810101818181820A41C3A
:107C560024000800382C30303400040008382C305A
:107C66002C303400140838302C343C1C40200000E2
:107C76002400444C4C5400504C4C4800444C104892
:107C86000050104C480058A84C54004410104800AE
:107C9600504C605400382C2C30005C644C5C000066
:107CA600080038000800686C00707400240010108A
:107CB6006048006010105400206C68687878686826
:107CC600687878686C24206C687C7C7C7C7C7C7C06
:107CD6006804800410106868007084840000144CE6
:107CE6008864908C1C0094A0004C6010100010104A
:107CF6009C98006010106000000000010000010167
:107D06000200000100010101000000000000030163
:107D1600000005040000060107070701080808011E
:107D2600000901010C0000010C0D0D010A00000103
:107D36000B0000010E0E0E010F0F0F0107070107C2
:107D460008080108000010000707070708080808C8
:107D560007010107001010000006100000100000C7
:107D66001111110111111201000010010010000182
:107D7600110000011113110100090000001010018B
:107D8600000300001210111111101111000008015A
:107D9600000306100000080000030601000015019C
:107DA600001610000000000000000000FFFFFFFFAB
:107DB600FFFFFFFF00C06020300804040003040436
:107DC60008101010AA55AA55AA55AA55FCFFFCF092
:107DD600FCFFFCF0FF000000000000FFF00C0202B8
:107DE60002020CF00C7442212142740C8080804007
:107DF60040201807FFAA0000000000008D088888B0
:107E0600F8800888FFF7C7E1C7F7FFFF027F7F20EA
:107E160038F82838007C9795977C00003845BA9347
:107E260092BB45381820BE6969BE201830587C7C44
:107E360064645830E0BCD66A566B3D07C0A05C321D
:107E46002121120C387CF6FEFC7A35010138280116
:107E56000240200103382002044820030547280178
:107E66000D40280201382006013828070230000894
:107E760003362805063C1801084028010930000889
:107E86000A3000080D3820060D3828070F36280559
:107E96001036000812362006123628070518180173
:107EA6000A2818010F14180414201802142C180498
:107EB6002310180223281801003319140036271F2F
:107EC600003007010000100B0020280100112801D6
:107ED6000028281E00000000010101010203828320
:107EE600000100010404040405040504070600005B
:107EF600010100000000010108000000000909005E
:107F060089000089000900890A0A8A8A0A0A00008B
:107F160000008A8A010001000B0B0B0B07060B0BF6
:107F26000B0B00000C0C0C0C0000000E010F010CDA
:107F360028282828000028172800002828002800BC
:107F46000615251726002414BE245A00140712000D
:107F56007812B40000005FF0D06130000000B0007D
:107F66005000000000005000A000000030F0A050BB
:107F760000000DFFFFFFFFFFFFFF08FF04FF04FFE8
:107F8600FFFF0104070E10FF0105000304000201B4
:107F960002000103020405000506060606004C372A
:107FA600412050726F6A656374650A0D0044616E04
:107FB60069204D656A6961730A0D004269656C2026
:107FC600506572657A0A0D0047616D65204F7665CA
:107FD600720A0D0073616C74616E646F0A0D005451
:107FE600686520456E640A0D004B697262790A0D58
:097FF60000426F73730A0D0000D4
:020000040030CA
:0E000000FF021900FFA180FF0FC00FE00F40AC
:00000001FF
