:0400000049EF00F0D4
:100008005882F6CF03F0F7CF04F0F8CF05F0F5CF1C
:1000180006F09EAA2CD0AECF07F0610E0718D8A420
:1000280003D0010E0101486F640E0718D8A403D04D
:10003800010E0101496F6A0E0718D8A403D0010EFA
:1000480001014A6F6B0E0718D8A409D0010E0101EF
:100058004B6F8BC101F08CC102F015EC24F0ABA200
:1000680002D0AB98AB88ABA402D0AB9EAB8E9DB24E
:100078009EA201D09E9206C0F5FF05C0F8FF04C0FD
:10008800F7FF03C0F6FF58921100A7EF1FF0000E0C
:100098000F01386F000E396F000E3A6F000E3B6F7C
:1000A8009268000E956E000E936E000E806E000E24
:1000B800836E000E816E000E846E000E966E020E28
:1000C8003C6F020E966E190EC26E000EC16EAF0E18
:1000D800C06E0C0E5D6F000E496F000E5E6FF90E5C
:1000E800BB6EBA84BA90BA829E929D82948C948E8A
:1000F800AB9CAC8AAC98AC9CAC84B886100EAF6E46
:10010800AB8EAC98AB88A50E086E7F0E096EE9EC35
:1001180023F0B40E086E7F0E096EE9EC23F0C20ED0
:10012800086E7F0E096EE9EC23F0F28EF28C9D8A40
:10013800B5EC24F0070E136E000E146E7F0E156ECC
:10014800000E2FEC22F0000ED2EC24F0000E03017A
:100158000B6F000E0A6F000E256F000E246F25BF6F
:1001680006D025513DE1080E245DD8B039D0000EE7
:100178003E6F000E3D6F3EBF06D03E512AE1800E15
:100188003D5DD8B026D03DC30DF0370E0001AB6FF2
:10019800710EAC6F03013D510001AB2703013E51C5
:1001A8000001AC2303010A510001AB2703010B51E5
:1001B8000001AC23ABC0F6FFACC0F7FF0800F5CFD9
:1001C8000EF003012451BCEC22F003013D4B3E2B01
:1001D800D2D7800E0A27000E0B23244B252BBFD71E
:1001E8000B0E0001AC6F260EAB6F5D0EE82EFED72E
:1001F800AB2FFCD7AC2FFAD700D0070E136E000E2A
:10020800146E7F0E156E000E2FEC22F0490E086E4C
:10021800030E096E950E0A6E7E0E0B6EE50E0C6EC1
:100228007D0E0D6E800E0E6E020E0F6E4D0E106E50
:100238007B0E116E450E126E7A0E136EB8EC23F01B
:10024800000E0E6E010E0D6E63EC1DF070C139F0DC
:1002580071C13AF0000E3C6E000E3B6E000E3E6E11
:10026800000E3D6E000E406E000E3F6EC9EC12F09F
:1002780023EE18F0050EDE6AE806FDE223EE1EF016
:10028800050EDE6AE806FDE221EE81F013EE34F099
:10029800050EDBCFE3FFE806FCE20F0E2D6EF00E35
:1002A8002E6E7F0E2F6E020E99EC21F0100E2D6E21
:1002B800F80E2E6E7F0E2F6E050E99EC21F0150E9E
:1002C8002D6ED7C02EF02F6A020E93EC1BF0150E80
:1002D8002D6ED6C02EF02F6A050E93EC1BF0C2824D
:1002E800C2B2FED7C3CF10F0C4CF11F0A3EC24F0F4
:1002F80010C003F311C004F312C005F303C310F0D8
:1003080004C311F005C312F09A0E136E4C0E146E4E
:10031800430E156EF0EC1CF010C000F311C001F391
:1003280012C002F3000E01015B6F010E5A6F5AC131
:100338001EF05BC11FF0000E216E140E206E90ECB3
:1003480024F01EC058F11FC059F1000E0F015E6F56
:100358005D51FC0B5D6F000E0301446F000E436F8F
:1003680044BF06D044514EE1060E435DD8B04AD092
:100378001E0E4325D96E030E4421DA6E500E086E08
:100388001E0E4325E16E030E4421E26EE75040EC59
:1003980024F0DF6E1E0E03014325D96E030E44219F
:1003A800DA6EDF500001AB6FD890AB33D890AB3327
:1003B800D890AB310301086F180E4325D96E030E90
:1003C8004421DA6EDF50166E176A16BE1706000E45
:1003D800196E080E186E73EC20F016500301096FA1
:1003E800180E4325D96E030E4421DA6E000EDBBECB
:1003F80005D009C318F0085165EC21F00301434BFF
:10040800442BAED756C016F057C017F0000E196E21
:10041800100E186E73EC20F016C00EF317C00FF311
:100428000001D251D8A497EF06F0542A0F0E546455
:1004380002D0000E546EBE51BF11D8A404D0543857
:10044800E8461F0B16D0BE05BF11D8A402D0020E75
:1004580010D0020EBE19BF11D8A402D0030E09D0C5
:10046800030EBE19BF11D8A406D05438E8461F0B96
:10047800040F0301346F0001C051C111D8B403D077
:100488000301348D02D00301349D01015C515D11DB
:10049800D8A454A003D0800E0301346FD2EC0EF020
:1004A8000001CF51D8B4C1D0CF51BC27000ECFBF67
:1004B800FF0EBD23060E0301356F040E0001BC2597
:1004C800086E000EBD21096E040ED0250A6E0B6A57
:1004D800000E0B227DEC1CF0AB6FAB510301106FCB
:1004E800116B10291111D8B409D010518FEC19F0E3
:1004F800000E0001CF6F800E0301356F040E00015E
:10050800BC25246E000EBD21256E040ED025266E56
:10051800276A000E27225EEC1FF00001AB6FAB517B
:100528000301066F076B0C0E06190711D8A457D0E4
:10053800040E0001BC25166E000EBD21176E000EBC
:10054800196E080E186E73EC20F016C01EF017C056
:100558001FF0040E0001D025166E176A000E172230
:10056800000E196E080E186E73EC20F016C020F0FD
:1005780017C021F0B5EC20F0000E196E080E186EA9
:10058800040EBC25166E000EBD21176E73EC20F00C
:1005980016C01EF017C01FF0000E216E500E206E00
:1005A8002DEC21F01EC024F01FC025F0040E000120
:1005B800D025166E176A000E1722000E196E080E47
:1005C800186E73EC20F016C026F017C027F013EC55
:1005D8001FF0000E0001CF6F800E0301356F400E33
:1005E80056240001AB6F000E5720AC6FBC51AB5DB9
:1005F800AC51800AAD6FBD51800AAD59D8A010D05A
:10060800F80E5624AB6FFF0E5720AC6FAB51BC5D94
:10061800BD51800AAD6FAC51800AAD59D8B005D034
:10062800000ECF6F800E0301356F0001D151D8B491
:1006380048D0C051C111D8A404D003013F69406912
:1006480005D0000E0301406F010E3F6F3F054011BA
:10065800D8A411D00001BDBF05D0BD510CE1BC0527
:10066800D8B009D003013F510001BC270301405114
:100678000001BD2309D003013F2906E14029D8A480
:1006880003D00001BDAFEED703011E510001BC2508
:100698001E6E000EBD211F6E000E216E500E206EC4
:1006A8002DEC21F01E5003011F6F18C319F3060E1D
:1006B800356F0001D105D8A413D0800E0301356F22
:1006C8000FD0BCC01EF0BDC01FF0000E216E500E32
:1006D800206E2DEC21F01E5003011F6FD0C019F3BE
:1006E8009E0E0301166F010E176F000E276F000E86
:1006F800266F27BF06D027511FE1040E265DD8B00C
:100708001BD020EE06F01651D9261751DA22800E9A
:10071800DE18DE10D8B408D016C325F017C326F0AB
:1007280026C327F012EC09F0100E03011627000E5D
:100738001723264B272BDDD750C016F051C017F0D2
:10074800000E196E0A0E186E73EC20F05650165CE7
:1007580003013B6F575017583C6F5504D8B41AD053
:100768000001CE51D8A416D003013CBF08D03C519B
:1007780004E1150E3B5DD8A002D0564A572A3CBF6B
:1007880006D03C5107E10A0E3B5DD8B003D05606AF
:10079800D8A0570657AE04D0000E576E000E566EFE
:1007A80003013CBF16D03C5104E1380E3B5DD8A094
:1007B80010D056C01EF057C01FF0000E216E0A0E52
:1007C800206E90EC24F0260E1E24506E020E1F2080
:1007D800516E03013CBF05D03C5113E13B05D8B035
:1007E80010D056C01EF057C01FF0000E216E0A0E22
:1007F800206E90EC24F0140E1E24506E000E1F2064
:10080800516E51BE06D0515008E10A0E505CD8B066
:1008180004D0000E516E0A0E506E040E5518D8A45E
:100828004FD068C11EF069C11FF0C6C020F0C7C014
:1008380021F090EC24F01E50565C0301126F1F50FB
:100848005758136FC00E0001C625AB6FFF0EC721A6
:10085800AC6F030112510001AB5DAC51800AAD6F62
:1008680003011351800A0001AD59D8B013D0010E0D
:10087800010168251E6E000E69211F6EC6C020F09A
:10088800C7C021F090EC24F0C00E1E24566EFF0E57
:100898001F20576E030113BF05D0135111E1120534
:1008A800D8B00ED068C11EF069C11FF0C6C020F0D4
:1008B800C7C021F090EC24F01EC056F01FC057F0BE
:1008C80056500001CA5DCB51800AAB6F5750800A61
:1008D800AB59D8B004D0CAC056F0CBC057F0CAC084
:1008E8001EF0CBC01FF0000E216E0A0E206E90EC99
:1008F80024F0300E1E240001AB6F020E1F20AC6FD7
:100908005050AB5DAC51800AAD6F5150800AAD5963
:10091800D8B010D0CAC01EF0CBC01FF0000E216E98
:100928000A0E206E90EC24F0300E1E24506E020E3B
:100938001F20516E0001C5AFB5D05504D8B404D0FE
:10094800040E5518D8A403D0CE05D8A405D0000E9F
:10095800C56F000EC46FA6D05504D8A449D0CA519B
:10096800565C5750800AAB6FCB51800AAB59D8B050
:10097800EED7200E5026030E5122010EC56FF40E3D
:10098800C46F500E5626000E572256C016F057C098
:1009980017F0000E196E100E186E73EC20F016C0CA
:1009A80028F317C029F309D028C32FF003012851D1
:1009B80031EC20F00301284B292B56C016F057C004
:1009C80017F0000E196E100E186E73EC20F0050E5D
:1009D8001626000E172216500301285D2951800A99
:1009E8000001AB6F1750800AAB59D8B05BD0DCD789
:1009F800040E5518D8A456D0CA51565C5750800AD0
:100A0800AB6FCB51800AAB59D8B0A1D70101684B65
:100A1800692BC6C01EF0C7C01FF0000E216E0A0E5B
:100A2800206E90EC24F01E5050261F505122010ECB
:100A38000001C56FF40EC46FC6515626C751572220
:100A480056C016F057C017F0000E196E100E186E2B
:100A580073EC20F016C02AF317C02BF309D02AC371
:100A68002FF003012A5131EC20F003012A4B2B2BE4
:100A780056C016F057C017F0000E196E100E186EFB
:100A880073EC20F0050E1626000E172216500301EF
:100A98002A5D2B51800A0001AB6F1750800AAB59B1
:100AA800D8A0DDD7C5BFA6D0310EC45D020EC5598A
:100AB800D8A0A0D05504D8B404D0040E5518D8A492
:100AC80003D0CE05D8A403D069EC24F093D0550404
:100AD800D8A43FD0E00E5026FC0E5122000EC56F60
:100AE8003C0EC46FB00E5626FF0E572256C016F0A5
:100AF80057C017F0000E196E100E186E73EC20F028
:100B080016C02CF317C02DF309D02CC32FF0030106
:100B18002C5131EC20F003012C4B2D2B56C016F034
:100B280057C017F0000E196E100E186E73EC20F0F7
:100B3800050E1626000E1722165003012C5D2D51A6
:100B4800800A0001AB6F1750800AAB59D8B052D059
:100B5800DCD7040E5518D8A44DD001016807D8A0D9
:100B68006907C6C01EF0C7C01FF0000E216E0A0E2E
:100B7800206E90EC24F01E50505E1F50515A000E0B
:100B88000001C56F3C0EC46FC651565EC751575A17
:100B980056C016F057C017F0000E196E100E186EDA
:100BA80073EC20F016C02EF317C02FF309D02EC314
:100BB8002FF003012E5131EC20F003012E4B2F2B87
:100BC80056C016F057C017F0000E196E100E186EAA
:100BD80073EC20F0050E1626000E1722165003019E
:100BE8002E5D2F51800A0001AB6F1750800AAB5958
:100BF800D8A0DDD7C4C016F0C5C017F0000E196E16
:100C08000A0E186E73EC20F016503F0B0301186F94
:100C1800000E196E0A0E186E50C016F051C017F06B
:100C280073EC20F016C01EF017C01FF0000E216EE6
:100C3800500E206E2DEC21F01E5003011E6F000E89
:100C48003A6F000E466F020E456F46BF08D04651F8
:100C580005E1060E455DD8B0CDD001D0CBD01E0E33
:100C68004525D96E030E4621DA6E3A51020D9E0EC5
:100C7800F324E16E010EF420E26EE6CF1EF0E5CF1C
:100C88001FF0000E216E500E206E2DEC21F01E502C
:100C9800DF6E1E0E03014525D96E030E4621DA6E5E
:100CA800800EDF640FD01E0E4525D96E030E462137
:100CB800DA6E1E0E4525E16E030E4621E26EE75000
:100CC800500FDF6E3A510001AB6FAC6BD890AB3769
:100CD800AC37A00EAB25D96E010EAC21DA6E180E1A
:100CE80003014525E16E030E4621E26EDFCFE7FFE3
:100CF8003A510001AB6FAC6BD890AB37AC37A40E50
:100D0800AB25D96E010EAC21DA6E340E03014525F0
:100D1800E16E030E4621E26EDFCFE7FF080E3A27A9
:100D2800454B462B92D7D205D8A447D01E0E086E45
:100D3800030E096E180E0A6E030E0B6E340E0C6E3F
:100D4800030E0D6E560E0E6E46EC18F0E806D8A48B
:100D580051D01BEC1AF05550D8A403D0000E000156
:100D6800D26F800E0301346F800E356F020E551856
:100D7800D8A440D050C016F051C017F0000E196E1C
:100D88000A0E186E73EC20F0165003011E6FC4C0D3
:100D980016F0C5C017F0000E196E0A0E186E73EC27
:100DA80020F016500301186F1EC31FF31851F80FD7
:100DB800196F5EEC22F0020E1BD0020ED219D8A4D5
:100DC80019D01E0E086E030E096E180E0A6E030E59
:100DD8000B6E340E0C6E030E0D6E560E0E6E46EC38
:100DE80018F0E806D8A406D0030E556003D0000E0C
:100DF8000001D26F56C01EF057C01FF0000E216EC2
:100E0800500E206E2DEC21F01EC0CCF01FC0CDF08E
:100E180056C016F057C017F0000E196E100E186E57
:100E280073EC20F0165003010E5D0F51800A00018B
:100E3800AB6F1750800AAB59D8B0B0D056C016F077
:100E480057C017F0000E196E100E186E73EC20F0D4
:100E58001650040F2F6ECCC016F0CDC017F0000E40
:100E6800196E100E186E73EC20F01650040F31EC4A
:100E780020F00301146962D0000E03010C6F000E0C
:100E8800316F070E306F31BF06D031511BE11F0E95
:100E9800305DD8B017D0D8903035D96E3135DA6E8C
:100EA8009E0ED926010EDA225250DE1806E1535062
:100EB800DE18D8A402D0010E0C6F080E3027000EE1
:100EC8003123E1D70C51D8A437D052C0ABF053C06E
:100ED800ACF00001D890AB37AC37D890AB37AC3713
:100EE800AB51C825AD6FAC51C921AE6FADC0F6FF8F
:100EF800AEC0F7FF0800F550100D5650F3181CE16E
:100F08005750F418D8A418D052C0ABF053C0ACF066
:100F1800D890AB37AC37D890AB37AC37AB51C82586
:100F2800086EAC51C921096E52C00AF0140E0B6E3E
:100F3800030E0C6E4EEC17F0524A532A52C0ABF017
:100F480053C0ACF00001D890AB37AC37D890AB3772
:100F5800AC37AB51C825AD6FAC51C921AE6FADC030
:100F6800F6FFAEC0F7FF0800F550100DF350565CC1
:100F78005750800AAF6FF450800AAF59D8A00ED0EE
:100F880001017C51525C5350800A0001AB6F010192
:100F98007D51800A0001AB59D8A06ED756C016F013
:100FA80057C017F0000E196E100E186E73EC20F073
:100FB80003010E51165C1750800A0001AB6F030144
:100FC8000F51800A0001AB59D8B0CBD00301156985
:100FD80056C016F057C017F0000E196E100E186E96
:100FE80073EC20F016502F6ECCC016F0CDC017F061
:100FF800000E196E100E186E73EC20F0165031ECBE
:1010080020F003D05206D8A05306010E5624000142
:10101800AB6F000E5720AC6F52C0ADF053C0AEF0AE
:10102800D890AD37AE37D890AD37AE37AD51C8256B
:10103800AF6FAE51C921B06FFC0EAF25B16FFF0E77
:10104800B021B26FB1C0F6FFB2C0F7FF0800F5508B
:10105800100DAB51F35CF450800AB36FAC51800AA9
:10106800B359D8B053BE05D05350CCE15204D8B0D0
:10107800C9D75504D8A46FD0FF0E52240301416F7D
:10108800FF0E5320426F45D0000E0D6F000E336FD8
:10109800070E326F33BF06D033511BE11F0E325D8E
:1010A800D8B017D0D8903235D96E3335DA6E9E0E57
:1010B800D926010EDA224151DE1806E14251DE1826
:1010C800D8A402D0010E0D6F080E3227000E33236C
:1010D800E1D70D51D8A419D041C3ABF042C3ACF04D
:1010E8000001D890AB37AC37D890AB37AC37AB51A1
:1010F800C825086EAC51C921096E41C30AF0150E06
:101108000B6E030E0C6E4EEC17F003014107D8A0CE
:10111800420741C3ABF042C3ACF00001D890AB37F3
:10112800AC37D890AB37AC37AB51C825AD6FAC51A5
:10113800C921AE6FADC0F6FFAEC0F7FF0800F5508D
:10114800100D5650F31807E15750F418D8A403D0DF
:10115800030142AF99D753AE04D0000E536E000E70
:10116800526E000E0301486F000E476F48BF06D04D
:1011780048513CE1060E475DD8B038D0340E4725BB
:10118800D96E030E4821DA6EDFBE2CD0180E472523
:10119800D96E030E4821DA6E000EDBBE23D0180E7E
:1011A8004725D96E030E4821DA6EDF50086E340EDB
:1011B8004725D96E030E4821DA6EDF503F0B096EC2
:1011C800340E4725D96E030E4821DA6EDF50400BE6
:1011D8000A6E1E0E4725D96E030E4821DA6EDF50BF
:1011E8009EEC14F00301474B482BC0D70001CDBF3C
:1011F8000AD0CD5104E1500ECC5DD8A004D0000E29
:10120800CD6F000ECC6FCDAF04D0000ECD6F4F0E5A
:10121800CC6FCC519CEC1AF073EF01F020EE04F087
:101228002550D9262650DA22DF502F6E2F50D8A409
:1012380013D054A007D025C0D9FF26C0DAFFDE0698
:10124800000EDD5A20EE06F02550D9262650DA2267
:10125800470EDE6E000EDD6E2F04D8B454A058D0B1
:1012680020EE08F02550D9262650DA22DE04DE10BA
:10127800D8A412D020EE06F02550D9262650DA221E
:10128800080EDE6E000EDD6E25C0D9FF26C0DAFF1F
:10129800DE2A000EDD2211D025C0D9FF26C0DAFFD4
:1012A800DE06000EDD5A20EE06F02550D92626501F
:1012B800DA22480EDE6E000EDD6E20EE0AF02550B2
:1012C800D9262650DA22DE2A000EDD2220EE0AF088
:1012D8002550D9262650DA22010EDBBE19D0010E80
:1012E800DB5004E1110EDE5CD8A012D020EE08F02D
:1012F8002550D9262650DA22010EDE1A000EDD1AF4
:1013080020EE0AF02550D9262650DA22DE6ADD6A58
:10131800020E2F18D8A487D020EE06F02550D92623
:101328002650DA220D0EDE6E000EDD6E20EE0AF07B
:101338002550D9262650DA22DE2A000EDD2220EE9C
:101348000AF02550D9262650DA22010EDBBE07D036
:10135800010EDB500FE13D0EDE5CD8B00BD020EE65
:1013680006F02550D9262650DA220D0EDE6E000E24
:10137800DD6E46D0D8905430010B286E296A0D0EC8
:101388002826000E292220EE06F02550D9262650C0
:10139800DA2228C0DEFF29C0DDFF20EE0AF0255042
:1013A800D9262650DA22010EDBBE07D0010EDB500B
:1013B8000EE1510EDE5CD8B00AD020EE02F02550C6
:1013C800D9262650DA22DE06000EDD5A19D020EE84
:1013D8000AF02550D9262650DA22010EDBBE10D09D
:1013E800010EDB5004E1650EDE5CD8A009D020EECA
:1013F80002F02550D9262650DA22DE2A000EDD22F8
:1014080020EE0AF02550D9262650DA22780EDE186A
:10141800DE10D8A408D020EE0AF02550D926265090
:10142800DA22DE6ADD6A030E2F18D8A449D020EE2E
:101438000AF02550D9262650DA22DE2A000EDD22AF
:1014480020EE0AF02550D9262650DA22010EDBBEFE
:1014580007D0010EDB500EE11F0EDE5CD8B00AD0BB
:1014680020EE02F02550D9262650DA22DE06000E9C
:10147800DD5A09D020EE02F02550D9262650DA226E
:10148800DE2A000EDD2220EE06F02550D926265051
:10149800DA22470EDE6E000EDD6E20EE0AF02550D1
:1014A800D9262650DA223C0EDE18DE10D8A408D041
:1014B80020EE0AF02550D9262650DA22DE6ADD6AA7
:1014C800040E2F18D8A417D05438E8461F0BD8A4F8
:1014D80008D020EE06F02550D9262650DA220F0E25
:1014E80007D020EE06F02550D9262650DA224F0ED6
:1014F800DE6E000EDD6E050E2F18D8A417D05438F6
:10150800E8461F0BD8A408D020EE06F02550D926AF
:101518002650DA22100E07D020EE06F02550D926E4
:101528002650DA22500EDE6E000EDD6E060E2F18E3
:10153800D8A48BD020EE0CF02550D9262650DA22DC
:10154800DE50DE10D8A422D020EE0AF02550D9268D
:101558002650DA22010EDBBE07D0010EDB5016E161
:10156800080EDE5CD8B012D020EE02F02550D92645
:101578002650DA22DE2A000EDD2220EE0AF025505F
:10158800D9262650DA22DE2A000EDD225438E84613
:101598001F0B2C6E2C50D8A408D020EE06F0255036
:1015A800D9262650DA22130E0AD02C04D8A40AD041
:1015B80020EE06F02550D9262650DA22140EDE6ECB
:1015C800000EDD6E20EE08F02550D9262650DA22CE
:1015D800DE2A000EDD2220EE08F02550D9262650FE
:1015E800DA22010EDBBE07D0010EDB500CE1150E2E
:1015F800DE5CD8B008D025C0D9FF26C0DAFFDE06E9
:10160800000EDD5A07D025C0D9FF26C0DAFFDE2A32
:10161800000EDD2220EE08F02550D9262650DA22C9
:10162800280EDE18DE10D8A408D020EE08F02550C9
:10163800D9262650DA22DE6ADD6A20EE0CF0255023
:10164800D9262650DA22DE6ADD6A070E2F18D8A4BA
:101658008FD020EE0CF02550D9262650DA22DECF86
:1016680028F0DDCF29F0D89028362936D8902836AA
:101678002936D89028362936D89028362936AA0E01
:101688002824D96E010E2920DA6E010EDE6E000EB6
:10169800DD6E5440E8423F0B2E6E2E50D8A408D081
:1016A80020EE06F02550D9262650DA22110E22D037
:1016B8002E04D8A408D020EE06F02550D9262650AE
:1016C800DA22510E17D0020E2E18D8A408D020EE18
:1016D80006F02550D9262650DA22520E0BD0030EDA
:1016E8002E18D8A40AD020EE06F02550D926265068
:1016F800DA22120EDE6E000EDD6E20EE0AF02550A4
:10170800D9262650DA22DE2A000EDD2220EE0AF043
:101718002550D9262650DA22010EDBBE07D0010E4D
:10172800DB500CE1150EDE5CD8B008D025C0D9FF1F
:1017380026C0DAFFDE06000EDD5A07D025C0D9FF25
:1017480026C0DAFFDE2A000EDD2220EE0AF0255040
:10175800D9262650DA22280EDE18DE10D8A408D0A2
:1017680020EE0AF02550D9262650DA22DE6ADD6AF4
:10177800080E2F18D8A463D020EE06F02550D926DD
:101788002650DA22470EDE6E000EDD6E20EE0AF0DD
:101798002550D9262650DA22DE50DE10D8A42ED0C5
:1017A80020EE02F02550D9262650DA22DE2A000E35
:1017B800DD2220EE02F02550D9262650DA22C4C0B8
:1017C80016F0C5C017F0000E196E0A0E186E73ECED
:1017D80020F0DE50165C1750800A2A6EDE50800A10
:1017E8002A58D8B02CD020EE0AF02550D9262650F9
:1017F800DA22010EDE6E000EDD6E21D020EE0AF038
:101808002550D9262650DA22010EDBBE07D0010E5C
:10181800DB500EE1140EDE5CD8B00AD020EE0AF0E0
:101828002550D9262650DA22DE2A000EDD2207D0DE
:1018380025C0D9FF26C0DAFFDE06000EDD5A090EE4
:101848002F18D8A42DD020EE06F02550D9262650E2
:10185800DA22110EDE6E000EDD6E20EE08F0255045
:10186800D9262650DA22DE2A000EDD2220EE08F0E4
:101878002550D9262650DA22010EDBBE11D0010EE2
:10188800DB5004E1100EDE5CD8A00AD020EE02F096
:101898002550D9262650DA22020EDE26000EDD2239
:1018A8000A0E2F18D8A411D020EE06F02550D926FC
:1018B8002650DA22190EDE6E000EDD6E25C0D9FF25
:1018C80026C0DAFFDE06000EDD5A0B0E2F18D8A44C
:1018D80049D020EE0AF02550D9262650DA22DE2AF1
:1018E800000EDD2220EE0AF02550D9262650DA22F5
:1018F800010EDBBE07D0010EDB500EE1100EDE5CE0
:10190800D8B00AD020EE02F02550D9262650DA2287
:10191800DE06000EDD5A09D020EE02F02550D92649
:101928002650DA22DE2A000EDD2220EE06F02550AF
:10193800D9262650DA22470EDE6E000EDD6E20EE26
:101948000AF02550D9262650DA221E0EDE18DE109F
:10195800D8A408D020EE0AF02550D9262650DA223D
:10196800DE6ADD6A0C0E2F18D8A412D020EE06F01D
:101978002550D9262650DA221A0EDE6E000EDD6EAC
:1019880025C0D9FF26C0DAFFFE0EDE26FF0EDD22B7
:101998000D0E2F18D8A40AD020EE06F02550D9260F
:1019A8002650DA221B0EDE6E000EDD6E0E0E2F188C
:1019B800D8A40AD020EE06F02550D9262650DA22DF
:1019C8001B0EDE6E000EDD6E0F0E2F18D8A40AD087
:1019D80020EE06F02550D9262650DA221D0EDE6E9E
:1019E800000EDD6E100E2F18D8A40AD020EE06F0D7
:1019F8002550D9262650DA22200EDE6E000EDD6E26
:101A0800110E2F18D8A40AD020EE06F02550D9269A
:101A18002650DA221F0EDE6E000EDD6E120E2F1813
:101A2800D8A40AD020EE06F02550D9262650DA226E
:101A38001F0EDE6E000EDD6E130E2F18D8A40AD00E
:101A480020EE06F02550D9262650DA221C0EDE6E2E
:101A5800000EDD6E140E2F18D8A43ED020EE06F02E
:101A68002550D9262650DA22150EDE6E000EDD6EC0
:101A780020EE08F02550D9262650DA22DE2A000E5C
:101A8800DD2220EE08F02550D9262650DA22010E54
:101A9800DBBE22D0010EDB5004E13D0EDE5CD8A097
:101AA8001BD0040E1E6E090E1F6E15EC23F014C019
:101AB80016F015C017F0020E196E490E186E73EC69
:101AC80020F0165001EC19F020EE08F02550D92628
:101AD8002650DA22DE6ADD6A1E0E2F18D8A4D6D068
:101AE80020EE0AF02550D9262650DA22DE50DE10E4
:101AF800D8A410D020EE02F02550D9262650DA229C
:101B080010EE0AF02550E1262650E222DECFE6FF4D
:101B1800DDCFE5FF20EE08F02550D9262650DA2241
:101B2800010EDBBE07D0010EDB501EE11E0EDE5C8F
:101B3800D8B01AD025C0D9FF26C0DAFFDE06000EBD
:101B4800DD5A070E546408D020EE06F02550D92639
:101B58002650DA22160E1FD020EE06F02550D92680
:101B68002650DA22170E17D020EE08F02550D92675
:101B78002650DA22010EDBBE07D0010EDB500FE142
:101B88002D0EDE5CD8B00BD020EE06F02550D926FD
:101B98002650DA22180EDE6E000EDD6E6ED020EEB4
:101BA80008F02550D9262650DA22010EDBBE07D0D0
:101BB800010EDB5021E14A0EDE5CD8B01DD0070EC5
:101BC800546408D020EE06F02550D9262650DA2293
:101BD800560E07D020EE06F02550D9262650DA22D8
:101BE800570EDE6E000EDD6E25C0D9FF26C0DAFF67
:101BF800DE2A000EDD2241D015EC23F014C016F0C9
:101C080015C017F02A0E196EAB0E186E73EC20F083
:101C18001638F00B2B6E20EE0AF02550D9262650E8
:101C2800DA22DECF28F0DDCF29F02B50285E000E17
:101C3800295A20EE02F02550D9262650DA2228C04B
:101C4800DEFF29C0DDFF20EE08F02550D9262650FA
:101C5800DA22DE6ADD6A20EE02F02550D926265007
:101C6800DA22DF501E6E0A0E1F6E25C0D9FF26C06D
:101C7800DAFFDF50F80F01EC19F020EE08F02550DC
:101C8800D9262650DA22DE2A000EDD221F0E2F1852
:101C9800D8A43DD020EE06F02550D9262650DA22C9
:101CA800130EDE6E000EDD6E20EE0AF02550D926EA
:101CB8002650DA22DE2A000EDD2220EE0AF0255018
:101CC800D9262650DA22010EDBBE21D0010EDB50C8
:101CD80004E13D0EDE5CD8A01AD020EE02F02550BB
:101CE800D9262650DA22DF501E6E0C0E1F6E25C034
:101CF800D9FF26C0DAFFDF50F80F01EC19F020EE0B
:101D08000AF02550D9262650DA22DE6ADD6A25C077
:101D1800D9FF26C0DAFFDF50286E5650285C2D6E9A
:101D28002D50800A900FD8A024D02D50800A370F4C
:101D3800D8B01FD020EE02F02550D9262650DA223E
:101D4800010EDBBE16D0010EDB5003E1DE04D8A085
:101D580010D020EE02F02550D9262650DA22010EA6
:101D6800DBBE1200010EDB5004E1390EDE5CD8A0A8
:101D7800120020EE06F02550D9262650DA22800ED1
:101D8800DE6E000EDD6E20EE0EF02550D9262650B0
:101D9800DA22FF0EDE6EFF0EDD6E1200000E196EE7
:101DA8000A0E186E50C016F051C017F073EC20F0F0
:101DB80016C01EF017C01FF0000E216E500E206EC8
:101DC8002DEC21F01EC0A7F01FC0A8F0C4C016F06B
:101DD800C5C017F0000E196E0A0E186E73EC20F0CD
:101DE8003F0E16140001A96FAA6B50C016F051C01F
:101DF80017F0000E196E0A0E186E73EC20F016C05C
:101E0800A5F017C0A6F0040E0001A525086E000E67
:101E1800A621096E040EA9250A6E000EAA210B6ED2
:101E28007DEC1CF0A06FA029D8B40ED0A0518B6F08
:101E38008C6BD8908B378C37A20E8B25D96E010E00
:101E48008C21DA6EDF50A06FA029D8B41BD0010115
:101E58005C515D11D8A416D0000E5D6F1E0E5C6F2C
:101E6800FF0E0001C36FEC0EC26FD707150E2D6E63
:101E7800D7C02EF02F6A020E93EC1BF0D751D8B4BE
:101E880069EC24F001015C515D11D8B403D05C0702
:101E9800D8A05D07000E656F000E646F000E00018C
:101EA800986F0A0E976FBE51BF11D8B404D0000EB8
:101EB800986F050E976F020EC227000EC323C2C08B
:101EC80016F0C3C017F0000E196E0A0E186E73ECE8
:101ED80020F00001A9511626AA511722080E16242F
:101EE800A16F000E1720A26FA7C02CF0A8C02DF07C
:101EF800A1C02EF0A2C02FF0FFEC23F0E806D8B462
:101F080062D0C2C016F0C3C017F0000E196E0A0ED8
:101F1800186E73EC20F00001A9511626AA51172259
:101F2800080E1624A16F000E1720A26F070EA72512
:101F38002C6E000EA8212D6EA1C02EF0A2C02FF08D
:101F4800FFEC23F0E806D8B43ED0C2C016F0C3C0F8
:101F580017F0000E196E0A0E186E73EC20F00001CF
:101F6800A9511624A16FAA511720A26FA7C02CF05F
:101F7800A8C02DF0A1C02EF0A2C02FF0FFEC23F0D6
:101F8800E806D8B420D0C2C016F0C3C017F0000EBF
:101F9800196E0A0E186E73EC20F00001A951162470
:101FA800A16FAA511720A26F070EA7252C6E000E4D
:101FB800A8212D6EA1C02EF0A2C02FF0FFEC23F0B7
:101FC800E806D8A425D0000E196E500E186E460EDD
:101FD8000001C425166E000EC521176E73EC20F0A3
:101FE80016C01EF017C01FF0000E216E500E206E96
:101FF80090EC24F01EC0C4F01FC0C5F0000E000114
:10200800C36F000EC26F000E0101656F010E646F91
:102018000001C3BF0AD0C35104E1280EC25DD8A095
:1020280004D0000EC36F280EC26FC251C427C3511B
:10203800C523C4C016F0C5C017F0000E196E0A0EED
:10204800186E73EC20F03F0E16140001A96FAA6BEE
:10205800000E9D6F000E9A6F000E996F000E9C6F18
:10206800000E9B6F040EA725246E000EA821256E76
:10207800040EA925266E000EAA21276E5EEC1FF01D
:10208800080AD8A42DD0020E00019D6F50C016F08A
:1020980051C017F0000E196E0A0E186E73EC20F07E
:1020A800040E1626000E1722F80E16140001996F5A
:1020B800FF0E17149A6FC4C016F0C5C017F0000EB3
:1020C800196E0A0E186E73EC20F0040E1626000E18
:1020D8001722F80E161400019B6FFF0E17149C6F41
:1020E80080BA04D001014B51D8B43CD001016051F1
:1020F8006111D8A432D064516511D8B409D0000157
:10210800BE05BF11D8B404D0FF0EC36FE20E10D0C5
:102118000001BFBF06D0BF510CE1020EBE5DD8B0B2
:1021280008D0000EBF6F010EBE6FFF0EC36FEC0E1E
:10213800C26F040EA725246E000EA821256E040E7A
:10214800A925266E000EAA21276E5EEC1FF0060A4E
:10215800D8A403D0010E00019D6F000E0101616F2C
:10216800010E03D0000E616F000E606F80B003D0C7
:102178004951D8B431D0020E0001BE19BF11D8B4EC
:102188002BD0080EA7252C6E000EA8212D6E070E49
:10219800A9252E6E000EAA212F6EFFEC23F0E8066B
:1021A800D8B415D0080E0001A7252C6E000EA82162
:1021B8002D6EA9C02EF0AAC02FF0FFEC23F0E80680
:1021C800D8B405D000019751502698515122000EDD
:1021D8000001C16F000EC06F80B404D001014851E6
:1021E800D8B431D0020E0001BE19BF11D8B42BD01B
:1021F800FF0EA7252C6EFF0EA8212D6E070EA92510
:102208002E6E000EAA212F6EFFEC23F0E806D8B43C
:1022180015D0FF0E0001A7252C6EFF0EA8212D6EEC
:10222800A9C02EF0AAC02FF0FFEC23F0E806D8B41E
:1022380005D000019751505E9851515A000E000187
:10224800C16F010EC06F020E0001BE19BF11D8A4E4
:102258009FD0D151D8A49CD0C051C111D8A404D0CA
:10226800000EA46F070E03D0FF0EA46FF90EA36F24
:10227800A351A5258B6FA451A6218C6F070E8B2522
:10228800086E000E8C21096E040EA9250A6E000E38
:10229800AA210B6E7DEC1CF08D6F8D51936F946BA2
:1022A800A351A525086EA451A621096E040EA925DF
:1022B8000A6E000EAA210B6E7DEC1CF08B6F8B5101
:1022C800956F966BA351A7258B6FA451A8218C6F8E
:1022D800040E8B25246E000E8C21256E040EA92574
:1022E800266E000EAA21276E5EEC1FF000018D6F8E
:1022F8008D519E6F9F6B93299411D8B408D0A5C0B7
:1023080087F0A6C088F09351C0EC1DF041D0952904
:102318009611D8B408D0A5C087F0A6C088F095510A
:10232800C0EC1DF035D09FBF33D09F5104E10C0E97
:102338009E5DD8A02DD09FBF06D09F5129E1150ED4
:102348009E5DD8B025D0A5C030F0A6C031F0A3510D
:10235800A7258B6FA451A8218C6F040E8B25326E94
:10236800000E8C21336E040EA925346E000EAA21AE
:10237800356EA351A5258D6FA451A6218E6F040E2D
:102388008D25366E000E8E21376E9E510AEC1CF09C
:1023980080B60CD001015BBF06D05B5107E11C0E73
:1023A8005A5DD8B003D04A51D8B44DD001015E511E
:1023B8005F11D8A443D00001BE05BF11D8A404D032
:1023C800000EBF6F000E07D0BE51BF11D8A404D0B5
:1023D800000EBF6F020EBE6F030EBE19BF11D8A448
:1023E8002DD0000EBF6F000EBE6F50C016F051C04A
:1023F80017F0000E196E0A0E186E73EC20F016C056
:10240800BCF017C0BDF0C4C016F0C5C017F0000E70
:10241800196E0A0E186E73EC20F016500001D06F7A
:10242800C051C111D8A404D0000E926F030E03D07E
:10243800FF0E926FFD0E916F91C0CFF0000E01015B
:102448005F6F010E11D0020E0001BE19BF11D8A492
:1024580007D0D151D8A404D0000EBF6F000EBE6FB4
:10246800000E01015F6F000E5E6F0001D151D8B4FC
:102478000CD0D107D151D8A408D0000EBF6F030EDD
:10248800BE6F01018051CCEC21F000019D05D8A45C
:1024980003D01BEC1AF06FD0020E9D19D8A46BD094
:1024A800280E5024166E000E5120176E010E196E5C
:1024B800400E186E73EC20F016C08FF017C090F025
:1024C80099C0BCF09AC0BDF000019B51F80FD06FC5
:1024D80099C01EF09AC01FF0000E216E0A0E206EE1
:1024E80090EC24F01EC050F01FC051F09BC01EF0AD
:1024F8009CC01FF0000E216E0A0E206E90EC24F096
:102508001EC0C4F01FC0C5F0010E0001D26F020E3C
:10251800FFEC21F0040E0001A725166E000EA8217D
:10252800176E000E196E080E186E73EC20F0D89016
:1025380016361736D89016361736D89016361736F8
:10254800800E162400018B6F020E17208C6F040E6C
:10255800A925166E000EAA21176E000E196E080E18
:10256800186E73EC20F0165000018B25D96E1750A9
:102578008C21DA6EDF6A000E0101486F000E496F88
:10258800000E4A6F000E4B6F120039C0D3F03FECBB
:1025980023F0000EC36F000EC26F000E536E000EC4
:1025A800526E000EBF6F000EBE6F39C01EF03AC0EB
:1025B8001FF0000E216E060E206E90EC24F01EC057
:1025C80039F01FC03AF0000E576E000E566ED890C4
:1025D8003934F66E3A34F76E2B0EF626770EF7225C
:1025E8000900F5CF41F00900F5CF42F02F0E412444
:1025F800436E790E4220446E01016E5143247E6F72
:102608006F5144207F6F39C041F03AC042F0D890F2
:1026180041364236020E4126000E42222B0E41243C
:10262800F66E770E4220F76E0900F5CFCAF00A0061
:10263800F5CFCBF039C041F03AC042F0D8904136DE
:102648004236040E4126000E42222B0E4124F66E1D
:10265800770E4220F76E0900F5CF43F00900F5CF59
:1026680044F06C5143266D514422D8904336443689
:10267800D89043364436350E43240001C86F7D0E8A
:102688004420C96F39C041F03AC042F0D890413671
:102698004236060E4126000E42222B0E4124F66ECB
:1026A800770E4220F76E0900F5CF7CF10A00F5CFCE
:1026B8007DF139C041F03AC042F0D89041364236F7
:1026C800080E4126000E42222B0E4124F66E770E8C
:1026D8004220F76E01016A510900F5244B6E6B51D7
:1026E8000900F5204C6E850E4B247A6F7F0E4C2026
:1026F8007B6F650E4B24786F7F0E4C20796F250E0B
:102708004B24766F7F0E4C20776F050E4B24746F29
:102718007F0E4C20756F450E4B24726F7F0E4C2038
:10272800736F39C041F03AC042F0D8904136423612
:102738000A0E4126000E42222B0E4124F66E770E19
:102748004220F76E0800F5CF55F0030E556420D0EF
:102758005550416E426A060ED89041364236E82EF0
:10276800FBD7800E41240001C66FFF0E4220C76FC1
:10277800040E556E3BC016F03CC017F0C6C018F0EA
:10278800C7C019F073EC20F016C068F117C069F1E2
:102798003BC01EF03CC01FF0000E216E0A0E206EDA
:1027A80090EC24F01EC050F01FC051F03DC01EF048
:1027B8003EC01FF0000E216E0A0E206E90EC24F031
:1027C8001EC0C4F01FC0C5F03FC056F040C057F04F
:1027D800000E486E030E476ED8904734D96E4834C1
:1027E800DA6E9E0ED926010EDA22800EDE6E000EFB
:1027F800DD6E080E4726000E482248BEEDD7485029
:1028080004E1200E475CD8A0E7D756C016F057C0A1
:1028180017F0000E196E100E186E73EC20F016C02B
:1028280049F017C04AF007D049C02FF0495031ECA1
:1028380020F0494A4A2A56C016F057C017F0000E31
:10284800196E100E186E73EC20F0050E1626000E89
:1028580017221650495C4A50800A416E1750800A68
:102868004158D8A0E1D7466837D052C041F053C08C
:1028780042F0D89041364236D890413642364150DF
:10288800C825436E4250C921446E43C0F6FF44C078
:10289800F7FF0800F550100D5650F3181BE157507C
:1028A800F418D8A417D052C041F053C042F0D890C1
:1028B80041364236D890413642364150C825086ED6
:1028C8004250C921096E52C00AF0460E0B6E0C6ABE
:1028D8004EEC17F0524A532A01017C51525C535076
:1028E800800A416E7D51800A4158D8B0120052C00A
:1028F80041F053C042F0D89041364236D890413624
:10290800423641500001C825436E4250C921446EE9
:1029180043C0F6FF44C0F7FF0800F550100DF35010
:10292800565C5750800A456EF450800A4558D8A026
:1029380012009BD7106E0850070B186E08C00BF0DA
:10294800D8900B32D8900B32D8900B321050080D1B
:10295800F3CF0CF0F4CF0DF00C500001BA250E6E39
:102968000D50BB210F6E0B500E24156E000E0F205C
:10297800166E0950080DF3CF09F0000E1A6E000EFE
:10298800196E0A50D8A470D018C00BF00950B6259B
:102998000C6E000EB7210D6E19500C261A500D2220
:1029A8000CC0F6FF0DC0F7FF0800F5CF0EF00B2A9C
:1029B80002D0D8900E360B2EFCD70E50136E18503E
:1029C80008080B6E09500001B6250C6E000EB721E1
:1029D8000D6E19500C261A500D220CC0F6FF0DC0B2
:1029E800F7FF0800F5CF0EF00B2A02D0D8900E3270
:1029F8000B2EFCD70E50146E18C00BF009500001B6
:102A0800B8250C6E000EB9210D6E19500C261A50FF
:102A18000D220CC0F6FF0DC0F7FF0800F5CF0EF031
:102A28000B2A02D0D8900E360B2EFCD70E50116E02
:102A3800185008080B6E09500001B8250C6E000EDE
:102A4800B9210D6E19500C261A500D220CC0F6FF34
:102A58000DC0F7FF0800F5CF0EF00B2A02D0D89072
:102A68000E320B2EFCD77FD018C00BF00950B625BC
:102A78000C6E000EB7210D6E19500C5E1A500D5ACF
:102A8800070E0C26000E0D220CC0F6FF0DC0F7FF36
:102A98000800F5CF0EF00B2A02D0D8900E360B2E78
:102AA800FCD70E50136E185008080B6E0950000121
:102AB800B6250C6E000EB7210D6E19500C5E1A501B
:102AC8000D5A070E0C26000E0D220CC0F6FF0DC085
:102AD800F7FF0800F5CF0EF00B2A02D0D8900E327F
:102AE8000B2EFCD70E50146E18C00BF009500001C5
:102AF800B8250C6E000EB9210D6E19500C5E1A50D7
:102B08000D5A070E0C26000E0D220CC0F6FF0DC044
:102B1800F7FF0800F5CF0EF00B2A02D0D8900E363A
:102B28000B2EFCD70E50116E185008080B6E09506A
:102B38000001B8250C6E000EB9210D6E19500C5EFF
:102B48001A500D5A070E0C26000E0D220CC0F6FF67
:102B58000DC0F7FF0800F5CF0EF00B2A02D0D89071
:102B68000E320B2EFCD70E50126E15C0D9FF16C0B0
:102B7800DAFFDF50176E1350FF0A1714176E17503D
:102B88001110176E15C0D9FF16C0DAFF17C0DFFF86
:102B9800154A162A15C0D9FF16C0DAFFDF50176E7E
:102BA8001450FF0A1714176E17501210176E15C01D
:102BB800D9FF16C0DAFF17C0DFFF780E0001BA256B
:102BC8000B6E020EBB210C6E0B50155C0C50165888
:102BD800D8A004D0800E155E020E165A070E1526D0
:102BE800000E1622194A1A2A1ABECBD61A5005E127
:102BF800080E195CD8B01200C4D61200D8901C3642
:102C08001D36D8901C361D361AC020F01BC021F086
:102C1800D8902036213618C022F019C023F0223A65
:102C2800233AF00E231622500F0B2312F00E221611
:102C3800800E2224246E020E2320256E2050242488
:102C4800296E215025202A6E000E2E6E000E2D6E44
:102C58002E342E30216E2D30206E20502B6E2D50AC
:102C6800010B2C6E950E206E7E0E216E1C502026B8
:102C78001D5021222D5020262E50212220C0F6FF43
:102C880021C0F7FF0800F5CF28F029C0D9FF2AC0D6
:102C9800DAFF28C0DFFF289E0C0E2818D8A446D0DB
:102CA8001EC020F01FC021F0D890203621362B50AE
:102CB8002024086E000E2120096E1AC022F01BC0C5
:102CC80023F0D890223623362C5022240A6E000E88
:102CD80023200B6EECEC1FF0266E2604D8A406D039
:102CE80029C0D9FF2AC0DAFFDF6A20D0020E2618D1
:102CF800D8A41CD01EC020F01FC021F0D8902036C8
:102D080021362B502024086E000E2120096E1AC08F
:102D180022F01BC023F0D890223623362C502224D0
:102D28000A6E000E23200B6E7DEC24F00C0E286436
:102D38004CD01EC020F01FC021F0D890203621367C
:102D48002B502024086E000E2120096E1AC022F094
:102D58001BC023F0D890223623362C5022240A6E2A
:102D6800000E23200B6ED3C00CF00D6A70EC1EF021
:102D7800276E2704D8A406D029C0D9FF2AC0DAFFB5
:102D8800DF6A23D0020E2718D8A41FD01EC020F057
:102D98001FC021F0D890203621362B502024086EF1
:102DA800000E2120096E1AC022F01BC023F0D89013
:102DB800223623362C5022240A6E000E23200B6E56
:102DC800D3C00CF00D6A82EC23F0294A2A2A2D047C
:102DD8002E10D8A404D0060E2926000E2A222D4A29
:102DE8002E2A2EBE35D72E5004E1040E2D5CD8A015
:102DF8002FD7D8901834086E1934096ED8901A3421
:102E08000A6E1B340B6E1CEC1BF018C020F019C0A6
:102E180021F0D89020362136010E2024086E000EAD
:102E28002120096ED8901A340A6E1B340B6E1CECE4
:102E38001BF0D8901834086E1934096E1AC020F0A7
:102E48001BC021F0D89020362136010E20240A6EAE
:102E5800000E21200B6E1CEC1BF018C020F019C0CE
:102E680021F0D89020362136010E2024086E000E5D
:102E78002120096E1AC022F01BC023F0D8902236F8
:102E88002336010E22240A6E000E23200B6E1CEC42
:102E98001BF01200000E126E000E116ED890113445
:102EA800D96E1234DA6EA40ED926010EDA22800EFB
:102EB800DE18DE10D8A4D8D0010E08240D6E000E3E
:102EC80009200E6E0DC0F6FF0EC0F7FF0800F55082
:102ED80056240F6E000E5720106ED8901134D96EFC
:102EE8001234DA6E9E0ED926010EDA220FC0DEFFEA
:102EF80010C0DDFF020E08240D6E000E09200E6EB4
:102F08000DC0F6FF0EC0F7FF0800F5500F6E106AEF
:102F1800D8901134D96E1234DA6EA00ED926010E6B
:102F2800DA220FC0DEFF10C0DDFF030E08240D6E8D
:102F3800000E09200E6E0DC0F6FF0EC0F7FF080048
:102F4800F5500F6E106AD8901134D96E1234DA6EBB
:102F5800A20ED926010EDA220FC0DEFF10C0DDFF57
:102F6800D8901134D96E1234DA6EA40ED926010E17
:102F7800DA22DE6ADD6AD8901134D96E1234DA6E3C
:102F8800A60ED926010EDA22DE6ADD6AD89011343F
:102F9800D96E1234DA6EA80ED926010EDA22DE6A4C
:102FA800DD6AD8901134D96E1234DA6EAA0ED92699
:102FB800010EDA22DE6ADD6A0A500D6E0E6AD890BA
:102FC8001134D96E1234DA6EAC0ED926010EDA221B
:102FD8000DC0DEFF0EC0DDFF030E08240D6E000ECF
:102FE80009200E6E0DC0F6FF0EC0F7FF0800F55061
:102FF800070AD8A414D00BC0D9FF0CC0DAFFDF50E1
:103008000D6E0E6AD8901134D96E1234DA6EAA0E8B
:10301800D926010EDA220DC0DEFF0EC0DDFF030E39
:1030280008240D6E000E09200E6E0DC0F6FF0EC0AE
:10303800F7FF130E0800F56410D0030E08240D6E78
:10304800000E09200E6E0DC0F6FF0EC0F7FF1E0E13
:103058000800F56002D0010ECE6F0BC0D9FF0CC07E
:10306800DAFF11C0DFFF1200080E1126000E12222F
:1030780012BE14D7125005E1200E115CD8B0120010
:103088000DD71200000E156E000E146EA30E0F6EF3
:10309800780E106EB4510F26B551102214500F2619
:1030A800155010220FC0F6FF10C0F7FF0800F5CF2B
:1030B80011F014500824D96E15500920DA6E1150F9
:1030C800DF265F0E0F6E780E106EB4510F26B551C5
:1030D800102214500F26155010220FC0F6FF10C0F2
:1030E800F7FF0800F5CF11F014500A24D96E1550D7
:1030F8000B20DA6E1150DF261B0E0F6E780E106E45
:10310800B4510F26B551102214500F261550102215
:103118000FC0F6FF10C0F7FF14500C24D96E1550DD
:103128000D20DA6E0800F5CFDFFF144A152A15BE08
:10313800ADD7155004E1040E145CD8A0A7D70E50E3
:10314800D96EDA6A110E01014C25F66E790E4D2101
:10315800F76E0800F550DE26000EDD224E07D8A0D7
:103168004F074E514F11D8A446D04C4B4D2B040E4F
:103178000001B427000EB523000E136E000E126E68
:103188001B0E0F6E780E106EB4510F26B55110221B
:1031980012500F26135010220FC0F6FF10C0F7FF71
:1031A80012500C24D96E13500D20DA6E0800F5CF9A
:1031B800DFFF124A132A13BEE3D7135004E1040EAB
:1031C800125CD8A0DDD7FF0E01014C25F66E780EF3
:1031D8004D21F76E0800F550FF0AD8A402D0010E61
:1031E8001200FF0E4C25F66E780E4D21F76E080082
:1031F800F5504E6F4F6B000E1200226E000E246EBB
:10320800000E236ED8902334D96E2434DA6EA40EBF
:10321800D926010EDA22800EDE18DE10D8A46DD071
:1032280022505624206E000E5720216ED890233449
:10323800D96E2434DA6E9E0ED926010EDA2220C009
:10324800DEFF21C0DDFF1E50206E216AD890233496
:10325800D96E2434DA6EA00ED926010EDA2220C0E7
:10326800DEFF21C0DDFF1F50206E216AD890233475
:10327800D96E2434DA6EA20ED926010EDA2220C0C5
:10328800DEFF21C0DDFFD8902334D96E2434DA6EF6
:10329800A40ED926010EDA22DE6ADD6AD89023341C
:1032A800D96E2434DA6EA60ED926010EDA22DE6A29
:1032B800DD6AD8902334D96E2434DA6EA80ED92664
:1032C800010EDA22DE6ADD6AD8902334D96E2434FE
:1032D800DA6EAA0ED926010EDA22DE6ADD6AD890E5
:1032E8002334D96E2434DA6EAC0ED926010EDA22D4
:1032F800FF0EDE6E000EDD6E1200080E2326000E95
:10330800242224BE7FD7245005E1200E235CD8B0A8
:10331800120078D712004D6E4D500001836F846BF8
:10332800D89083378437A20E8325D96E010E842165
:10333800DA6E010EDBBE07D0010EDB5025E1140E5C
:10334800DE5CD8B021D04D50836F846BD890833722
:103358008437A40E8325D96E010E8421DA6E800E7F
:10336800DE6E000EDD6E4D50836F846BD890833710
:103378008437AC0E8325D96E010E8421DA6EFF0ED8
:10338800DE6EFF0EDD6E1200D607150E2D6ED6C04E
:103398002EF02F6A050E93EC1BF0D651D8A412001C
:1033A8004D50836F846BD89083378437A20E832562
:1033B800D96E010E8421DA6E010EDBBE07D0010E34
:1033C800DB5007E11E0EDE5CD8B003D055EC24F0CC
:1033D80012004D50836F846BD89083378437A40EC6
:1033E8008325D96E010E8421DA6E800EDE6E000E02
:1033F800DD6E4D50836F846BD89083378437AC0E65
:103408008325D96E010E8421DA6EFF0EDE6EFF0E63
:10341800DD6E1BEC1AF0060E0001D66F150E2D6E30
:10342800D6C02EF02F6A050E93EC1BF0120050C088
:1034380016F051C017F0000E196E0A0E186E73ECD4
:1034480020F016C068F017C069F0000E00016B6F1D
:10345800000E6A6F02D06A4B6B2B6A510101782506
:103468000001606F6B51010179210001616F60C03B
:10347800F6FF61C0F7FF0800F550100D6851F35CC6
:10348800F450800A626F6951800A6259D8A0E3D764
:103498006A5101017A250001606F6B5101017B219E
:1034A8000001616F60C0F6FF61C0F7FF0800F550CA
:1034B80001017025396E000E71213A6E00016A51C2
:1034C800010176250001626F6B510101772100012E
:1034D800636F62C0F6FF63C0F7FF0800F5503B6EEC
:1034E8003C6A6A51010174250001646F6B51010146
:1034F80075210001656F64C0F6FF65C0F7FF08001D
:10350800F5503D6E3E6A6A51010172250001666FF1
:103518006B51010173210001676F66C0F6FF67C038
:10352800F7FF0800F5503F6E406AC9EC12F0120030
:10353800176E1750080DF3CF13F0F4CF14F0135093
:103548000001BA25186E1450BB21196E1750500887
:10355800156E000ED8A0E82A0008166E000E1D6E23
:10356800000E1C6E5BD0000E0D6E18C0D9FF19C07E
:10357800DAFFDF500E6E1C50BCEC22F0080E182447
:103588001A6E000E19201B6E000E1F6E010E1E6EA5
:103598000DD01AC0D9FF1BC0DAFFDF502BEC24F086
:1035A800080E1A26000E1B221E4A1F2A1FBE06D00E
:1035B8001F500EE1400E1E5CD8B00AD015501E5C9C
:1035C8001F50800A136E1650800A1358D8A0E1D7EE
:1035D800400E1E181F10D8B415D01C500001BA2573
:1035E8001A6E1D50BB211B6E0DD01AC0D9FF1BC00F
:1035F800DAFFDF502BEC24F0080E1A26000E1B22EF
:103608001E4A1F2A1FBEF1D71F5004E1400E1E5C40
:10361800D8A0EBD7184A192A1C4A1D2A1DBEA3D7C1
:103628001D5005E1080E1C5CD8B012009CD7120092
:1036380008C00CF009C00DF0060ED8900C360D36F7
:10364800E82EFBD70C500001BA250E6E0D50BB2199
:103658000F6E0A500E24136E0B500F20146E08C004
:103668000CF009C00DF0D8900C360D36D8900C36F9
:103678000D36D8900C360D360C50010152250E6EC1
:103688000D5053210F6E0A500E24D96E0B500F2087
:10369800DA6EDF50156E1550800B106E159E1550A2
:1036A800080DF3CF11F0F4CF12F0000E176E000ED4
:1036B800166E1050D8A40AD0115054250C6E125012
:1036C80055210D6E16500C2617500DD01650545D0E
:1036D8000C6E175055590D6E11500C2612500D22B4
:1036E800070E0C26000E0D220CC0F6FF0DC0F7FFCA
:1036F80013C0D9FF14C0DAFF0800F5CFDFFF080EAA
:103708001326000E1422164A172A17BED2D71750AE
:1037180005E1080E165CD8B01200CBD712000001E4
:10372800806F2FAE16D02DC024F02D0E256E00010F
:103738008051F4EC20F02D2A2EC01EF02FC01FF06F
:10374800FF0E216E206890EC24F01EC02EF01FC0E2
:103758002FF0000E0001826F000E816F2E502F1087
:10376800D8A428D0300E606F814B822B23D0000163
:103778008151600FD96EDA6A2EC01EF02FC01FF07B
:10378800000E216E0A0E206E2DEC21F01E50300F17
:10379800DF6E0001814B822B2EC016F02FC017F070
:1037A800000E196E0A0E186E73EC20F016C02EF07B
:1037B80017C02FF02FBE21D02F50D9E12E04D8A04A
:1037C8001CD0D5D78107D8A082078151600FD96E48
:1037D800DA6ADF50306E30502E6E2F6A2DC024F01A
:1037E8002EC025F08051F4EC20F02D2A7F0E2D6498
:1037F80004D00001802B000E2D6E000182BF120044
:103808008251E0E18105D8A01200DCD7386E305033
:10381800365C0001BC6F31503758BD6F36C016F0AA
:1038280037C017F0000E196E080E186E73EC20F0F2
:1038380016C036F017C037F032C016F033C017F094
:10384800000E196E080E186E73EC20F016C032F0D8
:1038580017C033F032C01EF033C01FF0000E216EC7
:103868000A0E206E2DEC21F01EC032F01FC033F07E
:1038780034C016F035C017F0000E196E080E186E19
:1038880073EC20F016C034F017C035F0070E34166C
:10389800000E35160F0E0001D16F0C0E3818D8A483
:1038A8000BD036C01EF037C01FF034C020F035C032
:1038B80021F0B5EC20F012D00C0E38640FD038C0CF
:1038C80080F136C008F037C009F034C00AF035C0BE
:1038D8000BF0D3C00CF00D6AC5EC1EF032C024F01A
:1038E80033C025F034C026F035C027F013EC1FF0A4
:1038F80012009E0E116E010E126E000E106E000E5A
:103908000F6E20EE06F01150D9261250DA22800EE2
:10391800DE18DE10D8B450D011C0D9FF12C0DAFFBB
:103928000850DE5CDE50800A0E6E0950800A0E5880
:10393800D8B042D011C0D9FF12C0DAFFDECF0CF0E8
:10394800DDCF0DF0080E0C26000E0D220C50085C81
:103958000950800A0E6E0D50800A0E58D8B02CD02F
:1039680020EE02F01150D9261250DA220A50DE5CFD
:10397800DE50800A0E6E0B50800A0E58D8B01CD04C
:1039880020EE02F01150D9261250DA22DECF0CF0C8
:10399800DDCF0DF0080E0C26000E0D220C500A5C2F
:1039A8000B50800A0E6E0D50800A0E58D8B004D005
:1039B8000F38E842F80B1200100E1126000E1222E2
:1039C8000F4A102A10BE9DD7105004E1040E0F5C58
:1039D800D8A097D7FF0E120012C016F0176A186AFF
:1039E8001134163601E3178016501D6E1D50D8A4E9
:1039F80007D0000E106E000E116E000E126E12002F
:103A080015C016F0176A186A1434163601E31780C1
:103A180016501E6E1E50D8A407D0000E106E000E51
:103A2800116E000E126E1200000E1A6E000E1B6E42
:103A3800000E1C6E1E50890F1D5E12C01EF0155020
:103A48001E1A800E1E16118EFF0E1016FF0E11166E
:103A5800000E1216148EFF0E1316FF0E1416000E0B
:103A68001516180E196ED8901A361B361C361350B8
:103A7800105C1450115815501258D8A007D0135084
:103A8800105E1450115A1550125A1A80D8901036D8
:103A980011361236192EE7D71AC008F01BC009F0E4
:103AA8001CC00AF01DC00BF01EC00CF019EC1EF073
:103AB80008C010F009C011F00AC012F01200D89026
:103AC8000D360E36D8900D360E36D8900D34F66E6B
:103AD8000E34F76EE70EF626780EF7220900F5CFBA
:103AE80070F10A00F5CF71F10DC00FF00EC010F0A3
:103AF800D8900F361036020E0F26000E1022E70E51
:103B08000F24F66E780E1020F76E0900F5CF6EF1CF
:103B18000A00F5CF6FF10DC00FF00EC010F0D8906D
:103B28000F361036040E0F26000E1022E70E0F2453
:103B3800F66E780E1020F76E0900F5CF6CF10A00CA
:103B4800F5CF6DF10DC00FF00EC010F0D8900F3604
:103B58001036060E0F26000E1022E70E0F24F66E02
:103B6800780E1020F76E0900F5CF6AF10A00F5CF3C
:103B78006BF13FEC23F012008A6F00018A514E6E00
:103B88004F6AD8904E364F36A20E4E24D96E010E8B
:103B98004F20DA6EDF50896F050E896119D00F0E3C
:103BA800D16F8A518FEC19F000018A51020D9E0ED7
:103BB800F324D96E010EF420DA6EDECF4EF0DDCF9D
:103BC8004FF087514E5CBC6F88514F58BD6F120043
:103BD800050E8919D8A413D00F0ED16F8A514E6ED5
:103BE8004F6AD8904E364F36A20E4E24D96E010E2B
:103BF8004F20DA6E040EDE6E000EDD6ED5D7060E8F
:103C08008919D8A406D00F0ED16F8A518FEC19F0FC
:103C1800CBD7060E89651200140E896112000F0EAB
:103C2800D16F8A518FEC19F0BFD70B50D8B405D09B
:103C3800085009100A10D8A40CD0000E086E000E07
:103C4800096E000E0A6E12000B2AD8900A32093249
:103C58000832000E08140D6E000E09140E6EFE0ECA
:103C68000A140F6E0D500E100F10D8B40CD0ECD7EC
:103C78000B2A010E0826000E0922000E0A22D890EF
:103C88000A3209320832000E08140D6E000E0914AB
:103C98000E6EFF0E0A140F6E0D500E100F10D8B4D2
:103CA80006D0E6D70B06D890083609360A3609BE7C
:103CB80003D0020E0B60F6D70BA0099ED8900B32EA
:103CC8000B500A120C50D8A40A8E08C008F009C07C
:103CD80009F00AC00AF01200000E126E000E116EF2
:103CE80040D0280E1124D96E010E1220DA6EDF5052
:103CF8000E6E0F6A08500E1832E109500F18D8A43A
:103D08002ED0140E1124D96E010E1220DA6EDF5057
:103D18007F0B0E6E0F6A0A500E1821E10B500F1818
:103D2800D8A41DD0000E1124D96E010E1220DA6E0F
:103D3800DF500E6E0F6A0C500E1811E10D500F185F
:103D4800D8A40DD0140E1124D96E010E1220DA6EEB
:103D58000101DFAE02D0010E1200000E1200114A5E
:103D6800122A0001D4510E6E0F6A0E50115C1250C7
:103D7800800A106E0F50800A1058D8A0B2D7020ED1
:103D88001200000E126E000E116E3BD0280E112488
:103D9800D96E010E1220DA6EDF500E6E0F6A0850CF
:103DA8000E182DE109500F18D8A429D0140E11248B
:103DB800D96E010E1220DA6EDF507F0B0E6E0F6A7D
:103DC8000A500E181CE10B500F18D8A418D0000E7A
:103DD8001124D96E010E1220DA6EDF500E6E0F6AB2
:103DE8000C500E180CE10D500F18D8A408D0140E62
:103DF8001124D96E010E1220DA6E000EDB8E114AE4
:103E0800122AD4510E6E0F6A0E50115C1250800A9D
:103E1800106E0F50800A1058D8B01200B7D724C0BF
:103E280028F025C029F0060ED89028362936E82E25
:103E3800FBD728500001BA252A6E2950BB212B6ECA
:103E480026502A242C6E27502B202D6E24C028F0B3
:103E580025C029F0D89028362936D8902836293612
:103E6800D890283629362850010152252A6E295023
:103E780053212B6E26502A24D96E27502B20DA6E18
:103E8800DF6A000E2F6E000E2E6E2CC0D9FF2DC0DB
:103E9800DAFFDF6A080E2C26000E2D222E4A2F2A62
:103EA8002FBEF3D72F5005E1080E2E5CD8B01200B4
:103EB800ECD7120024C016F025C017F0000E196EBA
:103EC800080E186E73EC20F016C024F017C025F009
:103ED80024C01EF025C01FF0000E216E0A0E206EB1
:103EE8002DEC21F01EC024F01FC025F026C016F0CE
:103EF80027C017F0000E196E080E186E73EC20F02C
:103F080016C026F017C027F0070E2616000E271633
:103F180024C028F025C029F0D89028362936D89012
:103F280028362936D89028362936800E28242A6E35
:103F3800020E29202B6E26502A24D96E27502B20BA
:103F4800DA6EDF5012001A0EF66E450EF76E000E8E
:103F5800F86E01EE81F010EE5DF00900F5CFEEFF8E
:103F6800E550E150FAE1C00EF66E490EF76E000E0C
:103F7800F86E0900F5CFD6F00900F5CFD7F003EEBB
:103F880049F012EE80F0EE6AE550E150FCE1E250B3
:103F9800FAE102EE00F0D00EEE6AE806FDE101EE6D
:103FA80000F0810EEE6AE806FDE100EEB4F0220EA4
:103FB800EE6AE806FDE100EE50F0080EEE6AE8064B
:103FC800FDE158905892000EF86E00014BEF00F09A
:103FD800000E106E000E0F6E30D0400E0F24D96EFA
:103FE800020E1020DA6EDF500C6E0D6A08500C18A5
:103FF80022E109500D18D8A41ED0000E0F24D96E46
:10400800020E1020DA6EDF507F0B0C6E0D6A0A501C
:104018000C1811E10B500D18D8A40DD0000E0F2468
:10402800D96E020E1020DA6E0201DFAE02D0010E48
:104038001200000E12000F4A102A0001D5510C6E12
:104048000D6A0C500F5C1050800A0E6E0D50800ADD
:104058000E58D8A0C2D7020E1200366E2F5001019A
:104068007E25326E000E7F21336E32C0F6FF33C0DC
:10407800F7FF0800F550306E316A550E3024346E63
:104088007C0E3120356E050E086E365040EC24F05B
:10409800366E000E386E000E376E36C018F0196A8C
:1040A80037C01AF038C01BF034C0F6FF35C0F7FF30
:1040B8000800F5501C6E1D6A2FC01EF01F6A02EC26
:1040C80016F0344A352A374A382A38BEE6D73850E7
:1040D80005E1040E375CD8B01200DFD71200000EDD
:1040E8001B6E19AE06D0186C191ED8B0192A010E0D
:1040F8001B6E17AE06D0166C171ED8B0172A010E05
:104108001B1A000E1D6E000E1C6E18501910D8B424
:104118001CD0010E1A6E04D0D890183619361A2AF7
:1041280019AEFAD7D8901C361D361850165C19509F
:104138001758D8A005D01850165E1950175A1C8069
:10414800D890193218321A2EEDD71B50D8B404D093
:104158001C6C1D1ED8B01D2A1CC016F01DC017F0FF
:104168001200000E266E000E256E2BD0400E252460
:10417800D96E020E2620DA6EDF50226E236A1E5098
:1041880022181DE11F502318D8A419D0000E252489
:10419800D96E020E2620DA6EDF507F0B226E236A5C
:1041A800205022180CE121502318D8A408D0000E62
:1041B8002524D96E020E2620DA6E000EDB8E254AE3
:1041C800262A0001D551226E236A2250255C2650EA
:1041D800800A246E2350800A2458D8B01200C6D70B
:1041E800266EE00E25241E6E1F6AFF0E1F22000E8B
:1041F800216E050E206E90EC24F01EC029F01FC021
:104208002AF02450050DF3CF24F0000E2C6E000E7A
:104218002B6E370E2924F66E750E2A20F76E0800CD
:10422800F550276E286A24C00DF027C00EF02650DE
:10423800BCEC22F0242A294A2A2A2B4A2C2A2CBEF2
:10424800E8D72C5005E1050E2B5CD8B01200E1D759
:104258001200000E236E1FAE06D01E6C1F1ED8B0B3
:104268001F2A010E236E21AE04D0206C211ED8B067
:10427800212A20502110D8B418D0010E226E04D063
:10428800D89020362136222A21AEFAD720501E5C3B
:1042980021501F58D8A004D020501E5E21501F5A0C
:1042A800D89021322032222EF1D72350D8B404D00E
:1042B8001E6C1F1ED8B01F2A1EC01EF01FC01FF084
:1042C8001200196E19C008F0096A18C00AF00B6AC2
:1042D8001CEC1BF0070E18600BD019C008F0096A17
:1042E800010E18240A6E0B6A000E0B221CEC1BF040
:1042F800192A090E196402D0000E196E19C008F0A7
:10430800096A18C00AF00B6A1CEC1BF0070E18604B
:10431800120019C008F0096A010E18240A6E0B6A07
:10432800000E0B221CEC1BF01200306E000E326ED9
:10433800000E316E11D02D503124246E2EC0F6FFA0
:104348002FC0F7FF0800F5CF25F03050F4EC20F02F
:104358002E4A2F2A314A322A2EC0F6FF2FC0F7FFE5
:104368000800F5500A0AD8B412002EC0F6FF2FC074
:10437800F7FF0800F5500009D8B412002EC0F6FF68
:104388002FC0F7FF0800F5500D0AD8B41200D3D794
:10439800316E0E0E3118D8A417D0020E0001D7279F
:1043A800050ED76502D0060ED76F150E2D6ED7C035
:1043B8002EF02F6A020E93EC1BF0000EBF6F000E5A
:1043C800BE6F000E0101806F0F0E3118D8A41200C5
:1043D800060E0001D76F150E2D6ED7C02EF02F6A6E
:1043E800020E93EC1BF0000EBF6F000EBE6F000EA6
:1043F8000101806F12000A6E0A50020D220EF3248A
:10440800F66E790EF420F76E0900F5CF0BF00A006E
:10441800F5CF0CF0FF0E0B24F66E780E0C20F76E1D
:104428000800F55001014E6F4F6B0BC04CF10CC0EA
:104438004DF10BC008F00CC009F0D89008360936C9
:10444800D8900836093608C0B4F009C0B5F00AC0DB
:1044580050F1516B1200196E19C01AF01B6A1CD06A
:1044680014C01CF01D6A09D01CC00DF0000E0E6EA1
:104478001A50BCEC22F01C4A1D2A1550166E176AF9
:104488001C50165C1750800A186E1D50800A185868
:10449800D8B0EAD71A4A1B2A1350166E176A1A5050
:1044A800165C1750800A186E1B50800A1858D8A03E
:1044B8001200D6D70101504B512BD8905035F66ECB
:1044C8005135F76E220EF626790EF7220900F5CF40
:1044D8000AF00A00F5CF0BF0FF0E0A24F66E780EEC
:1044E8000B20F76E0800F5504E6F4F6B0AC04CF169
:1044F8000BC04DF10AC008F00BC009F0D89008367F
:104508000936D8900836093608C0B4F009C0B5F0A5
:10451800120000808080808001000000DB7FE67F41
:10452800CF7FF87FF07FC27FB47FA57F02000100B4
:1045380000000000008000000000000000FFFF00F5
:1045480000000000008000000000000000FFFF00E5
:1045580000000000008000000000000000FFFF00D5
:0F45680000000000008000000000000000FFFFC6
:104578000F6E400E0D6004D0000E116E010E03D0B8
:10458800000E116E020E106E10C012F00F50C4EC27
:1045980024F00D5065EC23F01250D1EC23F0000EFE
:1045A800936E1204D8B48190020E1218D8B4819276
:1045B800819681840000818800000EC083FF000E70
:1045C800956E00008198818081821200000E106E25
:1045D800000E116E000E126E000E136E08A008D0A9
:1045E8000C5010260D5011220E5012220F5013227B
:1045F800D8900C360D360E360F36D8900B320A325C
:1046080009320832085009100A100B10D8A4E6D74E
:1046180010C008F011C009F012C00AF013C00BF066
:10462800120087C108F088C109F089C10AF08AC15F
:104638000BF06D0E0C6E4E0E0D6EC60E0E6E410E0C
:104648000F6EEAEC22F008C087F109C088F10AC0B1
:1046580089F10BC08AF1390E01018727300E8823B2
:10466800000E8923000E8A23FF0E8915146E7F0E13
:104678008A15156E1200000E0C6E000E0B6E10D00F
:10468800400E0B24D96E020E0C20DA6EDF6A000E83
:104698000B24D96E020E0C20DA6EDF6A0B4A0C2A44
:1046A8000001D551086E096A08500B5C0C50800A4D
:1046B8000A6E0950800A0A58D8A0E2D7000ED56FB2
:1046C80012000C6E400E0C600CD0010E0A6E0C50DD
:1046D80040099DEC23F0020E0A6E400E9DEC23F07B
:1046E8001200010E0A6E7F0E9DEC23F0020E0A6E78
:1046F8000C50C00F40099DEC23F01200280E000159
:10470800D425D96EDA6A010EDA2208C0DFFF140E4A
:10471800D425D96EDA6A010EDA220AC0DFFF000E4C
:10472800D425D96EDA6A010EDA220CC0DFFFD42B49
:1047380012000B6E0A50D1EC23F0000E936E0A049F
:10474800D8B48190020E0A18D8B4819281968194C7
:104758000000818800000BC083FF000E956E0000EA
:10476800819881808182120008C0BAF009C0BBF02C
:104778000AC056F10BC057F10CC054F10DC055F1E9
:104788000EC052F10FC053F110C0B8F011C0B9F00B
:1047980012C0B6F013C0B7F01200096E9568000E8B
:1047A800936E0904D8B48190020E0918D8B4819286
:1047B8008186819400008188000083CF08F0819869
:1047C80008BEF9D78180818212000BD09EA8FED73F
:1047D80008C0F6FF09C0F7FF0800F5CFADFF084A8B
:1047E800092A08C0F6FF09C0F7FF0800F5500009BC
:1047F800D8B41200EBD72CC024F02DC025F02EC061
:1048080026F02FC027F05EEC1FF0306E3004D8B4CD
:1048180004D00C0E3018D8A402D0010E1200000EDD
:1048280012000BD09EA8FED701C0F6FF02C0F7FF0A
:104838000800F5CFADFF014A022A01C0F6FF02C009
:10484800F7FF0800F5500009D8B41200EBD70A6E3C
:10485800010ED1EC23F0000E936E81908196818435
:104868000000818800000AC083FF000E956E0000DA
:104878008198818081821200096E080E0A6E000EEE
:104888000B6ED89009340B340B6ED890093608504B
:104898000B5CD8A002D008500B5E0A2EF2D70B5042
:1048A8001200070E136E000E146E7F0E156E000EAA
:1048B8002FEC22F0080E2D6EE60E2E6E7F0E2F6E58
:1048C800030E99EC21F00000FED7070E136E000EC0
:1048D800146E7F0E156E000E2FEC22F0080E2D6E52
:1048E800CF0E2E6E7F0E2F6E030E99EC21F0000076
:1048F800FED7400E0001D525D96EDA6A020EDA22FB
:1049080008C0DFFF000ED525D96EDA6A020EDA225A
:104918000AC0DFFFD52B12001E502002F3CF22F071
:10492800F4CF23F01E502102F35023261F502002FB
:10493800F350232622C01EF023C01FF0120010C01F
:1049480008F011C009F00A6A8E0E0B6E000E0C6E8C
:1049580019EC1EF008C010F009C011F00AC012F0DE
:104968001200818A010E0A6E3F0E9DEC23F0020EA2
:104978000A6E3F0E9DEC23F0000ED2EC24F01200DC
:104988000C6E010E0A6E0C50B8099DEC23F0020E55
:104998000A6E0C50B8099DEC23F012000C6E010E43
:1049A8000A6E0C50C0099DEC23F0020E0A6E0C50E2
:0A49B800C0099DEC23F01200060672
:107136000000000000000000000000000000000049
:107146000000000000000000000000000000000039
:107156000000000080404020100C4A8A2CD820E015
:107166000000000000000000000000000000000019
:107176000000000000000000000000000000000009
:1071860000000000000000000000000000000000F9
:1071960000000000000000000000000000000000E9
:1071A60000000000000000000000000000000000D9
:1071B60000000000000000000000000000000000C9
:1071C60000000000000000000000000000000000B9
:1071D6000000000003020206087070F1F0787C03DC
:1071E6000000808080C04040404040C08080C04059
:1071F6004040602020206040C0808080C06020C069
:1072060080000080C0407EC1010107FC0000000034
:107216000000000000000000000000000000000068
:107226000000000000000000000000000000000058
:107236000000000000000000000000000000000048
:107246000000000000000000000000007CC40202F4
:10725600063CE0FC060301F11F00FC8404040C3824
:10726600EE1B11F00000187878780080C1633E1894
:10727600F00000003C3C1800C0C0233F3EE0800008
:10728600070C068360300C07FD07030101F161C19D
:1072960083C67C0000000000000000000000000023
:1072A60000000000000000000000000000000000D8
:1072B60000000000000000000000000000000000C8
:1072C60000000000000000000000000000037EC077
:1072D6000000030140C000011F3060C7FC00000031
:1072E600031E70FF00000000FC1C70C181070CF833
:1072F6008F0000001E1E0E00000183E63C78CF00C2
:107306000080FE137CC4040C38233C000087FC007C
:107316000000000000000000000000000000000067
:107326000000000000000000000000000000000057
:107336000000000000000000000000000000000047
:107346000000000000000000000000000000000334
:1073560006FC8000008FFF040C183020212F3C888B
:107366008888880F02C42424E7800000C16223E1D4
:1073760081E31262C202020202F3090404F8010365
:107386000203C070101133E604040C080C07010058
:1073960000000000000000000000000000000000E7
:1073A60000000000000000000000000000000000D7
:1073B60000000000000000000000000000000000C7
:1073C6000000000000000000808080808080800037
:1073D60080F011090909CCC4040C18F87E030139A0
:1073E6002CA4E780FE01703870071CFC0300E0E166
:1073F60003C0F0800FF88000E0FF0000FFC07018A7
:107406000C07819C9F000007F80603071C307E01CD
:1074160002FC00FC0206C4CC989070C0000000007C
:107426000000000000000000000000000000000056
:107436000000000000000000000000000000000046
:10744600000000000000060F0830E0801878F8F908
:10745600F1E20418E000010170E0C78F1CF0C08063
:1074660087444447381008060204040F080603013F
:1074760002030003060603003F4180808F8F887851
:107486000C060300011F10180F7080807C1870C056
:1074960080FFFE01001E1F1F87C3701F0000000033
:1074A60000000000000000000000000000000000D6
:1074B60000000000000000000000000000000000C6
:1074C6000000000000000000000000073C60C187CB
:1074D6004761180C070306040603000101010000BA
:1074E6000000000000000000000000000000000096
:1074F6000000000000000000000000000000000086
:107506000000000000000000000000000000000075
:107516000000010202020301010000000000000059
:107526000000000000000000000000000000000055
:1075360000000000000000005F00000007000700D8
:10754600147F147F14242A7F2A12231308646236B8
:10755600495522500005030000001C22410000414D
:10756600221C00082A1C2A0808083E080800503079
:107576000000080808080800303000002010080441
:10758600023E5149453E00427F4000426151494614
:107596002141454B311814127F1027454545393C8A
:1075A6004A494930017109050336494949360649B0
:1075B60049291E0036360000005636000000081421
:1075C6002241141414141441221408000201510912
:1075D60006324979413E7E1111117E7F494949366D
:1075E6003E414141227F4141221C7F494949417F19
:1075F600090901013E414151327F0808087F0041D7
:107606007F41002040413F017F081422417F4040D6
:1076160040407F0204027F7F0408107F3E414141C3
:107626003E7F090909063E4151215E7F0919294617
:10763600464949493101017F01013F4040403F1F12
:107646002040201F7F2018207F6314081463030442
:10765600780403615149454300007F414102040813
:10766600102041417F0000040201020440404040D6
:1076760040000102040020545454787F48444438A2
:107686003844444420384444487F385454541808F5
:107696007E090102081454543C7F0804047800440F
:1076A6007D40002040443D00007F10284400417F7B
:1076B60040007C041804787C080404783844444468
:1076C600387C14141408081414187C7C0804040864
:1076D6004854545420043F4440203C4040207C1CE5
:1076E6002040201C3C4030403C44281028440C508C
:1076F60050503C4464544C44000836410000007F1E
:107706000000004136080008082A1C08081C2A0840
:10771600080801AA010800383838000000000000F7
:10772600000000000000000001000006000000004C
:10773600001A00000002000000020000001E008087
:107746000106000E00030002003A00300214000792
:107756000004000100620050001B0001000500014A
:10776600006C0000001C0001000600000000000084
:107776000000000100000000000500A00001000458
:1077860000010001001400A0000500050003000030
:10779600002200A0000A00000005000000340000DE
:1077A600000A00010007000000390030000B00004D
:1077B60000080000004000F0000B00000009000176
:1077C60000540000000B0001000F000000590040AB
:1077D600010C000000100005007200A0000C000063
:1077E60000120001008100C0000C0000001400001F
:1077F60000920000000C00010016000000970040F7
:10780600000D00000017000000A0000500080000A1
:1078160000180000000B0C80800B0C80800B0C8085
:107826008080808080808080800A808080808080C8
:10783600800B0C80800B0C8080808080800B0C80FD
:10784600800B0C80800B0C80800B0C80800B0C80D6
:10785600800B0C808080808080000000000000008B
:1078660000FEFE0000000000000000000001000015
:107876000000000000E0E00000020200000000003E
:10788600000404000004040000FCFC0000000000EA
:1078960000000000000000000000000000000000E2
:1078A60000FFFF00000202000001010000000000CE
:1078B600000100000000000000ECEC0000010100E7
:1078C60000000000000202000000000000000000AE
:1078D60000FCFC0000040400000404000004040092
:1078E600000000000000000000060071001D0007F7
:1078F60000140016012A002000200A08141E1EFF8C
:107906000114FF0205070714030AFF010001010025
:107916000000000000000000000300000000070057
:107926000A000C0000000000000008080000141403
:107936001400080C3C1C40041004001428101018F5
:1079460018181820A41C24000800382C30303400E5
:10795600040008382C302C303400140838302C340D
:107966003C1C402000002400444C4C5400504C4C1D
:107976004800444C10480050104C480058A84C543D
:10798600004410104800504C605400382C2C300035
:107996005C644C5C0000080038000800686C0070ED
:1079A6007400240010106048006010104800206C1D
:1079B600686878786868687878686C24206C687C71
:1079C6007C7C7C7C7C7C6804800410106868007079
:1079D60084840008144C8864908C1C0094A0004C8D
:1079E6006010100010109C9800601010600004AC2D
:1079F6001C040074B0B870B074BCB070B8B07464D5
:107A060064B44CC01010C04CB4C464000000C8CCB0
:107A16000010D8D0D400D810908C00000000DCDC18
:107A260000001C1010104C601010100074001C7028
:107A36000074080008144C604C00847470840000C4
:107A46007EFFFFFFFF7E00007EFFFFFFFF7E000040
:107A56007EFFFFFFFF7E00007EFFFFFFFF7E000030
:107A66007EFFFFFFFF7E00007EFFFFFFFF7E000020
:107A7600087E3F3F7E0800007EFFFFFFFF7E00007E
:107A86007EFFFFFFFF7E00007EFFFFFFFF7E000000
:107A960000000000000000007EFFFFFFFF7E0000E8
:107AA6007EFFFFFFFF7E00007EFFFFFFFF7E0000E0
:107AB6007EFFFFFFFF7E00007EFFFFFFFF7E0000D0
:107AC6007EFFFFFFFF7E00007EFFFFFFFF7E0000C0
:107AD6007EFFFFFFFF7E00007EFFFFFFFF7E0000B0
:107AE6007EFFFFFFFF7E0000000000000000000098
:107AF6007EFFFFFFFF7E00007EFFFFFFFF7E000090
:107B06007EFFFFFFFF7E00007EFFFFFFFF7E00007F
:107B16007EFFFFFFFF7E00007EFFFFFFFF7E00006F
:107B26007EFFFFFFFF7E00007EFFFFFFFF7E00005F
:107B36007EFFFFFFFF7E00007EFFFFFFFF7E00004F
:107B46007EFFFFFFFF7E00FCC2E19981D9C2FC3CAB
:107B560042E1D9C1D9423CFFC1828D818D423C0EA2
:107B66006AF2C141475966FCC2F185A1C5C2FC3C17
:107B760042F1C5E185423C0C7442212142740C0F4E
:107B860011325C8494B4783C42F2DEE1ED633C0F42
:107B960011325C8494B47800000018180000000DBF
:107BA6007643212142760DE0100868086810E00847
:107BB600163541414E221C08163541E18E68187073
:107BC6004E8DA18DB5D21E1E71899191B9D20C3CF4
:107BD60042818183854A3D3C428181C1A152BC1EBE
:107BE6002BE3EBE31F070E7EEBE32B23FFE70E7E73
:107BF600FF7E007EFF7E003CDAC25AC2CC50203C9B
:107C06005AC2DAC24C502066F9C25A42DAC23C7EE7
:107C16008181818181817E387CF6FEFC7A35011274
:107C2600A45A7FDA663D483C52B5BDA9B95A3C3CD8
:107C36003C183C727A7E3C0070FBFFEFCB70003E36
:107C46004DE1ED81825C38003C727A7E7E3C00001C
:107C56000000010000010102000001000101010015
:107C660000000000000301000005040000060107F3
:107C760007070108080801000901010C0000010CB2
:107C86000D0D010A0000010B0000010E0E0E010F82
:107C96000F0F010707010708080108000010000779
:107CA6000707070808080807010107001010000069
:107CB600061000001000001111110111111201002F
:107CC6000010010010000111000001111311010044
:107CD600090000001010010003000012101111111C
:107CE6001011110000080100030610000008000032
:107CF6000306010000150100161000020011010024
:107D0600170D0100170D0D0D0D0D010010060100D8
:107D16000000100610000001010001010600011814
:107D2600111918181A191802000000001B1B01016E
:107D360038280102402001033820020448200305A8
:107D46004728010D4028020138200601382807027D
:107D560030000803362805063C18010840280109AA
:107D66003000080A3000080D3820060D3828070FA5
:107D76003628051036000812362006123628070562
:107D86001818010A2818010F1418041420180214D0
:107D96002C18042310180223281801003319140084
:107DA60036271F003007010000100B0020280100B5
:107DB6002828010A30170F00382712002800080665
:107DC60048281207300008074827010038281E00F7
:107DD60030171100301611090000000900000000DC
:107DE60000000000000000FFFFFFFFFFFFFFFF0095
:107DF600C06020300804040003040408101010AA10
:107E060055AA55AA55AA55FCFFFCF0FCFFFCF0FF4D
:107E1600000000000000FFF00C020202020CF00C51
:107E26007442212142740C8080804040201807FF54
:107E3600AA0000000000008D088888F8800888FFE6
:107E4600F7C7E1C7F7FFFF027F7F2038F828380021
:107E56007C9795977C00003845BA9392BB453818B5
:107E660020BE6969BE201830587C7C64645830E0B6
:107E7600BCD66A566B3D07C0A05C322121120C3875
:107E86007CF6FEFC7A3501FFFBFDADF5FBFFFF003E
:107E960000000001010101020382830001000104C8
:107EA600040404050405040706000001010000009F
:107EB600000101080000000009090089000089008E
:107EC6000900890A0A8A8A0A0A000000008A8A01C9
:107ED6000001000B0B0B0B07060B0B0B0B00000C2A
:107EE6000C0C0C000E0000010F010C010A018A0B9C
:107EF600010B01010B010B00130000010C010C2802
:107F06002828280000281728260007070026260606
:107F160015251726261516272700260000272624AE
:107F260014BE245A001407122078C1600000005FB6
:107F3600F0D0613000A03010610000000014100085
:107F460000B00050000000000050C04000000030AB
:107F5600F0A0500000A00000500000000000000D3E
:107F6600FFFFFFFFFFFFFF08FF04FF04FFFFFF0106
:107F760004070E10FFFF0CFF08FF09FFFFFFFF01BC
:107F8600050003040002010207010808040A0605A9
:107F9600060606060C01090308000500000D034C41
:107FA60037412050726F6A656374650A0D0044613B
:107FB6006E69204D656A6961730A0D004269656CD8
:107FC60020506572657A0A0D0047616D65204F760F
:107FD60065720A0D0073616C74616E646F0A0D0040
:107FE60054686520456E640A0D004B697262790A11
:0A7FF6000D00426F73730A0D0000C6
:020000040030CA
:0E000000FF021900FFA180FF0FC00FE00F40AC
:00000001FF
